{
  "address": "0x2b61D7D115c83A852a48aC9eBCa03EAE234084c5",
  "abi": [
    {
      "inputs": [],
      "stateMutability": "nonpayable",
      "type": "constructor"
    },
    {
      "inputs": [],
      "name": "CheckpointUnorderedInsertion",
      "type": "error"
    },
    {
      "inputs": [],
      "name": "ERC1167FailedCreateClone",
      "type": "error"
    },
    {
      "inputs": [],
      "name": "FailedInnerCall",
      "type": "error"
    },
    {
      "inputs": [
        {
          "internalType": "address",
          "name": "voter",
          "type": "address"
        }
      ],
      "name": "GovernorAlreadyCastVote",
      "type": "error"
    },
    {
      "inputs": [
        {
          "internalType": "uint256",
          "name": "proposalId",
          "type": "uint256"
        }
      ],
      "name": "GovernorAlreadyQueuedProposal",
      "type": "error"
    },
    {
      "inputs": [],
      "name": "GovernorDisabledDeposit",
      "type": "error"
    },
    {
      "inputs": [
        {
          "internalType": "address",
          "name": "proposer",
          "type": "address"
        },
        {
          "internalType": "uint256",
          "name": "votes",
          "type": "uint256"
        },
        {
          "internalType": "uint256",
          "name": "threshold",
          "type": "uint256"
        }
      ],
      "name": "GovernorInsufficientProposerVotes",
      "type": "error"
    },
    {
      "inputs": [
        {
          "internalType": "uint256",
          "name": "targets",
          "type": "uint256"
        },
        {
          "internalType": "uint256",
          "name": "calldatas",
          "type": "uint256"
        },
        {
          "internalType": "uint256",
          "name": "values",
          "type": "uint256"
        }
      ],
      "name": "GovernorInvalidProposalLength",
      "type": "error"
    },
    {
      "inputs": [
        {
          "internalType": "uint256",
          "name": "quorumNumerator",
          "type": "uint256"
        },
        {
          "internalType": "uint256",
          "name": "quorumDenominator",
          "type": "uint256"
        }
      ],
      "name": "GovernorInvalidQuorumFraction",
      "type": "error"
    },
    {
      "inputs": [
        {
          "internalType": "address",
          "name": "voter",
          "type": "address"
        }
      ],
      "name": "GovernorInvalidSignature",
      "type": "error"
    },
    {
      "inputs": [],
      "name": "GovernorInvalidVoteType",
      "type": "error"
    },
    {
      "inputs": [
        {
          "internalType": "uint256",
          "name": "votingPeriod",
          "type": "uint256"
        }
      ],
      "name": "GovernorInvalidVotingPeriod",
      "type": "error"
    },
    {
      "inputs": [
        {
          "internalType": "uint256",
          "name": "proposalId",
          "type": "uint256"
        }
      ],
      "name": "GovernorNonexistentProposal",
      "type": "error"
    },
    {
      "inputs": [
        {
          "internalType": "uint256",
          "name": "proposalId",
          "type": "uint256"
        }
      ],
      "name": "GovernorNotQueuedProposal",
      "type": "error"
    },
    {
      "inputs": [
        {
          "internalType": "address",
          "name": "account",
          "type": "address"
        }
      ],
      "name": "GovernorOnlyExecutor",
      "type": "error"
    },
    {
      "inputs": [
        {
          "internalType": "address",
          "name": "account",
          "type": "address"
        }
      ],
      "name": "GovernorOnlyProposer",
      "type": "error"
    },
    {
      "inputs": [],
      "name": "GovernorQueueNotImplemented",
      "type": "error"
    },
    {
      "inputs": [
        {
          "internalType": "address",
          "name": "proposer",
          "type": "address"
        }
      ],
      "name": "GovernorRestrictedProposer",
      "type": "error"
    },
    {
      "inputs": [
        {
          "internalType": "uint256",
          "name": "proposalId",
          "type": "uint256"
        },
        {
          "internalType": "enum IGovernor.ProposalState",
          "name": "current",
          "type": "uint8"
        },
        {
          "internalType": "bytes32",
          "name": "expectedStates",
          "type": "bytes32"
        }
      ],
      "name": "GovernorUnexpectedProposalState",
      "type": "error"
    },
    {
      "inputs": [
        {
          "internalType": "address",
          "name": "account",
          "type": "address"
        },
        {
          "internalType": "uint256",
          "name": "currentNonce",
          "type": "uint256"
        }
      ],
      "name": "InvalidAccountNonce",
      "type": "error"
    },
    {
      "inputs": [],
      "name": "InvalidInitialization",
      "type": "error"
    },
    {
      "inputs": [],
      "name": "NotInitializing",
      "type": "error"
    },
    {
      "inputs": [
        {
          "internalType": "address",
          "name": "owner",
          "type": "address"
        }
      ],
      "name": "OwnableInvalidOwner",
      "type": "error"
    },
    {
      "inputs": [
        {
          "internalType": "address",
          "name": "account",
          "type": "address"
        }
      ],
      "name": "OwnableUnauthorizedAccount",
      "type": "error"
    },
    {
      "inputs": [],
      "name": "QueueEmpty",
      "type": "error"
    },
    {
      "inputs": [],
      "name": "QueueFull",
      "type": "error"
    },
    {
      "inputs": [],
      "name": "ReentrancyGuardReentrantCall",
      "type": "error"
    },
    {
      "inputs": [
        {
          "internalType": "uint8",
          "name": "bits",
          "type": "uint8"
        },
        {
          "internalType": "uint256",
          "name": "value",
          "type": "uint256"
        }
      ],
      "name": "SafeCastOverflowedUintDowncast",
      "type": "error"
    },
    {
      "anonymous": false,
      "inputs": [],
      "name": "EIP712DomainChanged",
      "type": "event"
    },
    {
      "anonymous": false,
      "inputs": [
        {
          "indexed": false,
          "internalType": "uint64",
          "name": "version",
          "type": "uint64"
        }
      ],
      "name": "Initialized",
      "type": "event"
    },
    {
      "anonymous": false,
      "inputs": [
        {
          "indexed": true,
          "internalType": "address",
          "name": "previousOwner",
          "type": "address"
        },
        {
          "indexed": true,
          "internalType": "address",
          "name": "newOwner",
          "type": "address"
        }
      ],
      "name": "OwnershipTransferred",
      "type": "event"
    },
    {
      "anonymous": false,
      "inputs": [
        {
          "indexed": false,
          "internalType": "uint256",
          "name": "proposalId",
          "type": "uint256"
        }
      ],
      "name": "ProposalCanceled",
      "type": "event"
    },
    {
      "anonymous": false,
      "inputs": [
        {
          "indexed": false,
          "internalType": "uint256",
          "name": "proposalId",
          "type": "uint256"
        },
        {
          "indexed": false,
          "internalType": "address",
          "name": "proposer",
          "type": "address"
        },
        {
          "indexed": false,
          "internalType": "address[]",
          "name": "targets",
          "type": "address[]"
        },
        {
          "indexed": false,
          "internalType": "uint256[]",
          "name": "values",
          "type": "uint256[]"
        },
        {
          "indexed": false,
          "internalType": "string[]",
          "name": "signatures",
          "type": "string[]"
        },
        {
          "indexed": false,
          "internalType": "bytes[]",
          "name": "calldatas",
          "type": "bytes[]"
        },
        {
          "indexed": false,
          "internalType": "uint256",
          "name": "voteStart",
          "type": "uint256"
        },
        {
          "indexed": false,
          "internalType": "uint256",
          "name": "voteEnd",
          "type": "uint256"
        },
        {
          "indexed": false,
          "internalType": "string",
          "name": "description",
          "type": "string"
        }
      ],
      "name": "ProposalCreated",
      "type": "event"
    },
    {
      "anonymous": false,
      "inputs": [
        {
          "indexed": false,
          "internalType": "uint256",
          "name": "proposalId",
          "type": "uint256"
        }
      ],
      "name": "ProposalExecuted",
      "type": "event"
    },
    {
      "anonymous": false,
      "inputs": [
        {
          "indexed": false,
          "internalType": "uint256",
          "name": "proposalId",
          "type": "uint256"
        },
        {
          "indexed": false,
          "internalType": "uint256",
          "name": "etaSeconds",
          "type": "uint256"
        }
      ],
      "name": "ProposalQueued",
      "type": "event"
    },
    {
      "anonymous": false,
      "inputs": [
        {
          "indexed": false,
          "internalType": "uint256",
          "name": "oldQuorumNumerator",
          "type": "uint256"
        },
        {
          "indexed": false,
          "internalType": "uint256",
          "name": "newQuorumNumerator",
          "type": "uint256"
        }
      ],
      "name": "QuorumNumeratorUpdated",
      "type": "event"
    },
    {
      "anonymous": false,
      "inputs": [
        {
          "indexed": true,
          "internalType": "address",
          "name": "voter",
          "type": "address"
        },
        {
          "indexed": false,
          "internalType": "uint256",
          "name": "proposalId",
          "type": "uint256"
        },
        {
          "indexed": false,
          "internalType": "uint8",
          "name": "support",
          "type": "uint8"
        },
        {
          "indexed": false,
          "internalType": "uint256",
          "name": "weight",
          "type": "uint256"
        },
        {
          "indexed": false,
          "internalType": "string",
          "name": "reason",
          "type": "string"
        }
      ],
      "name": "VoteCast",
      "type": "event"
    },
    {
      "anonymous": false,
      "inputs": [
        {
          "indexed": true,
          "internalType": "address",
          "name": "voter",
          "type": "address"
        },
        {
          "indexed": false,
          "internalType": "uint256",
          "name": "proposalId",
          "type": "uint256"
        },
        {
          "indexed": false,
          "internalType": "uint8",
          "name": "support",
          "type": "uint8"
        },
        {
          "indexed": false,
          "internalType": "uint256",
          "name": "weight",
          "type": "uint256"
        },
        {
          "indexed": false,
          "internalType": "string",
          "name": "reason",
          "type": "string"
        },
        {
          "indexed": false,
          "internalType": "bytes",
          "name": "params",
          "type": "bytes"
        }
      ],
      "name": "VoteCastWithParams",
      "type": "event"
    },
    {
      "inputs": [],
      "name": "BALLOT_TYPEHASH",
      "outputs": [
        {
          "internalType": "bytes32",
          "name": "",
          "type": "bytes32"
        }
      ],
      "stateMutability": "view",
      "type": "function"
    },
    {
      "inputs": [],
      "name": "CLOCK_MODE",
      "outputs": [
        {
          "internalType": "string",
          "name": "",
          "type": "string"
        }
      ],
      "stateMutability": "view",
      "type": "function"
    },
    {
      "inputs": [],
      "name": "COUNTING_MODE",
      "outputs": [
        {
          "internalType": "string",
          "name": "",
          "type": "string"
        }
      ],
      "stateMutability": "pure",
      "type": "function"
    },
    {
      "inputs": [],
      "name": "EXTENDED_BALLOT_TYPEHASH",
      "outputs": [
        {
          "internalType": "bytes32",
          "name": "",
          "type": "bytes32"
        }
      ],
      "stateMutability": "view",
      "type": "function"
    },
    {
      "inputs": [
        {
          "internalType": "address[]",
          "name": "targets",
          "type": "address[]"
        },
        {
          "internalType": "uint256[]",
          "name": "values",
          "type": "uint256[]"
        },
        {
          "internalType": "bytes[]",
          "name": "calldatas",
          "type": "bytes[]"
        },
        {
          "internalType": "bytes32",
          "name": "descriptionHash",
          "type": "bytes32"
        }
      ],
      "name": "cancel",
      "outputs": [
        {
          "internalType": "uint256",
          "name": "",
          "type": "uint256"
        }
      ],
      "stateMutability": "nonpayable",
      "type": "function"
    },
    {
      "inputs": [
        {
          "internalType": "uint256",
          "name": "proposalId",
          "type": "uint256"
        },
        {
          "internalType": "uint8",
          "name": "support",
          "type": "uint8"
        }
      ],
      "name": "castVote",
      "outputs": [
        {
          "internalType": "uint256",
          "name": "",
          "type": "uint256"
        }
      ],
      "stateMutability": "nonpayable",
      "type": "function"
    },
    {
      "inputs": [
        {
          "internalType": "uint256",
          "name": "proposalId",
          "type": "uint256"
        },
        {
          "internalType": "uint8",
          "name": "support",
          "type": "uint8"
        },
        {
          "internalType": "address",
          "name": "voter",
          "type": "address"
        },
        {
          "internalType": "bytes",
          "name": "signature",
          "type": "bytes"
        }
      ],
      "name": "castVoteBySig",
      "outputs": [
        {
          "internalType": "uint256",
          "name": "",
          "type": "uint256"
        }
      ],
      "stateMutability": "nonpayable",
      "type": "function"
    },
    {
      "inputs": [
        {
          "internalType": "uint256",
          "name": "proposalId",
          "type": "uint256"
        },
        {
          "internalType": "uint8",
          "name": "support",
          "type": "uint8"
        },
        {
          "internalType": "string",
          "name": "reason",
          "type": "string"
        }
      ],
      "name": "castVoteWithReason",
      "outputs": [
        {
          "internalType": "uint256",
          "name": "",
          "type": "uint256"
        }
      ],
      "stateMutability": "nonpayable",
      "type": "function"
    },
    {
      "inputs": [
        {
          "internalType": "uint256",
          "name": "proposalId",
          "type": "uint256"
        },
        {
          "internalType": "uint8",
          "name": "support",
          "type": "uint8"
        },
        {
          "internalType": "string",
          "name": "reason",
          "type": "string"
        },
        {
          "internalType": "bytes",
          "name": "params",
          "type": "bytes"
        }
      ],
      "name": "castVoteWithReasonAndParams",
      "outputs": [
        {
          "internalType": "uint256",
          "name": "",
          "type": "uint256"
        }
      ],
      "stateMutability": "nonpayable",
      "type": "function"
    },
    {
      "inputs": [
        {
          "internalType": "uint256",
          "name": "proposalId",
          "type": "uint256"
        },
        {
          "internalType": "uint8",
          "name": "support",
          "type": "uint8"
        },
        {
          "internalType": "address",
          "name": "voter",
          "type": "address"
        },
        {
          "internalType": "string",
          "name": "reason",
          "type": "string"
        },
        {
          "internalType": "bytes",
          "name": "params",
          "type": "bytes"
        },
        {
          "internalType": "bytes",
          "name": "signature",
          "type": "bytes"
        }
      ],
      "name": "castVoteWithReasonAndParamsBySig",
      "outputs": [
        {
          "internalType": "uint256",
          "name": "",
          "type": "uint256"
        }
      ],
      "stateMutability": "nonpayable",
      "type": "function"
    },
    {
      "inputs": [
        {
          "internalType": "address",
          "name": "agreement",
          "type": "address"
        },
        {
          "internalType": "bool",
          "name": "status",
          "type": "bool"
        }
      ],
      "name": "changeAgreementStatus",
      "outputs": [],
      "stateMutability": "nonpayable",
      "type": "function"
    },
    {
      "inputs": [
        {
          "internalType": "uint256",
          "name": "newMaxAmountOfStakers",
          "type": "uint256"
        }
      ],
      "name": "changeMaxAmountOfStakers",
      "outputs": [],
      "stateMutability": "nonpayable",
      "type": "function"
    },
    {
      "inputs": [
        {
          "internalType": "uint256",
          "name": "newMaxPoolUsage",
          "type": "uint256"
        }
      ],
      "name": "changeMaxPoolUsage",
      "outputs": [],
      "stateMutability": "nonpayable",
      "type": "function"
    },
    {
      "inputs": [
        {
          "internalType": "uint256",
          "name": "newCoolDown",
          "type": "uint256"
        }
      ],
      "name": "changeVotingPowerCoolDown",
      "outputs": [],
      "stateMutability": "nonpayable",
      "type": "function"
    },
    {
      "inputs": [
        {
          "internalType": "uint256",
          "name": "newQuorum",
          "type": "uint256"
        }
      ],
      "name": "changeVotingQuorum",
      "outputs": [],
      "stateMutability": "nonpayable",
      "type": "function"
    },
    {
      "inputs": [],
      "name": "clock",
      "outputs": [
        {
          "internalType": "uint48",
          "name": "",
          "type": "uint48"
        }
      ],
      "stateMutability": "view",
      "type": "function"
    },
    {
      "inputs": [],
      "name": "creditScore",
      "outputs": [
        {
          "internalType": "uint256",
          "name": "",
          "type": "uint256"
        }
      ],
      "stateMutability": "view",
      "type": "function"
    },
    {
      "inputs": [],
      "name": "eip712Domain",
      "outputs": [
        {
          "internalType": "bytes1",
          "name": "fields",
          "type": "bytes1"
        },
        {
          "internalType": "string",
          "name": "name",
          "type": "string"
        },
        {
          "internalType": "string",
          "name": "version",
          "type": "string"
        },
        {
          "internalType": "uint256",
          "name": "chainId",
          "type": "uint256"
        },
        {
          "internalType": "address",
          "name": "verifyingContract",
          "type": "address"
        },
        {
          "internalType": "bytes32",
          "name": "salt",
          "type": "bytes32"
        },
        {
          "internalType": "uint256[]",
          "name": "extensions",
          "type": "uint256[]"
        }
      ],
      "stateMutability": "view",
      "type": "function"
    },
    {
      "inputs": [
        {
          "internalType": "address[]",
          "name": "targets",
          "type": "address[]"
        },
        {
          "internalType": "uint256[]",
          "name": "values",
          "type": "uint256[]"
        },
        {
          "internalType": "bytes[]",
          "name": "calldatas",
          "type": "bytes[]"
        },
        {
          "internalType": "bytes32",
          "name": "descriptionHash",
          "type": "bytes32"
        }
      ],
      "name": "execute",
      "outputs": [
        {
          "internalType": "uint256",
          "name": "",
          "type": "uint256"
        }
      ],
      "stateMutability": "payable",
      "type": "function"
    },
    {
      "inputs": [
        {
          "internalType": "address",
          "name": "token",
          "type": "address"
        },
        {
          "internalType": "address",
          "name": "to",
          "type": "address"
        },
        {
          "internalType": "uint256",
          "name": "amount",
          "type": "uint256"
        },
        {
          "internalType": "address",
          "name": "agreement",
          "type": "address"
        },
        {
          "internalType": "bytes",
          "name": "agreementCalldata",
          "type": "bytes"
        }
      ],
      "name": "executeLoan",
      "outputs": [],
      "stateMutability": "nonpayable",
      "type": "function"
    },
    {
      "inputs": [
        {
          "internalType": "address",
          "name": "account",
          "type": "address"
        }
      ],
      "name": "getValidVotes",
      "outputs": [
        {
          "internalType": "uint256",
          "name": "",
          "type": "uint256"
        }
      ],
      "stateMutability": "view",
      "type": "function"
    },
    {
      "inputs": [
        {
          "internalType": "address",
          "name": "account",
          "type": "address"
        },
        {
          "internalType": "uint256",
          "name": "timepoint",
          "type": "uint256"
        }
      ],
      "name": "getVotes",
      "outputs": [
        {
          "internalType": "uint256",
          "name": "",
          "type": "uint256"
        }
      ],
      "stateMutability": "view",
      "type": "function"
    },
    {
      "inputs": [
        {
          "internalType": "address",
          "name": "account",
          "type": "address"
        },
        {
          "internalType": "uint256",
          "name": "timepoint",
          "type": "uint256"
        },
        {
          "internalType": "bytes",
          "name": "params",
          "type": "bytes"
        }
      ],
      "name": "getVotesWithParams",
      "outputs": [
        {
          "internalType": "uint256",
          "name": "",
          "type": "uint256"
        }
      ],
      "stateMutability": "view",
      "type": "function"
    },
    {
      "inputs": [
        {
          "internalType": "address",
          "name": "staker",
          "type": "address"
        }
      ],
      "name": "getVotingPower",
      "outputs": [
        {
          "internalType": "uint256",
          "name": "",
          "type": "uint256"
        }
      ],
      "stateMutability": "view",
      "type": "function"
    },
    {
      "inputs": [
        {
          "internalType": "uint256",
          "name": "proposalId",
          "type": "uint256"
        },
        {
          "internalType": "address",
          "name": "account",
          "type": "address"
        }
      ],
      "name": "hasVoted",
      "outputs": [
        {
          "internalType": "bool",
          "name": "",
          "type": "bool"
        }
      ],
      "stateMutability": "view",
      "type": "function"
    },
    {
      "inputs": [
        {
          "internalType": "address[]",
          "name": "targets",
          "type": "address[]"
        },
        {
          "internalType": "uint256[]",
          "name": "values",
          "type": "uint256[]"
        },
        {
          "internalType": "bytes[]",
          "name": "calldatas",
          "type": "bytes[]"
        },
        {
          "internalType": "bytes32",
          "name": "descriptionHash",
          "type": "bytes32"
        }
      ],
      "name": "hashProposal",
      "outputs": [
        {
          "internalType": "uint256",
          "name": "",
          "type": "uint256"
        }
      ],
      "stateMutability": "pure",
      "type": "function"
    },
    {
      "inputs": [
        {
          "components": [
            {
              "internalType": "string",
              "name": "name",
              "type": "string"
            },
            {
              "internalType": "uint256",
              "name": "creditScore",
              "type": "uint256"
            },
            {
              "internalType": "uint256",
              "name": "maxAmountOfStakers",
              "type": "uint256"
            },
            {
              "internalType": "uint256",
              "name": "votingQuorum",
              "type": "uint256"
            },
            {
              "internalType": "uint256",
              "name": "maxPoolUsage",
              "type": "uint256"
            },
            {
              "internalType": "uint256",
              "name": "votingPowerCoolDown",
              "type": "uint256"
            },
            {
              "internalType": "uint256",
              "name": "initAmount",
              "type": "uint256"
            },
            {
              "internalType": "address",
              "name": "initToken",
              "type": "address"
            },
            {
              "internalType": "address[]",
              "name": "supportedAssets",
              "type": "address[]"
            },
            {
              "internalType": "address[]",
              "name": "supportedAgreements",
              "type": "address[]"
            }
          ],
          "internalType": "struct IStormBitLending.InitParams",
          "name": "params",
          "type": "tuple"
        },
        {
          "internalType": "address",
          "name": "_firstOwner",
          "type": "address"
        },
        {
          "internalType": "address",
          "name": "stormBitLendingVotes",
          "type": "address"
        }
      ],
      "name": "initializeLending",
      "outputs": [],
      "stateMutability": "nonpayable",
      "type": "function"
    },
    {
      "inputs": [
        {
          "internalType": "bytes4",
          "name": "",
          "type": "bytes4"
        }
      ],
      "name": "isSupportedAction",
      "outputs": [
        {
          "internalType": "bool",
          "name": "",
          "type": "bool"
        }
      ],
      "stateMutability": "view",
      "type": "function"
    },
    {
      "inputs": [
        {
          "internalType": "address",
          "name": "",
          "type": "address"
        }
      ],
      "name": "isSupportedAgreement",
      "outputs": [
        {
          "internalType": "bool",
          "name": "",
          "type": "bool"
        }
      ],
      "stateMutability": "view",
      "type": "function"
    },
    {
      "inputs": [
        {
          "internalType": "address",
          "name": "",
          "type": "address"
        }
      ],
      "name": "isSupportedAsset",
      "outputs": [
        {
          "internalType": "bool",
          "name": "",
          "type": "bool"
        }
      ],
      "stateMutability": "view",
      "type": "function"
    },
    {
      "inputs": [],
      "name": "lendingVotes",
      "outputs": [
        {
          "internalType": "address",
          "name": "",
          "type": "address"
        }
      ],
      "stateMutability": "view",
      "type": "function"
    },
    {
      "inputs": [],
      "name": "maxAmountOfStakers",
      "outputs": [
        {
          "internalType": "uint256",
          "name": "",
          "type": "uint256"
        }
      ],
      "stateMutability": "view",
      "type": "function"
    },
    {
      "inputs": [],
      "name": "maxPoolUsage",
      "outputs": [
        {
          "internalType": "uint256",
          "name": "",
          "type": "uint256"
        }
      ],
      "stateMutability": "view",
      "type": "function"
    },
    {
      "inputs": [],
      "name": "name",
      "outputs": [
        {
          "internalType": "string",
          "name": "",
          "type": "string"
        }
      ],
      "stateMutability": "view",
      "type": "function"
    },
    {
      "inputs": [
        {
          "internalType": "address",
          "name": "owner",
          "type": "address"
        }
      ],
      "name": "nonces",
      "outputs": [
        {
          "internalType": "uint256",
          "name": "",
          "type": "uint256"
        }
      ],
      "stateMutability": "view",
      "type": "function"
    },
    {
      "inputs": [
        {
          "internalType": "address",
          "name": "",
          "type": "address"
        },
        {
          "internalType": "address",
          "name": "",
          "type": "address"
        },
        {
          "internalType": "uint256[]",
          "name": "",
          "type": "uint256[]"
        },
        {
          "internalType": "uint256[]",
          "name": "",
          "type": "uint256[]"
        },
        {
          "internalType": "bytes",
          "name": "",
          "type": "bytes"
        }
      ],
      "name": "onERC1155BatchReceived",
      "outputs": [
        {
          "internalType": "bytes4",
          "name": "",
          "type": "bytes4"
        }
      ],
      "stateMutability": "nonpayable",
      "type": "function"
    },
    {
      "inputs": [
        {
          "internalType": "address",
          "name": "",
          "type": "address"
        },
        {
          "internalType": "address",
          "name": "",
          "type": "address"
        },
        {
          "internalType": "uint256",
          "name": "",
          "type": "uint256"
        },
        {
          "internalType": "uint256",
          "name": "",
          "type": "uint256"
        },
        {
          "internalType": "bytes",
          "name": "",
          "type": "bytes"
        }
      ],
      "name": "onERC1155Received",
      "outputs": [
        {
          "internalType": "bytes4",
          "name": "",
          "type": "bytes4"
        }
      ],
      "stateMutability": "nonpayable",
      "type": "function"
    },
    {
      "inputs": [
        {
          "internalType": "address",
          "name": "",
          "type": "address"
        },
        {
          "internalType": "address",
          "name": "",
          "type": "address"
        },
        {
          "internalType": "uint256",
          "name": "",
          "type": "uint256"
        },
        {
          "internalType": "bytes",
          "name": "",
          "type": "bytes"
        }
      ],
      "name": "onERC721Received",
      "outputs": [
        {
          "internalType": "bytes4",
          "name": "",
          "type": "bytes4"
        }
      ],
      "stateMutability": "nonpayable",
      "type": "function"
    },
    {
      "inputs": [],
      "name": "owner",
      "outputs": [
        {
          "internalType": "address",
          "name": "",
          "type": "address"
        }
      ],
      "stateMutability": "view",
      "type": "function"
    },
    {
      "inputs": [],
      "name": "poolName",
      "outputs": [
        {
          "internalType": "string",
          "name": "",
          "type": "string"
        }
      ],
      "stateMutability": "view",
      "type": "function"
    },
    {
      "inputs": [
        {
          "internalType": "uint256",
          "name": "proposalId",
          "type": "uint256"
        }
      ],
      "name": "proposalDeadline",
      "outputs": [
        {
          "internalType": "uint256",
          "name": "",
          "type": "uint256"
        }
      ],
      "stateMutability": "view",
      "type": "function"
    },
    {
      "inputs": [
        {
          "internalType": "uint256",
          "name": "proposalId",
          "type": "uint256"
        }
      ],
      "name": "proposalEta",
      "outputs": [
        {
          "internalType": "uint256",
          "name": "",
          "type": "uint256"
        }
      ],
      "stateMutability": "view",
      "type": "function"
    },
    {
      "inputs": [
        {
          "internalType": "uint256",
          "name": "",
          "type": "uint256"
        }
      ],
      "name": "proposalNeedsQueuing",
      "outputs": [
        {
          "internalType": "bool",
          "name": "",
          "type": "bool"
        }
      ],
      "stateMutability": "view",
      "type": "function"
    },
    {
      "inputs": [
        {
          "internalType": "uint256",
          "name": "proposalId",
          "type": "uint256"
        }
      ],
      "name": "proposalProposer",
      "outputs": [
        {
          "internalType": "address",
          "name": "",
          "type": "address"
        }
      ],
      "stateMutability": "view",
      "type": "function"
    },
    {
      "inputs": [
        {
          "internalType": "uint256",
          "name": "proposalId",
          "type": "uint256"
        }
      ],
      "name": "proposalSnapshot",
      "outputs": [
        {
          "internalType": "uint256",
          "name": "",
          "type": "uint256"
        }
      ],
      "stateMutability": "view",
      "type": "function"
    },
    {
      "inputs": [],
      "name": "proposalThreshold",
      "outputs": [
        {
          "internalType": "uint256",
          "name": "",
          "type": "uint256"
        }
      ],
      "stateMutability": "view",
      "type": "function"
    },
    {
      "inputs": [
        {
          "internalType": "uint256",
          "name": "proposalId",
          "type": "uint256"
        }
      ],
      "name": "proposalVotes",
      "outputs": [
        {
          "internalType": "uint256",
          "name": "againstVotes",
          "type": "uint256"
        },
        {
          "internalType": "uint256",
          "name": "forVotes",
          "type": "uint256"
        },
        {
          "internalType": "uint256",
          "name": "abstainVotes",
          "type": "uint256"
        }
      ],
      "stateMutability": "view",
      "type": "function"
    },
    {
      "inputs": [
        {
          "internalType": "address[]",
          "name": "targets",
          "type": "address[]"
        },
        {
          "internalType": "uint256[]",
          "name": "values",
          "type": "uint256[]"
        },
        {
          "internalType": "bytes[]",
          "name": "calldatas",
          "type": "bytes[]"
        },
        {
          "internalType": "string",
          "name": "description",
          "type": "string"
        }
      ],
      "name": "propose",
      "outputs": [
        {
          "internalType": "uint256",
          "name": "",
          "type": "uint256"
        }
      ],
      "stateMutability": "nonpayable",
      "type": "function"
    },
    {
      "inputs": [
        {
          "internalType": "address[]",
          "name": "targets",
          "type": "address[]"
        },
        {
          "internalType": "uint256[]",
          "name": "values",
          "type": "uint256[]"
        },
        {
          "internalType": "bytes[]",
          "name": "calldatas",
          "type": "bytes[]"
        },
        {
          "internalType": "bytes32",
          "name": "descriptionHash",
          "type": "bytes32"
        }
      ],
      "name": "queue",
      "outputs": [
        {
          "internalType": "uint256",
          "name": "",
          "type": "uint256"
        }
      ],
      "stateMutability": "nonpayable",
      "type": "function"
    },
    {
      "inputs": [
        {
          "internalType": "uint256",
          "name": "timepoint",
          "type": "uint256"
        }
      ],
      "name": "quorum",
      "outputs": [
        {
          "internalType": "uint256",
          "name": "",
          "type": "uint256"
        }
      ],
      "stateMutability": "view",
      "type": "function"
    },
    {
      "inputs": [],
      "name": "quorumDenominator",
      "outputs": [
        {
          "internalType": "uint256",
          "name": "",
          "type": "uint256"
        }
      ],
      "stateMutability": "view",
      "type": "function"
    },
    {
      "inputs": [
        {
          "internalType": "uint256",
          "name": "timepoint",
          "type": "uint256"
        }
      ],
      "name": "quorumNumerator",
      "outputs": [
        {
          "internalType": "uint256",
          "name": "",
          "type": "uint256"
        }
      ],
      "stateMutability": "view",
      "type": "function"
    },
    {
      "inputs": [],
      "name": "quorumNumerator",
      "outputs": [
        {
          "internalType": "uint256",
          "name": "",
          "type": "uint256"
        }
      ],
      "stateMutability": "view",
      "type": "function"
    },
    {
      "inputs": [
        {
          "internalType": "address",
          "name": "target",
          "type": "address"
        },
        {
          "internalType": "uint256",
          "name": "value",
          "type": "uint256"
        },
        {
          "internalType": "bytes",
          "name": "data",
          "type": "bytes"
        }
      ],
      "name": "relay",
      "outputs": [],
      "stateMutability": "payable",
      "type": "function"
    },
    {
      "inputs": [],
      "name": "renounceOwnership",
      "outputs": [],
      "stateMutability": "nonpayable",
      "type": "function"
    },
    {
      "inputs": [
        {
          "components": [
            {
              "internalType": "uint256",
              "name": "amount",
              "type": "uint256"
            },
            {
              "internalType": "address",
              "name": "token",
              "type": "address"
            },
            {
              "internalType": "address",
              "name": "agreement",
              "type": "address"
            },
            {
              "internalType": "bytes",
              "name": "agreementCalldata",
              "type": "bytes"
            }
          ],
          "internalType": "struct IStormBitLending.LoanRequestParams",
          "name": "params",
          "type": "tuple"
        }
      ],
      "name": "requestLoan",
      "outputs": [
        {
          "internalType": "uint256",
          "name": "proposalId",
          "type": "uint256"
        }
      ],
      "stateMutability": "nonpayable",
      "type": "function"
    },
    {
      "inputs": [
        {
          "internalType": "address",
          "name": "token",
          "type": "address"
        },
        {
          "internalType": "uint256",
          "name": "amount",
          "type": "uint256"
        }
      ],
      "name": "stake",
      "outputs": [],
      "stateMutability": "nonpayable",
      "type": "function"
    },
    {
      "inputs": [
        {
          "internalType": "uint256",
          "name": "proposalId",
          "type": "uint256"
        }
      ],
      "name": "state",
      "outputs": [
        {
          "internalType": "enum IGovernor.ProposalState",
          "name": "",
          "type": "uint8"
        }
      ],
      "stateMutability": "view",
      "type": "function"
    },
    {
      "inputs": [
        {
          "internalType": "bytes4",
          "name": "interfaceId",
          "type": "bytes4"
        }
      ],
      "name": "supportsInterface",
      "outputs": [
        {
          "internalType": "bool",
          "name": "",
          "type": "bool"
        }
      ],
      "stateMutability": "view",
      "type": "function"
    },
    {
      "inputs": [],
      "name": "token",
      "outputs": [
        {
          "internalType": "contract IERC5805",
          "name": "",
          "type": "address"
        }
      ],
      "stateMutability": "view",
      "type": "function"
    },
    {
      "inputs": [
        {
          "internalType": "address",
          "name": "newOwner",
          "type": "address"
        }
      ],
      "name": "transferOwnership",
      "outputs": [],
      "stateMutability": "nonpayable",
      "type": "function"
    },
    {
      "inputs": [
        {
          "internalType": "uint256",
          "name": "newQuorumNumerator",
          "type": "uint256"
        }
      ],
      "name": "updateQuorumNumerator",
      "outputs": [],
      "stateMutability": "nonpayable",
      "type": "function"
    },
    {
      "inputs": [
        {
          "internalType": "address",
          "name": "",
          "type": "address"
        }
      ],
      "name": "userAgreement",
      "outputs": [
        {
          "internalType": "address",
          "name": "",
          "type": "address"
        }
      ],
      "stateMutability": "view",
      "type": "function"
    },
    {
      "inputs": [],
      "name": "version",
      "outputs": [
        {
          "internalType": "string",
          "name": "",
          "type": "string"
        }
      ],
      "stateMutability": "view",
      "type": "function"
    },
    {
      "inputs": [],
      "name": "votingDelay",
      "outputs": [
        {
          "internalType": "uint256",
          "name": "",
          "type": "uint256"
        }
      ],
      "stateMutability": "pure",
      "type": "function"
    },
    {
      "inputs": [],
      "name": "votingPeriod",
      "outputs": [
        {
          "internalType": "uint256",
          "name": "",
          "type": "uint256"
        }
      ],
      "stateMutability": "pure",
      "type": "function"
    },
    {
      "inputs": [],
      "name": "votingPowerCoolDown",
      "outputs": [
        {
          "internalType": "uint256",
          "name": "",
          "type": "uint256"
        }
      ],
      "stateMutability": "view",
      "type": "function"
    },
    {
      "inputs": [],
      "name": "votingQuorum",
      "outputs": [
        {
          "internalType": "uint256",
          "name": "",
          "type": "uint256"
        }
      ],
      "stateMutability": "view",
      "type": "function"
    },
    {
      "stateMutability": "payable",
      "type": "receive"
    }
  ],
  "transactionHash": "0x5744c962c7bd41e43dd809b303c0f95595039fc8738f3a6abf505535e4b4d694",
  "args": [],
  "numDeployments": 1,
  "solcInputHash": "2c754828d6c208ba61e7eb6df405a435",
  "bytecode": "0x60806040523480156200001157600080fd5b5060016000556200002162000027565b620000db565b7ff0c57e16840df040f15088dc2f81fe391c3923bec73e23a9662efc9c229c6a00805468010000000000000000900460ff1615620000785760405163f92ee8a960e01b815260040160405180910390fd5b80546001600160401b0390811614620000d85780546001600160401b0319166001600160401b0390811782556040519081527fc7f505b2f371ae2175ee4913f4499e1f2633a7b5936321eed1cdaeb6115181d29060200160405180910390a15b50565b61504e80620000eb6000396000f3fe6080604052600436106103035760003560e01c806301ffc9a71461031157806302a251a31461034657806302e8838d1461036557806306f3f9e61461037b57806306fdde031461039b578063143489d0146103bd578063150b7a02146103ea578063160cbed71461042e5780632656227d1461044e5780632d63f693146104615780632fe3e26114610481578063366ea364146104a3578063372f2af5146104c35780633932abb1146104e357806339da3152146104f75780633e4f49e61461050d5780633f50f7391461053a578063438596321461055a578063452115d61461057a5780634958f4361461059a5780634bf5d7e9146105ba578063544ffc9c1461060057806354fd4d501461062f57806356781388146106445780635a35f834146106645780635b03b3961461067a5780635b8d0e0d146106b05780635f398a14146106d057806360c4247f146106f0578063667128e614610710578063715018a6146107305780637b3c71d3146107455780637d5e81e2146107655780637ecebe001461078557806384b0196e146107a557806387214e26146107cd578063880db632146107ed5780638da5cb5b146108035780638ff262e31461081857806391ddadf41461083857806397c3d334146108645780639a802a6d146108785780639be918e614610898578063a4c66b4d146108c8578063a7713a70146108f8578063a9a952941461090d578063ab58fb8e1461092e578063adc9772e1461094e578063b3334f051461096e578063b58131b0146104e3578063b85893bd1461099e578063bb4d4436146109be578063bc197c81146109de578063c01f9e3714610a0a578063c28bc2fa14610a2a578063c36d9cb814610a3d578063c59057e414610a5d578063c5beb37014610a7d578063d45cc62714610a9d578063dd4e2ba514610abd578063deaaa7cc14610b03578063e58dc31e14610b25578063eb9019d414610b3b578063f23a6e6114610b5b578063f2fde38b14610b87578063f3466dfa14610ba7578063f8ce560a14610bbc578063fc0c546a14610bdc57600080fd5b3661030c57005b005b600080fd5b34801561031d57600080fd5b5061033161032c366004613c2e565b610bf1565b60405190151581526020015b60405180910390f35b34801561035257600080fd5b5061012c5b60405190815260200161033d565b34801561037157600080fd5b5061035760065481565b34801561038757600080fd5b5061030a610396366004613c58565b610c43565b3480156103a757600080fd5b506103b0610c57565b60405161033d9190613cc1565b3480156103c957600080fd5b506103dd6103d8366004613c58565b610ce9565b60405161033d9190613cd4565b3480156103f657600080fd5b50610415610405366004613ddd565b630a85bd0160e11b949350505050565b6040516001600160e01b0319909116815260200161033d565b34801561043a57600080fd5b50610357610449366004613fa8565b610d12565b61035761045c366004613fa8565b610d69565b34801561046d57600080fd5b5061035761047c366004613c58565b610d80565b34801561048d57600080fd5b50610357600080516020614ff983398151915281565b3480156104af57600080fd5b5061030a6104be366004614037565b610daf565b3480156104cf57600080fd5b5061030a6104de3660046141a8565b6111e7565b3480156104ef57600080fd5b506000610357565b34801561050357600080fd5b5061035760035481565b34801561051957600080fd5b5061052d610528366004613c58565b611382565b60405161033d919061425e565b34801561054657600080fd5b506008546103dd906001600160a01b031681565b34801561056657600080fd5b5061033161057536600461426c565b6114b5565b34801561058657600080fd5b50610357610595366004613fa8565b6114ef565b3480156105a657600080fd5b5061030a6105b5366004613c58565b611561565b3480156105c657600080fd5b506040805180820190915260208082527f6d6f64653d626c6f636b74696d657374616d702666726f6d3d64656661756c74908201526103b0565b34801561060c57600080fd5b5061062061061b366004613c58565b611585565b60405161033d93929190614298565b34801561063b57600080fd5b506103b06115b8565b34801561065057600080fd5b5061035761065f3660046142bf565b6115d3565b34801561067057600080fd5b5061035760055481565b34801561068657600080fd5b506103dd6106953660046142e2565b600c602052600090815260409020546001600160a01b031681565b3480156106bc57600080fd5b506103576106cb3660046142fd565b6115fc565b3480156106dc57600080fd5b506103576106eb3660046143b5565b611722565b3480156106fc57600080fd5b5061035761070b366004613c58565b611777565b34801561071c57600080fd5b5061035761072b3660046142e2565b611810565b34801561073c57600080fd5b5061030a6118a5565b34801561075157600080fd5b50610357610760366004614438565b6118b9565b34801561077157600080fd5b50610357610780366004614491565b611901565b34801561079157600080fd5b506103576107a03660046142e2565b611971565b3480156107b157600080fd5b506107ba61199c565b60405161033d979695949392919061456c565b3480156107d957600080fd5b5061030a6107e83660046145ea565b611a45565b3480156107f957600080fd5b5061035760075481565b34801561080f57600080fd5b506103dd611a90565b34801561082457600080fd5b50610357610833366004614621565b611aab565b34801561084457600080fd5b5061084d611b44565b60405165ffffffffffff909116815260200161033d565b34801561087057600080fd5b506064610357565b34801561088457600080fd5b50610357610893366004614670565b611b54565b3480156108a457600080fd5b506103316108b33660046142e2565b60096020526000908152604090205460ff1681565b3480156108d457600080fd5b506103316108e33660046142e2565b600b6020526000908152604090205460ff1681565b34801561090457600080fd5b50610357611b6b565b34801561091957600080fd5b50610331610928366004613c58565b50600090565b34801561093a57600080fd5b50610357610949366004613c58565b611b90565b34801561095a57600080fd5b5061030a6109693660046146c6565b611bbf565b34801561097a57600080fd5b50610331610989366004613c2e565b600a6020526000908152604090205460ff1681565b3480156109aa57600080fd5b5061030a6109b9366004613c58565b611c79565b3480156109ca57600080fd5b506103576109d93660046142e2565b611c9d565b3480156109ea57600080fd5b506104156109f93660046146f0565b63bc197c8160e01b95945050505050565b348015610a1657600080fd5b50610357610a25366004613c58565b611d48565b61030a610a3836600461477f565b611d9c565b348015610a4957600080fd5b50610357610a583660046147c0565b611e1c565b348015610a6957600080fd5b50610357610a78366004613fa8565b612059565b348015610a8957600080fd5b5061030a610a98366004613c58565b612093565b348015610aa957600080fd5b5061030a610ab8366004613c58565b6120b7565b348015610ac957600080fd5b506040805180820190915260208082527f737570706f72743d627261766f2671756f72756d3d666f722c6162737461696e908201526103b0565b348015610b0f57600080fd5b50610357600080516020614fd983398151915281565b348015610b3157600080fd5b5061035760045481565b348015610b4757600080fd5b50610357610b563660046146c6565b6120db565b348015610b6757600080fd5b50610415610b7636600461486e565b63f23a6e6160e01b95945050505050565b348015610b9357600080fd5b5061030a610ba23660046142e2565b6120fc565b348015610bb357600080fd5b506103b0612137565b348015610bc857600080fd5b50610357610bd7366004613c58565b6121c5565b348015610be857600080fd5b506103dd61225c565b60006001600160e01b031982166332a2ad4360e11b1480610c2257506001600160e01b03198216630271189760e51b145b80610c3d57506301ffc9a760e01b6001600160e01b03198316145b92915050565b610c4b612267565b610c54816122ab565b50565b606060028054610c66906148d2565b80601f0160208091040260200160405190810160405280929190818152602001828054610c92906148d2565b8015610cdf5780601f10610cb457610100808354040283529160200191610cdf565b820191906000526020600020905b815481529060010190602001808311610cc257829003601f168201915b5050505050905090565b600080610cf461234d565b6000938452600101602052505060409020546001600160a01b031690565b600080610d1d61234d565b90506000610d2d87878787612059565b9050610d4281610d3d6004612371565b612394565b506000604051634844252360e11b815260040160405180910390fd5b509695505050505050565b6000610d77858585856123d3565b95945050505050565b600080610d8b61234d565b600093845260010160205250506040902054600160a01b900465ffffffffffff1690565b6000610db9612517565b805490915060ff600160401b82041615906001600160401b0316600081158015610de05750825b90506000826001600160401b03166001148015610dfc5750303b155b905081158015610e0a575080155b15610e285760405163f92ee8a960e01b815260040160405180910390fd5b84546001600160401b03191660011785558315610e5157845460ff60401b1916600160401b1785555b8751600290610e609082614952565b5060018054336001600160a01b031991821617909155602089015160035560408901516004556060890151600555608089015160065560a0890151600755600880549091166001600160a01b038816179055610ebb8761253b565b610f4e60028054610ecb906148d2565b80601f0160208091040260200160405190810160405280929190818152602001828054610ef7906148d2565b8015610f445780601f10610f1957610100808354040283529160200191610f44565b820191906000526020600020905b815481529060010190602001808311610f2757829003601f168201915b505050505061254c565b610f578661256e565b610f6260055461257f565b60e088015160c08901516101008a0151600a6020527f22e2b88848b372b49c5cfdfb941b5f27ff2542f225cb7c71c833f1ce3d4b14908054600160ff1991821681179092557f6ad102501bdaabef8d7a830d40fd57e93633cf29f96c3c465475130e56af7adf80548216831790557f552156ab34f01a24f9425adb831eb73085d9abeea685d28643be07072eb18faa805482168317905563d45cc62760e01b60009081527fb957e724d2c96a3572995926f891d6d45c5f01d71366478f5524a81c55c0f51a805490921690921790555b81518110156110975760016009600084848151811061105357611053614a11565b6020908102919091018101516001600160a01b03168252810191909152604001600020805460ff19169115159190911790558061108f81614a3d565b915050611032565b506001600160a01b03831660009081526009602052604090205460ff166111175760405162461bcd60e51b815260206004820152602960248201527f53746f726d4269744c656e64696e673a20696e697420746f6b656e206e6f74206044820152681cdd5c1c1bdc9d195960ba1b60648201526084015b60405180910390fd5b60005b8b610120015151811015611189576001600b60008e6101200151848151811061114557611145614a11565b6020908102919091018101516001600160a01b03168252810191909152604001600020805460ff19169115159190911790558061118181614a3d565b91505061111a565b50611194828b612590565b50505083156111dd57845460ff60401b19168555604051600181527fc7f505b2f371ae2175ee4913f4499e1f2633a7b5936321eed1cdaeb6115181d29060200160405180910390a15b5050505050505050565b3330146112065760405162461bcd60e51b815260040161110e90614a56565b6001600160a01b038581166000908152600c6020526040902054161561126e5760405162461bcd60e51b815260206004820152601e60248201527f53746f726d4269744c656e64696e673a207573657220686173206c6f616e0000604482015260640161110e565b600061127984612656565b60405163439fab9160e01b81529091506001600160a01b0382169063439fab91906112aa9086908690600401614a89565b600060405180830381600087803b1580156112c457600080fd5b505af11580156112d8573d6000803e3d6000fd5b505060405163a9059cbb60e01b81526001600160a01b038a16925063a9059cbb915061130a9084908990600401614ab8565b6020604051808303816000875af1158015611329573d6000803e3d6000fd5b505050506040513d601f19601f8201168201806040525081019061134d9190614ad1565b506001600160a01b039586166000908152600c6020526040902080546001600160a01b03191691909616179094555050505050565b60008061138d61234d565b6000848152600182016020526040902080549192509060ff600160f01b8204811691600160f81b90041681156113c95750600795945050505050565b80156113db5750600295945050505050565b60006113e687610d80565b90508060000361140c57604051636ad0607560e01b81526004810188905260240161110e565b6000611416611b44565b65ffffffffffff16905080821061143557506000979650505050505050565b600061144089611d48565b90508181106114585750600198975050505050505050565b611461896126c8565b1580611473575061147189612710565b155b156114875750600398975050505050505050565b61149089611b90565b6000036114a65750600498975050505050505050565b50600598975050505050505050565b6000806114c0612735565b6000858152602091825260408082206001600160a01b0387168352600301909252205460ff1691505092915050565b6000806114fe86868686612059565b905061150e81610d3d6000612371565b5061151881610ce9565b6001600160a01b0316336001600160a01b03161461154b573360405163233d98e360e01b815260040161110e9190613cd4565b61155786868686612759565b9695505050505050565b3330146115805760405162461bcd60e51b815260040161110e90614a56565b600555565b600080600080611593612735565b6000958652602052505060409092208054600182015460029092015490949193509150565b6040805180820190915260018152603160f81b602082015290565b6000803390506115f484828560405180602001604052806000815250612818565b949350505050565b6000806116af876116a9600080516020614ff98339815191528c8c8c6116218e61283b565b8d8d604051611631929190614aee565b60405180910390208c8051906020012060405160200161168e9796959493929190968752602087019590955260ff9390931660408601526001600160a01b03919091166060850152608084015260a083015260c082015260e00190565b6040516020818303038152906040528051906020012061286e565b8561289b565b9050806116d157866040516394ab6c0760e01b815260040161110e9190613cd4565b61171589888a89898080601f0160208091040260200160405190810160405280939291908181526020018383808284376000920191909152508b92506128f3915050565b9998505050505050505050565b60008033905061176c87828888888080601f0160208091040260200160405190810160405280939291908181526020018383808284376000920191909152508a92506128f3915050565b979650505050505050565b6000806117826129d0565b8054909150600082611795600184614afe565b815481106117a5576117a5614a11565b6000918252602090912001805490915065ffffffffffff811690600160301b90046001600160d01b03168682116117e9576001600160d01b03169695505050505050565b6117fc6117f5886129f4565b8690612a26565b6001600160d01b0316979650505050505050565b6000600754421161182357506000919050565b6008546007546001600160a01b0390911690633a46b1a89084906118479042614afe565b6040518363ffffffff1660e01b8152600401611864929190614ab8565b602060405180830381865afa158015611881573d6000803e3d6000fd5b505050506040513d601f19601f82011682018060405250810190610c3d9190614b11565b6118ad612adb565b6118b76000612b0d565b565b60008033905061155786828787878080601f01602080910402602001604051908101604052809392919081815260200183838082843760009201919091525061281892505050565b60003361190e8184612b69565b61192d578060405163d9b3955760e01b815260040161110e9190613cd4565b600061195482600161193d611b44565b6119479190614b2a565b65ffffffffffff166120db565b905060006119658888888887612c5a565b98975050505050505050565b60008061197c612e61565b6001600160a01b0390931660009081526020939093525050604090205490565b60006060806000806000606060006119b2612e85565b80549091501580156119c657506001810154155b611a0a5760405162461bcd60e51b81526020600482015260156024820152741152540dcc4c8e88155b9a5b9a5d1a585b1a5e9959605a1b604482015260640161110e565b611a12612ea9565b611a1a612f4a565b60408051600080825260208201909252600f60f81b9c939b5091995046985030975095509350915050565b333014611a645760405162461bcd60e51b815260040161110e90614a56565b6001600160a01b0382166000908152600b60205260409020805460ff19168215151790555050565b5050565b600080611a9b612f67565b546001600160a01b031692915050565b600080611b07846116a9600080516020614fd9833981519152898989611ad08b61283b565b60408051602081019690965285019390935260ff90911660608401526001600160a01b0316608083015260a082015260c00161168e565b905080611b2957836040516394ab6c0760e01b815260040161110e9190613cd4565b61155786858760405180602001604052806000815250612818565b6000611b4f426129f4565b905090565b6000611b61848484612f8b565b90505b9392505050565b600080611b766129d0565b9050611b8181612fc6565b6001600160d01b031691505090565b600080611b9b61234d565b6000938452600190810160205260409093209092015465ffffffffffff1692915050565b6001600160a01b03821660009081526009602052604090205460ff16611bf75760405162461bcd60e51b815260040161110e90614b50565b6040516323b872dd60e01b8152336004820152306024820152604481018290526001600160a01b038316906323b872dd906064016020604051808303816000875af1158015611c4a573d6000803e3d6000fd5b505050506040513d601f19601f82011682018060405250810190611c6e9190614ad1565b50611a8c8133612590565b333014611c985760405162461bcd60e51b815260040161110e90614a56565b600655565b60085460075460009182916001600160a01b0390911690638e539e8c90611cc49042614afe565b6040518263ffffffff1660e01b8152600401611ce291815260200190565b602060405180830381865afa158015611cff573d6000803e3d6000fd5b505050506040513d601f19601f82011682018060405250810190611d239190614b11565b90506000611d3084611810565b905081611d3e826064614b94565b6115f49190614bc1565b600080611d5361234d565b6000848152600182016020526040902054909150611d8d90600160d01b810463ffffffff1690600160a01b900465ffffffffffff16614be3565b65ffffffffffff169392505050565b611da4612267565b600080856001600160a01b0316858585604051611dc2929190614aee565b60006040518083038185875af1925050503d8060008114611dff576040519150601f19603f3d011682016040523d82523d6000602084013e611e04565b606091505b5091509150611e138282612fff565b50505050505050565b6040808201516001600160a01b03166000908152600b6020529081205460ff16611e995760405162461bcd60e51b815260206004820152602860248201527f53746f726d4269744c656e64696e673a2061677265656d656e74206e6f7420736044820152671d5c1c1bdc9d195960c21b606482015260840161110e565b6020808301516001600160a01b031660009081526009909152604090205460ff16611ed65760405162461bcd60e51b815260040161110e90614b50565b60408051600180825281830190925260009160208083019080368337505060408051600180825281830190925292935060009291506020808301908036833750506040805160018082528183019092529293506000929150602082015b6060815260200190600190039081611f3357905050905060006040518060400160405280600c81526020016b131bd85b8814995c5d595cdd60a21b81525090503084600081518110611f8757611f87614a11565b60200260200101906001600160a01b031690816001600160a01b031681525050600083600081518110611fbc57611fbc614a11565b60200260200101818152505063372f2af560e01b866020015133886000015189604001518a60600151604051602401611ff9959493929190614c02565b604051602081830303815290604052906001600160e01b0319166020820180516001600160e01b0383818316178352505050508260008151811061203f5761203f614a11565b6020026020010181905250600061176c8585858533612c5a565b6000848484846040516020016120729493929190614ccb565b60408051601f19818403018152919052805160209091012095945050505050565b3330146120b25760405162461bcd60e51b815260040161110e90614a56565b600755565b3330146120d65760405162461bcd60e51b815260040161110e90614a56565b600455565b6000611b6483836120f760408051602081019091526000815290565b612f8b565b612104612adb565b6001600160a01b03811661212e576000604051631e4fbdf760e01b815260040161110e9190613cd4565b610c5481612b0d565b60028054612144906148d2565b80601f0160208091040260200160405190810160405280929190818152602001828054612170906148d2565b80156121bd5780601f10612192576101008083540402835291602001916121bd565b820191906000526020600020905b8154815290600101906020018083116121a057829003601f168201915b505050505081565b600060646121d283611777565b6121da61225c565b6001600160a01b0316638e539e8c856040518263ffffffff1660e01b815260040161220791815260200190565b602060405180830381865afa158015612224573d6000803e3d6000fd5b505050506040513d601f19601f820116820180604052508101906122489190614b11565b6122529190614b94565b610c3d9190614bc1565b600080611a9b61301b565b600061227161234d565b9050303314610c5457336040516347096e4760e01b815260040161110e9190613cd4565b806122a28360020161303f565b03612295575050565b60006122b56129d0565b90506064808311156122e45760405163243e544560e01b8152600481018490526024810182905260440161110e565b60006122ee611b6b565b905061230c6122fb611b44565b612304866130b4565b8591906130e3565b505060408051828152602081018690527f0553476bf02ef2726e8ce5ced78d63e26e602e4a2257b1f559418e24b4633997910160405180910390a150505050565b7f7c712897014dbe49c045ef1299aa2d5f9e67e48eea4403efa21f1e0f3ac0cb0090565b600081600781111561238557612385614226565b600160ff919091161b92915050565b6000806123a084611382565b90506000836123ae83612371565b1603611b64578381846040516331b75e4d60e01b815260040161110e93929190614d16565b6000806123de61234d565b905060006123ee87878787612059565b905061240e816123fe6005612371565b6124086004612371565b17612394565b5060008181526001830160205260409020805460ff60f01b1916600160f01b179055306124383090565b6001600160a01b0316146124cc5760005b87518110156124ca57306001600160a01b031688828151811061246e5761246e614a11565b60200260200101516001600160a01b0316036124ba576124ba86828151811061249957612499614a11565b602002602001015180519060200120846002016130fe90919063ffffffff16565b6124c381614a3d565b9050612449565b505b6124d9818888888861316f565b6040518181527f712ae1383f79ac853f8d882153778e0260ef8f03b504e2866e0593e04d2b291f906020015b60405180910390a19695505050505050565b7ff0c57e16840df040f15088dc2f81fe391c3923bec73e23a9662efc9c229c6a0090565b61254361324f565b610c5481613274565b61255461324f565b612565816125606115b8565b61327c565b610c54816132bd565b61257661324f565b610c54816132e1565b61258761324f565b610c5481613315565b6008546040516340c10f1960e01b815283916001600160a01b0316906340c10f19906125c29085908590600401614ab8565b600060405180830381600087803b1580156125dc57600080fd5b505af11580156125f0573d6000803e3d6000fd5b505060085460405163455b2b4360e11b81526001600160a01b038681166004830181905260248301529091169250638ab656869150604401600060405180830381600087803b15801561264257600080fd5b505af1158015611e13573d6000803e3d6000fd5b6000763d602d80600a3d3981f3363d3d373d3d3d363d730000008260601b60e81c176000526e5af43d82803e903d91602b57fd5bf38260781b17602052603760096000f090506001600160a01b0381166126c3576040516330be1a3d60e21b815260040160405180910390fd5b919050565b6000806126d3612735565b60008481526020829052604090206002810154600182015492935090916126fa9190614d38565b612706610bd786610d80565b1115949350505050565b60008061271b612735565b600093845260205250506040902080546001909101541190565b7fa1cefa0f43667ef127a258e673c94202a79b656e62899531c4376d87a7f3980090565b60008061276461234d565b9050600061277487878787612059565b90506127c2816127846007612371565b61278e6006612371565b6127986002612371565b60016127a5600782614d4b565b6127b0906002614e48565b6127ba9190614afe565b181818612394565b5060008181526001830160205260409081902080546001600160f81b0316600160f81b179055517f789cf55be980739dad1d0699b93b58e806b51c9d96619bfa8fe0a28abaa7b30c906125059083815260200190565b6000610d778585858561283660408051602081019091526000815290565b6128f3565b600080612846612e61565b6001600160a01b03909316600090815260209390935250506040902080546001810190915590565b6000610c3d61287b61331d565b8360405161190160f01b8152600281019290925260228201526042902090565b60008060006128aa8585613327565b50909250905060008160038111156128c4576128c4614226565b1480156128e25750856001600160a01b0316826001600160a01b0316145b806115575750611557868686613374565b600061290386610d3d6001612371565b5060006129198661291389610d80565b85612f8b565b9050612928878787848761344f565b825160000361297d57856001600160a01b03167fb8e138887d0aa13bab447e82de9d5c1777041ecd21ca36ba824ff1e6c07ddda4888784886040516129709493929190614e57565b60405180910390a2611557565b856001600160a01b03167fe2babfbac5889a709b63bb7f598b324e08bc5a4fb9ec647fb3cbc9ec07eb871288878488886040516129be959493929190614e7f565b60405180910390a29695505050505050565b7fe770710421fd2cad75ad828c61aa98f2d77d423a440b67872d0f65554148e00090565b600065ffffffffffff821115612a22576030826040516306dfcc6560e41b815260040161110e929190614eb9565b5090565b815460009081816005811115612a85576000612a418461354b565b612a4b9085614afe565b60008881526020902090915081015465ffffffffffff9081169087161015612a7557809150612a83565b612a80816001614d38565b92505b505b6000612a9387878585613633565b90508015612ace57612ab887612aaa600184614afe565b600091825260209091200190565b54600160301b90046001600160d01b031661176c565b6000979650505050505050565b33612ae4611a90565b6001600160a01b0316146118b7573360405163118cdaa760e01b815260040161110e9190613cd4565b6000612b17612f67565b80546001600160a01b038481166001600160a01b031983168117845560405193945091169182907f8be0079c531659141344cd1fd0a4f28419497f9722a3daafe3b4186f6b6457e090600090a3505050565b80516000906034811015612b81576001915050610c3d565b82810160131901516001600160a01b031981166b046e0e4dee0dee6cae47a60f60a31b14612bb457600192505050610c3d565b600080612bc2602885614afe565b90505b83811015612c3957600080612bf9888481518110612be557612be5614a11565b01602001516001600160f81b031916613695565b9150915081612c115760019650505050505050610c3d565b8060ff166004856001600160a01b0316901b179350505080612c3290614a3d565b9050612bc5565b50856001600160a01b0316816001600160a01b031614935050505092915050565b600080612c6561234d565b9050612c7a8787878780519060200120612059565b915085518751141580612c8f57508451875114155b80612c9957508651155b15612cc057865185518751604051630447b05d60e41b815260040161110e93929190614298565b6000828152600182016020526040902054600160a01b900465ffffffffffff1615612d0d5781612cef83611382565b6040516331b75e4d60e01b815261110e929190600090600401614d16565b600080612d18611b44565b65ffffffffffff16612d2a9190614d38565b9050600061012c6000858152600185016020526040902080546001600160a01b0319166001600160a01b038816178155909150612d66836129f4565b815465ffffffffffff91909116600160a01b0265ffffffffffff60a01b19909116178155612d9382613727565b815463ffffffff91909116600160d01b0263ffffffff60d01b1990911617815589517f7d84a6263ae0d98d3329bd7b46bb4e8d6f98cd35a7adb45c274c8b7fd5ebd5e090869088908d908d906001600160401b03811115612df657612df6613cff565b604051908082528060200260200182016040528015612e2957816020015b6060815260200190600190039081612e145790505b508d89612e368a82614d38565b8f604051612e4c99989796959493929190614ecc565b60405180910390a15050505095945050505050565b7f5ab42ced628888259c08ac98db1eb0cf702fc1501344311d8b100cd1bfe4bb0090565b7fa16a46d94261c7517cc8ff89f61c0ce93598e3c849801011dee649a6a557d10090565b60606000612eb5612e85565b9050806002018054612ec6906148d2565b80601f0160208091040260200160405190810160405280929190818152602001828054612ef2906148d2565b8015612f3f5780601f10612f1457610100808354040283529160200191612f3f565b820191906000526020600020905b815481529060010190602001808311612f2257829003601f168201915b505050505091505090565b60606000612f56612e85565b9050806003018054612ec6906148d2565b7f9016d09d72d40fdae2fd8ceac6b6234c7706214fd39c1cd1e609a0528c19930090565b6000600754831015612f9f57506000611b64565b611b618460075485612fb19190614afe565b60405180602001604052806000815250613753565b80546000908015612ff657612fe083612aaa600184614afe565b54600160301b90046001600160d01b0316611b64565b60009392505050565b6060826130145761300f826137cb565b610c3d565b5080610c3d565b7f3ba4977254e415696610a40ebf2258dbfa0ec6a2ff64e84bfe715ff16977cc0090565b80546000906001600160801b0380821691600160801b9004168103613077576040516375e52f4f60e01b815260040160405180910390fd5b6001600160801b038181166000908152600185810160205260408220805492905585546001600160801b0319169301909116919091179092555090565b60006001600160d01b03821115612a225760d0826040516306dfcc6560e41b815260040161110e929190614eb9565b6000806130f18585856137f4565b915091505b935093915050565b81546001600160801b03600160801b82048116918116600183019091160361313957604051638acb5f2760e01b815260040160405180910390fd5b6001600160801b03808216600090815260018086016020526040909120939093558354919092018216600160801b029116179055565b60005b84518110156132475760008086838151811061319057613190614a11565b60200260200101516001600160a01b03168684815181106131b3576131b3614a11565b60200260200101518685815181106131cd576131cd614a11565b60200260200101516040516131e29190614fa3565b60006040518083038185875af1925050503d806000811461321f576040519150601f19603f3d011682016040523d82523d6000602084013e613224565b606091505b50915091506132338282612fff565b5050508061324090614a3d565b9050613172565b505050505050565b61325761396e565b6118b757604051631afcd79f60e31b815260040160405180910390fd5b61210461324f565b61328461324f565b600061328e612e85565b90506002810161329e8482614952565b50600381016132ad8382614952565b5060008082556001909101555050565b6132c561324f565b60006132cf61234d565b9050806132dc8382614952565b505050565b6132e961324f565b60006132f361301b565b80546001600160a01b0319166001600160a01b03939093169290921790915550565b610c4b61324f565b6000611b4f613988565b600080600083516041036133615760208401516040850151606086015160001a613353888285856139fc565b95509550955050505061336d565b50508151600091506002905b9250925092565b6000806000856001600160a01b03168585604051602401613396929190614fbf565b60408051601f198184030181529181526020820180516001600160e01b0316630b135d3f60e11b179052516133cb9190614fa3565b600060405180830381855afa9150503d8060008114613406576040519150601f19603f3d011682016040523d82523d6000602084013e61340b565b606091505b509150915081801561341f57506020815110155b801561155757508051630b135d3f60e11b906134449083016020908101908401614b11565b149695505050505050565b6000613459612735565b6000878152602082815260408083206001600160a01b038a16845260038101909252909120549192509060ff16156134a657856040516371c6af4960e01b815260040161110e9190613cd4565b6001600160a01b03861660009081526003820160205260409020805460ff1916600117905560ff85166134f257838160000160008282546134e79190614d38565b90915550611e139050565b60001960ff86160161351257838160010160008282546134e79190614d38565b60011960ff86160161353257838160020160008282546134e79190614d38565b6040516303599be160e11b815260040160405180910390fd5b60008160000361355d57506000919050565b6000600161356a84613ac1565b901c6001901b9050600181848161358357613583614bab565b048201901c9050600181848161359b5761359b614bab565b048201901c905060018184816135b3576135b3614bab565b048201901c905060018184816135cb576135cb614bab565b048201901c905060018184816135e3576135e3614bab565b048201901c905060018184816135fb576135fb614bab565b048201901c9050600181848161361357613613614bab565b048201901c9050611b648182858161362d5761362d614bab565b04613b55565b60005b8183101561368d57600061364a8484613b6b565b60008781526020902090915065ffffffffffff86169082015465ffffffffffff16111561367957809250613687565b613684816001614d38565b93505b50613636565b509392505050565b60008060f883901c602f811180156136b05750603a8160ff16105b156136c557600194602f199091019350915050565b8060ff1660401080156136db575060478160ff16105b156136f0576001946036199091019350915050565b8060ff166060108015613706575060678160ff16105b1561371b576001946056199091019350915050565b50600093849350915050565b600063ffffffff821115612a22576020826040516306dfcc6560e41b815260040161110e929190614eb9565b600061375d61225c565b6001600160a01b0316633a46b1a885856040518363ffffffff1660e01b815260040161378a929190614ab8565b602060405180830381865afa1580156137a7573d6000803e3d6000fd5b505050506040513d601f19601f82011682018060405250810190611b619190614b11565b8051156137db5780518082602001fd5b604051630a12f52160e11b815260040160405180910390fd5b82546000908190801561391357600061381287612aaa600185614afe565b60408051808201909152905465ffffffffffff808216808452600160301b9092046001600160d01b03166020840152919250908716101561386657604051632520601d60e01b815260040160405180910390fd5b805165ffffffffffff8088169116036138b2578461388988612aaa600186614afe565b80546001600160d01b0392909216600160301b0265ffffffffffff909216919091179055613903565b6040805180820190915265ffffffffffff80881682526001600160d01b0380881660208085019182528b54600181018d5560008d81529190912094519151909216600160301b029216919091179101555b6020015192508391506130f69050565b50506040805180820190915265ffffffffffff80851682526001600160d01b0380851660208085019182528854600181018a5560008a815291822095519251909316600160301b0291909316179201919091559050816130f6565b6000613978612517565b54600160401b900460ff16919050565b60007f8b73c3c69bb8fe3d512ecc4cf759cc79239f7b179b0ffacaa9a75d522b39400f6139b3613b86565b6139bb613bed565b60408051602081019490945283019190915260608201524660808201523060a082015260c00160405160208183030381529060405280519060200120905090565b600080806fa2a8918ca85bafe22016d0b997e4df60600160ff1b03841115613a2d5750600091506003905082613ab7565b604080516000808252602082018084528a905260ff891692820192909252606081018790526080810186905260019060a0016020604051602081039080840390855afa158015613a81573d6000803e3d6000fd5b5050604051601f1901519150506001600160a01b038116613aad57506000925060019150829050613ab7565b9250600091508190505b9450945094915050565b600080608083901c15613ad657608092831c92015b604083901c15613ae857604092831c92015b602083901c15613afa57602092831c92015b601083901c15613b0c57601092831c92015b600883901c15613b1e57600892831c92015b600483901c15613b3057600492831c92015b600283901c15613b4257600292831c92015b600183901c15610c3d5760010192915050565b6000818310613b645781611b64565b5090919050565b6000613b7a6002848418614bc1565b611b6490848416614d38565b600080613b91612e85565b90506000613b9d612ea9565b805190915015613bb557805160209091012092915050565b81548015613bc4579392505050565b7fc5d2460186f7233c927e7db2dcc703c0e500b653ca82273b7bfad8045d85a470935050505090565b600080613bf8612e85565b90506000613c04612f4a565b805190915015613c1c57805160209091012092915050565b60018201548015613bc4579392505050565b600060208284031215613c4057600080fd5b81356001600160e01b031981168114611b6457600080fd5b600060208284031215613c6a57600080fd5b5035919050565b60005b83811015613c8c578181015183820152602001613c74565b50506000910152565b60008151808452613cad816020860160208601613c71565b601f01601f19169290920160200192915050565b602081526000611b646020830184613c95565b6001600160a01b0391909116815260200190565b80356001600160a01b03811681146126c357600080fd5b634e487b7160e01b600052604160045260246000fd5b60405161014081016001600160401b0381118282101715613d3857613d38613cff565b60405290565b604051601f8201601f191681016001600160401b0381118282101715613d6657613d66613cff565b604052919050565b600082601f830112613d7f57600080fd5b81356001600160401b03811115613d9857613d98613cff565b613dab601f8201601f1916602001613d3e565b818152846020838601011115613dc057600080fd5b816020850160208301376000918101602001919091529392505050565b60008060008060808587031215613df357600080fd5b613dfc85613ce8565b9350613e0a60208601613ce8565b92506040850135915060608501356001600160401b03811115613e2c57600080fd5b613e3887828801613d6e565b91505092959194509250565b60006001600160401b03821115613e5d57613e5d613cff565b5060051b60200190565b600082601f830112613e7857600080fd5b81356020613e8d613e8883613e44565b613d3e565b82815260059290921b84018101918181019086841115613eac57600080fd5b8286015b84811015610d5e57613ec181613ce8565b8352918301918301613eb0565b600082601f830112613edf57600080fd5b81356020613eef613e8883613e44565b82815260059290921b84018101918181019086841115613f0e57600080fd5b8286015b84811015610d5e5780358352918301918301613f12565b600082601f830112613f3a57600080fd5b81356020613f4a613e8883613e44565b82815260059290921b84018101918181019086841115613f6957600080fd5b8286015b84811015610d5e5780356001600160401b03811115613f8c5760008081fd5b613f9a8986838b0101613d6e565b845250918301918301613f6d565b60008060008060808587031215613fbe57600080fd5b84356001600160401b0380821115613fd557600080fd5b613fe188838901613e67565b95506020870135915080821115613ff757600080fd5b61400388838901613ece565b9450604087013591508082111561401957600080fd5b5061402687828801613f29565b949793965093946060013593505050565b60008060006060848603121561404c57600080fd5b83356001600160401b038082111561406357600080fd5b90850190610140828803121561407857600080fd5b614080613d15565b82358281111561408f57600080fd5b61409b89828601613d6e565b8252506020830135602082015260408301356040820152606083013560608201526080830135608082015260a083013560a082015260c083013560c08201526140e660e08401613ce8565b60e082015261010080840135838111156140ff57600080fd5b61410b8a828701613e67565b828401525050610120808401358381111561412557600080fd5b6141318a828701613e67565b82840152505080955050505061414960208501613ce8565b915061415760408501613ce8565b90509250925092565b60008083601f84011261417257600080fd5b5081356001600160401b0381111561418957600080fd5b6020830191508360208285010111156141a157600080fd5b9250929050565b60008060008060008060a087890312156141c157600080fd5b6141ca87613ce8565b95506141d860208801613ce8565b9450604087013593506141ed60608801613ce8565b925060808701356001600160401b0381111561420857600080fd5b61421489828a01614160565b979a9699509497509295939492505050565b634e487b7160e01b600052602160045260246000fd5b6008811061425a57634e487b7160e01b600052602160045260246000fd5b9052565b60208101610c3d828461423c565b6000806040838503121561427f57600080fd5b8235915061428f60208401613ce8565b90509250929050565b9283526020830191909152604082015260600190565b803560ff811681146126c357600080fd5b600080604083850312156142d257600080fd5b8235915061428f602084016142ae565b6000602082840312156142f457600080fd5b611b6482613ce8565b600080600080600080600060c0888a03121561431857600080fd5b87359650614328602089016142ae565b955061433660408901613ce8565b945060608801356001600160401b038082111561435257600080fd5b61435e8b838c01614160565b909650945060808a013591508082111561437757600080fd5b6143838b838c01613d6e565b935060a08a013591508082111561439957600080fd5b506143a68a828b01613d6e565b91505092959891949750929550565b6000806000806000608086880312156143cd57600080fd5b853594506143dd602087016142ae565b935060408601356001600160401b03808211156143f957600080fd5b61440589838a01614160565b9095509350606088013591508082111561441e57600080fd5b5061442b88828901613d6e565b9150509295509295909350565b6000806000806060858703121561444e57600080fd5b8435935061445e602086016142ae565b925060408501356001600160401b0381111561447957600080fd5b61448587828801614160565b95989497509550505050565b600080600080608085870312156144a757600080fd5b84356001600160401b03808211156144be57600080fd5b6144ca88838901613e67565b955060208701359150808211156144e057600080fd5b6144ec88838901613ece565b9450604087013591508082111561450257600080fd5b61450e88838901613f29565b9350606087013591508082111561452457600080fd5b50613e3887828801613d6e565b600081518084526020808501945080840160005b8381101561456157815187529582019590820190600101614545565b509495945050505050565b60ff60f81b8816815260e06020820152600061458b60e0830189613c95565b828103604084015261459d8189613c95565b606084018890526001600160a01b038716608085015260a0840186905283810360c085015290506145ce8185614531565b9a9950505050505050505050565b8015158114610c5457600080fd5b600080604083850312156145fd57600080fd5b61460683613ce8565b91506020830135614616816145dc565b809150509250929050565b6000806000806080858703121561463757600080fd5b84359350614647602086016142ae565b925061465560408601613ce8565b915060608501356001600160401b03811115613e2c57600080fd5b60008060006060848603121561468557600080fd5b61468e84613ce8565b92506020840135915060408401356001600160401b038111156146b057600080fd5b6146bc86828701613d6e565b9150509250925092565b600080604083850312156146d957600080fd5b6146e283613ce8565b946020939093013593505050565b600080600080600060a0868803121561470857600080fd5b61471186613ce8565b945061471f60208701613ce8565b935060408601356001600160401b038082111561473b57600080fd5b61474789838a01613ece565b9450606088013591508082111561475d57600080fd5b61476989838a01613ece565b9350608088013591508082111561441e57600080fd5b6000806000806060858703121561479557600080fd5b61479e85613ce8565b93506020850135925060408501356001600160401b0381111561447957600080fd5b6000602082840312156147d257600080fd5b81356001600160401b03808211156147e957600080fd5b90830190608082860312156147fd57600080fd5b60405160808101818110838211171561481857614818613cff565b6040528235815261482b60208401613ce8565b602082015261483c60408401613ce8565b604082015260608301358281111561485357600080fd5b61485f87828601613d6e565b60608301525095945050505050565b600080600080600060a0868803121561488657600080fd5b61488f86613ce8565b945061489d60208701613ce8565b9350604086013592506060860135915060808601356001600160401b038111156148c657600080fd5b61442b88828901613d6e565b600181811c908216806148e657607f821691505b60208210810361490657634e487b7160e01b600052602260045260246000fd5b50919050565b601f8211156132dc57600081815260208120601f850160051c810160208610156149335750805b601f850160051c820191505b818110156132475782815560010161493f565b81516001600160401b0381111561496b5761496b613cff565b61497f8161497984546148d2565b8461490c565b602080601f8311600181146149b4576000841561499c5750858301515b600019600386901b1c1916600185901b178555613247565b600085815260208120601f198616915b828110156149e3578886015182559484019460019091019084016149c4565b5085821015614a015787850151600019600388901b60f8161c191681555b5050505050600190811b01905550565b634e487b7160e01b600052603260045260246000fd5b634e487b7160e01b600052601160045260246000fd5b600060018201614a4f57614a4f614a27565b5060010190565b60208082526019908201527829ba37b936a134ba2632b73234b7339d103737ba1039b2b63360391b604082015260600190565b60208152816020820152818360408301376000818301604090810191909152601f909201601f19160101919050565b6001600160a01b03929092168252602082015260400190565b600060208284031215614ae357600080fd5b8151611b64816145dc565b8183823760009101908152919050565b81810381811115610c3d57610c3d614a27565b600060208284031215614b2357600080fd5b5051919050565b65ffffffffffff828116828216039080821115614b4957614b49614a27565b5092915050565b60208082526024908201527f53746f726d4269744c656e64696e673a206173736574206e6f7420737570706f6040820152631c9d195960e21b606082015260800190565b8082028115828204841417610c3d57610c3d614a27565b634e487b7160e01b600052601260045260246000fd5b600082614bde57634e487b7160e01b600052601260045260246000fd5b500490565b65ffffffffffff818116838216019080821115614b4957614b49614a27565b6001600160a01b0386811682528581166020830152604082018590528316606082015260a06080820181905260009061176c90830184613c95565b600081518084526020808501945080840160005b838110156145615781516001600160a01b031687529582019590820190600101614c51565b600081518084526020808501808196508360051b8101915082860160005b85811015614cbe578284038952614cac848351613c95565b98850198935090840190600101614c94565b5091979650505050505050565b608081526000614cde6080830187614c3d565b8281036020840152614cf08187614531565b90508281036040840152614d048186614c76565b91505082606083015295945050505050565b83815260608101614d2a602083018561423c565b826040830152949350505050565b80820180821115610c3d57610c3d614a27565b60ff8181168382160190811115610c3d57610c3d614a27565b600181815b80851115614d9f578160001904821115614d8557614d85614a27565b80851615614d9257918102915b93841c9390800290614d69565b509250929050565b600082614db657506001610c3d565b81614dc357506000610c3d565b8160018114614dd95760028114614de357614dff565b6001915050610c3d565b60ff841115614df457614df4614a27565b50506001821b610c3d565b5060208310610133831016604e8410600b8410161715614e22575081810a610c3d565b614e2c8383614d64565b8060001904821115614e4057614e40614a27565b029392505050565b6000611b6460ff841683614da7565b84815260ff841660208201528260408201526080606082015260006115576080830184613c95565b85815260ff8516602082015283604082015260a060608201526000614ea760a0830185613c95565b82810360808401526119658185613c95565b60ff929092168252602082015260400190565b60006101208b8352602060018060a01b038c1681850152816040850152614ef58285018c614c3d565b91508382036060850152614f09828b614531565b915083820360808501528189518084528284019150828160051b850101838c0160005b83811015614f5a57601f19878403018552614f48838351613c95565b94860194925090850190600101614f2c565b505086810360a0880152614f6e818c614c76565b9450505050508560c08401528460e0840152828103610100840152614f938185613c95565b9c9b505050505050505050505050565b60008251614fb5818460208701613c71565b9190910192915050565b828152604060208201526000611b616040830184613c9556fef2aad550cf55f045cb27e9c559f9889fdfb6e6cdaa032301d6ea397784ae51d73e83946653575f9a39005e1545185629e92736b7528ab20ca3816f315424a811a2646970667358221220c29b31eb78fb48626fafadde912ae5288901bb07bb9de39d38084f6edf483db064736f6c63430008150033",
  "devdoc": {
    "errors": {
      "CheckpointUnorderedInsertion()": [
        {
          "details": "A value was attempted to be inserted on a past checkpoint."
        }
      ],
      "ERC1167FailedCreateClone()": [
        {
          "details": "A clone instance deployment failed."
        }
      ],
      "FailedInnerCall()": [
        {
          "details": "A call to an address target failed. The target may have reverted."
        }
      ],
      "GovernorAlreadyCastVote(address)": [
        {
          "details": "The vote was already cast."
        }
      ],
      "GovernorAlreadyQueuedProposal(uint256)": [
        {
          "details": "The proposal has already been queued."
        }
      ],
      "GovernorDisabledDeposit()": [
        {
          "details": "Token deposits are disabled in this contract."
        }
      ],
      "GovernorInsufficientProposerVotes(address,uint256,uint256)": [
        {
          "details": "The `proposer` does not have the required votes to create a proposal."
        }
      ],
      "GovernorInvalidProposalLength(uint256,uint256,uint256)": [
        {
          "details": "Empty proposal or a mismatch between the parameters length for a proposal call."
        }
      ],
      "GovernorInvalidQuorumFraction(uint256,uint256)": [
        {
          "details": "The quorum set is not a valid fraction."
        }
      ],
      "GovernorInvalidSignature(address)": [
        {
          "details": "The provided signature is not valid for the expected `voter`. If the `voter` is a contract, the signature is not valid using {IERC1271-isValidSignature}."
        }
      ],
      "GovernorInvalidVoteType()": [
        {
          "details": "The vote type used is not valid for the corresponding counting module."
        }
      ],
      "GovernorInvalidVotingPeriod(uint256)": [
        {
          "details": "The voting period set is not a valid period."
        }
      ],
      "GovernorNonexistentProposal(uint256)": [
        {
          "details": "The `proposalId` doesn't exist."
        }
      ],
      "GovernorNotQueuedProposal(uint256)": [
        {
          "details": "The proposal hasn't been queued yet."
        }
      ],
      "GovernorOnlyExecutor(address)": [
        {
          "details": "The `account` is not the governance executor."
        }
      ],
      "GovernorOnlyProposer(address)": [
        {
          "details": "The `account` is not a proposer."
        }
      ],
      "GovernorQueueNotImplemented()": [
        {
          "details": "Queue operation is not implemented for this governor. Execute should be called directly."
        }
      ],
      "GovernorRestrictedProposer(address)": [
        {
          "details": "The `proposer` is not allowed to create a proposal."
        }
      ],
      "GovernorUnexpectedProposalState(uint256,uint8,bytes32)": [
        {
          "details": "The current state of a proposal is not the required for performing an operation. The `expectedStates` is a bitmap with the bits enabled for each ProposalState enum position counting from right to left. NOTE: If `expectedState` is `bytes32(0)`, the proposal is expected to not be in any state (i.e. not exist). This is the case when a proposal that is expected to be unset is already initiated (the proposal is duplicated). See {Governor-_encodeStateBitmap}."
        }
      ],
      "InvalidAccountNonce(address,uint256)": [
        {
          "details": "The nonce used for an `account` is not the expected current nonce."
        }
      ],
      "InvalidInitialization()": [
        {
          "details": "The contract is already initialized."
        }
      ],
      "NotInitializing()": [
        {
          "details": "The contract is not initializing."
        }
      ],
      "OwnableInvalidOwner(address)": [
        {
          "details": "The owner is not a valid owner account. (eg. `address(0)`)"
        }
      ],
      "OwnableUnauthorizedAccount(address)": [
        {
          "details": "The caller account is not authorized to perform an operation."
        }
      ],
      "QueueEmpty()": [
        {
          "details": "An operation (e.g. {front}) couldn't be completed due to the queue being empty."
        }
      ],
      "QueueFull()": [
        {
          "details": "A push operation couldn't be completed due to the queue being full."
        }
      ],
      "ReentrancyGuardReentrantCall()": [
        {
          "details": "Unauthorized reentrant call."
        }
      ],
      "SafeCastOverflowedUintDowncast(uint8,uint256)": [
        {
          "details": "Value doesn't fit in an uint of `bits` size."
        }
      ]
    },
    "events": {
      "EIP712DomainChanged()": {
        "details": "MAY be emitted to signal that the domain could have changed."
      },
      "Initialized(uint64)": {
        "details": "Triggered when the contract has been initialized or reinitialized."
      },
      "ProposalCanceled(uint256)": {
        "details": "Emitted when a proposal is canceled."
      },
      "ProposalCreated(uint256,address,address[],uint256[],string[],bytes[],uint256,uint256,string)": {
        "details": "Emitted when a proposal is created."
      },
      "ProposalExecuted(uint256)": {
        "details": "Emitted when a proposal is executed."
      },
      "ProposalQueued(uint256,uint256)": {
        "details": "Emitted when a proposal is queued."
      },
      "VoteCast(address,uint256,uint8,uint256,string)": {
        "details": "Emitted when a vote is cast without params. Note: `support` values should be seen as buckets. Their interpretation depends on the voting module used."
      },
      "VoteCastWithParams(address,uint256,uint8,uint256,string,bytes)": {
        "details": "Emitted when a vote is cast with params. Note: `support` values should be seen as buckets. Their interpretation depends on the voting module used. `params` are additional encoded parameters. Their interpepretation also depends on the voting module used."
      }
    },
    "kind": "dev",
    "methods": {
      "COUNTING_MODE()": {
        "details": "See {IGovernor-COUNTING_MODE}."
      },
      "cancel(address[],uint256[],bytes[],bytes32)": {
        "details": "See {IGovernor-cancel}."
      },
      "castVote(uint256,uint8)": {
        "details": "See {IGovernor-castVote}."
      },
      "castVoteBySig(uint256,uint8,address,bytes)": {
        "details": "See {IGovernor-castVoteBySig}."
      },
      "castVoteWithReason(uint256,uint8,string)": {
        "details": "See {IGovernor-castVoteWithReason}."
      },
      "castVoteWithReasonAndParams(uint256,uint8,string,bytes)": {
        "details": "See {IGovernor-castVoteWithReasonAndParams}."
      },
      "castVoteWithReasonAndParamsBySig(uint256,uint8,address,string,bytes,bytes)": {
        "details": "See {IGovernor-castVoteWithReasonAndParamsBySig}."
      },
      "eip712Domain()": {
        "details": "See {IERC-5267}."
      },
      "execute(address[],uint256[],bytes[],bytes32)": {
        "details": "See {IGovernor-execute}."
      },
      "getVotes(address,uint256)": {
        "details": "See {IGovernor-getVotes}."
      },
      "getVotesWithParams(address,uint256,bytes)": {
        "details": "See {IGovernor-getVotesWithParams}."
      },
      "hasVoted(uint256,address)": {
        "details": "See {IGovernor-hasVoted}."
      },
      "hashProposal(address[],uint256[],bytes[],bytes32)": {
        "details": "See {IGovernor-hashProposal}. The proposal id is produced by hashing the ABI encoded `targets` array, the `values` array, the `calldatas` array and the descriptionHash (bytes32 which itself is the keccak256 hash of the description string). This proposal id can be produced from the proposal data which is part of the {ProposalCreated} event. It can even be computed in advance, before the proposal is submitted. Note that the chainId and the governor address are not part of the proposal id computation. Consequently, the same proposal (with same operation and same description) will have the same id if submitted on multiple governors across multiple networks. This also means that in order to execute the same operation twice (on the same governor) the proposer will have to change the description in order to avoid proposal id conflicts."
      },
      "name()": {
        "details": "See {IGovernor-name}."
      },
      "nonces(address)": {
        "details": "Returns the next unused nonce for an address."
      },
      "onERC1155BatchReceived(address,address,uint256[],uint256[],bytes)": {
        "details": "See {IERC1155Receiver-onERC1155BatchReceived}. Receiving tokens is disabled if the governance executor is other than the governor itself (eg. when using with a timelock)."
      },
      "onERC1155Received(address,address,uint256,uint256,bytes)": {
        "details": "See {IERC1155Receiver-onERC1155Received}. Receiving tokens is disabled if the governance executor is other than the governor itself (eg. when using with a timelock)."
      },
      "onERC721Received(address,address,uint256,bytes)": {
        "details": "See {IERC721Receiver-onERC721Received}. Receiving tokens is disabled if the governance executor is other than the governor itself (eg. when using with a timelock)."
      },
      "owner()": {
        "details": "Returns the address of the current owner."
      },
      "proposalDeadline(uint256)": {
        "details": "See {IGovernor-proposalDeadline}."
      },
      "proposalEta(uint256)": {
        "details": "See {IGovernor-proposalEta}."
      },
      "proposalNeedsQueuing(uint256)": {
        "details": "See {IGovernor-proposalNeedsQueuing}."
      },
      "proposalProposer(uint256)": {
        "details": "See {IGovernor-proposalProposer}."
      },
      "proposalSnapshot(uint256)": {
        "details": "See {IGovernor-proposalSnapshot}."
      },
      "proposalThreshold()": {
        "details": "See {IGovernor-proposalThreshold}."
      },
      "proposalVotes(uint256)": {
        "details": "Accessor to the internal vote counts."
      },
      "propose(address[],uint256[],bytes[],string)": {
        "details": "See {IGovernor-propose}. This function has opt-in frontrunning protection, described in {_isValidDescriptionForProposer}."
      },
      "queue(address[],uint256[],bytes[],bytes32)": {
        "details": "See {IGovernor-queue}."
      },
      "quorum(uint256)": {
        "details": "Returns the quorum for a timepoint, in terms of number of votes: `supply * numerator / denominator`."
      },
      "quorumDenominator()": {
        "details": "Returns the quorum denominator. Defaults to 100, but may be overridden."
      },
      "quorumNumerator()": {
        "details": "Returns the current quorum numerator. See {quorumDenominator}."
      },
      "quorumNumerator(uint256)": {
        "details": "Returns the quorum numerator at a specific timepoint. See {quorumDenominator}."
      },
      "relay(address,uint256,bytes)": {
        "details": "Relays a transaction or function call to an arbitrary target. In cases where the governance executor is some contract other than the governor itself, like when using a timelock, this function can be invoked in a governance proposal to recover tokens or Ether that was sent to the governor contract by mistake. Note that if the executor is simply the governor itself, use of `relay` is redundant."
      },
      "renounceOwnership()": {
        "details": "Leaves the contract without owner. It will not be possible to call `onlyOwner` functions. Can only be called by the current owner. NOTE: Renouncing ownership will leave the contract without an owner, thereby disabling any functionality that is only available to the owner."
      },
      "state(uint256)": {
        "details": "See {IGovernor-state}."
      },
      "supportsInterface(bytes4)": {
        "details": "See {IERC165-supportsInterface}."
      },
      "token()": {
        "details": "The token that voting power is sourced from."
      },
      "transferOwnership(address)": {
        "details": "Transfers ownership of the contract to a new account (`newOwner`). Can only be called by the current owner."
      },
      "updateQuorumNumerator(uint256)": {
        "details": "Changes the quorum numerator. Emits a {QuorumNumeratorUpdated} event. Requirements: - Must be called through a governance proposal. - New numerator must be smaller or equal to the denominator."
      },
      "version()": {
        "details": "See {IGovernor-version}."
      },
      "votingDelay()": {
        "details": "Delay, between the proposal is created and the vote starts. The unit this duration is expressed in depends on the clock (see EIP-6372) this contract uses. This can be increased to leave time for users to buy voting power, or delegate it, before the voting of a proposal starts. NOTE: While this interface returns a uint256, timepoints are stored as uint48 following the ERC-6372 clock type. Consequently this value must fit in a uint48 (when added to the current clock). See {IERC6372-clock}."
      },
      "votingPeriod()": {
        "details": "Delay between the vote start and vote end. The unit this duration is expressed in depends on the clock (see EIP-6372) this contract uses. NOTE: The {votingDelay} can delay the start of the vote. This must be considered when setting the voting duration compared to the voting delay. NOTE: This value is stored when the proposal is submitted so that possible changes to the value do not affect proposals that have already been submitted. The type used to save it is a uint32. Consequently, while this interface returns a uint256, the value it returns should fit in a uint32."
      }
    },
    "version": 1
  },
  "userdoc": {
    "kind": "user",
    "methods": {
      "votingDelay()": {
        "notice": "module:user-config"
      },
      "votingPeriod()": {
        "notice": "module:user-config"
      }
    },
    "version": 1
  },
  "storageLayout": {
    "storage": [
      {
        "astId": 9616,
        "contract": "contracts/StormBitLending.sol:StormBitLending",
        "label": "_status",
        "offset": 0,
        "slot": "0",
        "type": "t_uint256"
      },
      {
        "astId": 17171,
        "contract": "contracts/StormBitLending.sol:StormBitLending",
        "label": "_stormBit",
        "offset": 0,
        "slot": "1",
        "type": "t_contract(IStormBit)18953"
      },
      {
        "astId": 17173,
        "contract": "contracts/StormBitLending.sol:StormBitLending",
        "label": "poolName",
        "offset": 0,
        "slot": "2",
        "type": "t_string_storage"
      },
      {
        "astId": 17175,
        "contract": "contracts/StormBitLending.sol:StormBitLending",
        "label": "creditScore",
        "offset": 0,
        "slot": "3",
        "type": "t_uint256"
      },
      {
        "astId": 17177,
        "contract": "contracts/StormBitLending.sol:StormBitLending",
        "label": "maxAmountOfStakers",
        "offset": 0,
        "slot": "4",
        "type": "t_uint256"
      },
      {
        "astId": 17179,
        "contract": "contracts/StormBitLending.sol:StormBitLending",
        "label": "votingQuorum",
        "offset": 0,
        "slot": "5",
        "type": "t_uint256"
      },
      {
        "astId": 17181,
        "contract": "contracts/StormBitLending.sol:StormBitLending",
        "label": "maxPoolUsage",
        "offset": 0,
        "slot": "6",
        "type": "t_uint256"
      },
      {
        "astId": 17183,
        "contract": "contracts/StormBitLending.sol:StormBitLending",
        "label": "votingPowerCoolDown",
        "offset": 0,
        "slot": "7",
        "type": "t_uint256"
      },
      {
        "astId": 17185,
        "contract": "contracts/StormBitLending.sol:StormBitLending",
        "label": "lendingVotes",
        "offset": 0,
        "slot": "8",
        "type": "t_address"
      },
      {
        "astId": 17189,
        "contract": "contracts/StormBitLending.sol:StormBitLending",
        "label": "isSupportedAsset",
        "offset": 0,
        "slot": "9",
        "type": "t_mapping(t_address,t_bool)"
      },
      {
        "astId": 17193,
        "contract": "contracts/StormBitLending.sol:StormBitLending",
        "label": "isSupportedAction",
        "offset": 0,
        "slot": "10",
        "type": "t_mapping(t_bytes4,t_bool)"
      },
      {
        "astId": 17197,
        "contract": "contracts/StormBitLending.sol:StormBitLending",
        "label": "isSupportedAgreement",
        "offset": 0,
        "slot": "11",
        "type": "t_mapping(t_address,t_bool)"
      },
      {
        "astId": 17201,
        "contract": "contracts/StormBitLending.sol:StormBitLending",
        "label": "userAgreement",
        "offset": 0,
        "slot": "12",
        "type": "t_mapping(t_address,t_address)"
      }
    ],
    "types": {
      "t_address": {
        "encoding": "inplace",
        "label": "address",
        "numberOfBytes": "20"
      },
      "t_bool": {
        "encoding": "inplace",
        "label": "bool",
        "numberOfBytes": "1"
      },
      "t_bytes4": {
        "encoding": "inplace",
        "label": "bytes4",
        "numberOfBytes": "4"
      },
      "t_contract(IStormBit)18953": {
        "encoding": "inplace",
        "label": "contract IStormBit",
        "numberOfBytes": "20"
      },
      "t_mapping(t_address,t_address)": {
        "encoding": "mapping",
        "key": "t_address",
        "label": "mapping(address => address)",
        "numberOfBytes": "32",
        "value": "t_address"
      },
      "t_mapping(t_address,t_bool)": {
        "encoding": "mapping",
        "key": "t_address",
        "label": "mapping(address => bool)",
        "numberOfBytes": "32",
        "value": "t_bool"
      },
      "t_mapping(t_bytes4,t_bool)": {
        "encoding": "mapping",
        "key": "t_bytes4",
        "label": "mapping(bytes4 => bool)",
        "numberOfBytes": "32",
        "value": "t_bool"
      },
      "t_string_storage": {
        "encoding": "bytes",
        "label": "string",
        "numberOfBytes": "32"
      },
      "t_uint256": {
        "encoding": "inplace",
        "label": "uint256",
        "numberOfBytes": "32"
      }
    }
  }
}