{
  "address": "0x89B02aa3Ad8Af52Fc62244d7b1902dE5B291684b",
  "abi": [
    {
      "inputs": [
        {
          "internalType": "address",
          "name": "initialGovernor",
          "type": "address"
        }
      ],
      "stateMutability": "nonpayable",
      "type": "constructor"
    },
    {
      "inputs": [],
      "name": "InvalidInitialization",
      "type": "error"
    },
    {
      "inputs": [],
      "name": "NotInitializing",
      "type": "error"
    },
    {
      "anonymous": false,
      "inputs": [
        {
          "indexed": true,
          "internalType": "address",
          "name": "token",
          "type": "address"
        },
        {
          "indexed": true,
          "internalType": "address",
          "name": "vault",
          "type": "address"
        }
      ],
      "name": "AddToken",
      "type": "event"
    },
    {
      "anonymous": false,
      "inputs": [
        {
          "indexed": true,
          "internalType": "address",
          "name": "borrower",
          "type": "address"
        },
        {
          "indexed": true,
          "internalType": "address",
          "name": "token",
          "type": "address"
        },
        {
          "indexed": false,
          "internalType": "uint256",
          "name": "shares",
          "type": "uint256"
        }
      ],
      "name": "BorrowerWithdraw",
      "type": "event"
    },
    {
      "anonymous": false,
      "inputs": [
        {
          "indexed": true,
          "internalType": "address",
          "name": "user",
          "type": "address"
        },
        {
          "indexed": true,
          "internalType": "address",
          "name": "token",
          "type": "address"
        },
        {
          "indexed": false,
          "internalType": "uint256",
          "name": "assets",
          "type": "uint256"
        }
      ],
      "name": "Deposit",
      "type": "event"
    },
    {
      "anonymous": false,
      "inputs": [
        {
          "indexed": false,
          "internalType": "uint64",
          "name": "version",
          "type": "uint64"
        }
      ],
      "name": "Initialized",
      "type": "event"
    },
    {
      "anonymous": false,
      "inputs": [
        {
          "indexed": true,
          "internalType": "address",
          "name": "token",
          "type": "address"
        },
        {
          "indexed": true,
          "internalType": "address",
          "name": "vault",
          "type": "address"
        }
      ],
      "name": "RemoveToken",
      "type": "event"
    },
    {
      "anonymous": false,
      "inputs": [
        {
          "indexed": true,
          "internalType": "address",
          "name": "user",
          "type": "address"
        },
        {
          "indexed": true,
          "internalType": "address",
          "name": "vaultToken",
          "type": "address"
        },
        {
          "indexed": false,
          "internalType": "uint256",
          "name": "assets",
          "type": "uint256"
        },
        {
          "indexed": false,
          "internalType": "uint256",
          "name": "sharesBurned",
          "type": "uint256"
        }
      ],
      "name": "Withdraw",
      "type": "event"
    },
    {
      "inputs": [
        {
          "internalType": "address",
          "name": "token",
          "type": "address"
        }
      ],
      "name": "addToken",
      "outputs": [],
      "stateMutability": "nonpayable",
      "type": "function"
    },
    {
      "inputs": [
        {
          "internalType": "address",
          "name": "borrower",
          "type": "address"
        },
        {
          "internalType": "address",
          "name": "token",
          "type": "address"
        },
        {
          "internalType": "uint256",
          "name": "assets",
          "type": "uint256"
        }
      ],
      "name": "borrowerWithdraw",
      "outputs": [],
      "stateMutability": "nonpayable",
      "type": "function"
    },
    {
      "inputs": [
        {
          "internalType": "address",
          "name": "token",
          "type": "address"
        },
        {
          "internalType": "uint256",
          "name": "shares",
          "type": "uint256"
        }
      ],
      "name": "convertToAssets",
      "outputs": [
        {
          "internalType": "uint256",
          "name": "",
          "type": "uint256"
        }
      ],
      "stateMutability": "view",
      "type": "function"
    },
    {
      "inputs": [
        {
          "internalType": "address",
          "name": "token",
          "type": "address"
        },
        {
          "internalType": "uint256",
          "name": "assets",
          "type": "uint256"
        }
      ],
      "name": "convertToShares",
      "outputs": [
        {
          "internalType": "uint256",
          "name": "",
          "type": "uint256"
        }
      ],
      "stateMutability": "view",
      "type": "function"
    },
    {
      "inputs": [
        {
          "internalType": "address",
          "name": "token",
          "type": "address"
        },
        {
          "internalType": "uint256",
          "name": "assets",
          "type": "uint256"
        }
      ],
      "name": "deposit",
      "outputs": [],
      "stateMutability": "nonpayable",
      "type": "function"
    },
    {
      "inputs": [
        {
          "internalType": "address",
          "name": "token",
          "type": "address"
        },
        {
          "internalType": "uint256",
          "name": "assets",
          "type": "uint256"
        },
        {
          "internalType": "address",
          "name": "depositor",
          "type": "address"
        },
        {
          "internalType": "address",
          "name": "receiver",
          "type": "address"
        }
      ],
      "name": "depositFrom",
      "outputs": [],
      "stateMutability": "nonpayable",
      "type": "function"
    },
    {
      "inputs": [
        {
          "internalType": "address",
          "name": "token",
          "type": "address"
        },
        {
          "internalType": "address",
          "name": "user",
          "type": "address"
        }
      ],
      "name": "getUserShares",
      "outputs": [
        {
          "internalType": "uint256",
          "name": "",
          "type": "uint256"
        }
      ],
      "stateMutability": "view",
      "type": "function"
    },
    {
      "inputs": [
        {
          "internalType": "address",
          "name": "token",
          "type": "address"
        }
      ],
      "name": "getVaultToken",
      "outputs": [
        {
          "internalType": "address",
          "name": "",
          "type": "address"
        }
      ],
      "stateMutability": "view",
      "type": "function"
    },
    {
      "inputs": [],
      "name": "governor",
      "outputs": [
        {
          "internalType": "address",
          "name": "",
          "type": "address"
        }
      ],
      "stateMutability": "view",
      "type": "function"
    },
    {
      "inputs": [
        {
          "internalType": "address",
          "name": "loanManagerAddr",
          "type": "address"
        },
        {
          "internalType": "address",
          "name": "lendingManagerAddr",
          "type": "address"
        }
      ],
      "name": "initialize",
      "outputs": [],
      "stateMutability": "nonpayable",
      "type": "function"
    },
    {
      "inputs": [
        {
          "internalType": "address",
          "name": "token",
          "type": "address"
        }
      ],
      "name": "isTokenSupported",
      "outputs": [
        {
          "internalType": "bool",
          "name": "",
          "type": "bool"
        }
      ],
      "stateMutability": "view",
      "type": "function"
    },
    {
      "inputs": [],
      "name": "lendingManager",
      "outputs": [
        {
          "internalType": "contract ILendingManager",
          "name": "",
          "type": "address"
        }
      ],
      "stateMutability": "view",
      "type": "function"
    },
    {
      "inputs": [],
      "name": "loanManager",
      "outputs": [
        {
          "internalType": "contract ILoanManager",
          "name": "",
          "type": "address"
        }
      ],
      "stateMutability": "view",
      "type": "function"
    },
    {
      "inputs": [
        {
          "internalType": "address",
          "name": "token",
          "type": "address"
        }
      ],
      "name": "removeToken",
      "outputs": [],
      "stateMutability": "nonpayable",
      "type": "function"
    },
    {
      "inputs": [
        {
          "internalType": "address",
          "name": "token",
          "type": "address"
        },
        {
          "internalType": "uint256",
          "name": "assets",
          "type": "uint256"
        }
      ],
      "name": "withdraw",
      "outputs": [],
      "stateMutability": "nonpayable",
      "type": "function"
    }
  ],
  "transactionHash": "0xe7969ea5b878c1099afac1da57168dbb113a3d093e7d52579fecea8da89951d0",
  "args": [
    "0xDe3089d40F3491De794fBb1ECA109fAc36F889d0"
  ],
  "numDeployments": 1,
  "solcInputHash": "fc88f2785a8cc64f484af0517b95c10f",
  "bytecode": "0x608060405234801561001057600080fd5b50604051612cec380380612cec83398101604081905261002f91610054565b600080546001600160a01b0319166001600160a01b0392909216919091179055610084565b60006020828403121561006657600080fd5b81516001600160a01b038116811461007d57600080fd5b9392505050565b612c59806100936000396000f3fe60806040523480156200001157600080fd5b5060043610620000d65760003560e01c80630c340a2414620000db5780632ab5c0a514620001005780633e5541f1146200011957806347e7ef24146200013f578063485cc955146200015657806350603df3146200016d5780635fa7b58414620001845780636b4ee7f3146200019b57806375151b6314620001b25780639dc6108f14620001f25780639e3b77af1462000209578063a362d782146200021d578063b3ccbcfe1462000234578063d48bfca71462000248578063f3fef3a3146200025f575b600080fd5b6000546001600160a01b03165b604051620000f7919062000ede565b60405180910390f35b620001176200011136600462000f0f565b62000276565b005b620001306200012a36600462000f63565b6200046c565b604051908152602001620000f7565b620001176200015036600462000f63565b62000501565b620001176200016736600462000f90565b620006df565b620001306200017e36600462000f63565b6200081a565b620001176200019536600462000fc8565b62000862565b62000117620001ac36600462000fed565b620009b8565b620001e1620001c336600462000fc8565b6001600160a01b031660009081526003602052604090205460ff1690565b6040519015158152602001620000f7565b620000e86200020336600462000fc8565b62000af5565b600254620000e8906001600160a01b031681565b620001306200022e36600462000f90565b62000b13565b600154620000e8906001600160a01b031681565b620001176200025936600462000fc8565b62000b58565b620001176200027036600462000f63565b62000d76565b620002818462000e54565b6001600160a01b0380851660008181526004602081905260408083205490516323b872dd60e01b81529416939192916323b872dd91620002c891889130918b91016200102e565b6020604051808303816000875af1158015620002e8573d6000803e3d6000fd5b505050506040513d601f19601f820116820180604052508101906200030e919062001052565b905080620003395760405162461bcd60e51b8152600401620003309062001076565b60405180910390fd5b60405163095ea7b360e01b81526001600160a01b0387169063095ea7b390620003699085908990600401620010bb565b6020604051808303816000875af115801562000389573d6000803e3d6000fd5b505050506040513d601f19601f82011682018060405250810190620003af919062001052565b50604051636e553f6560e01b81526001600160a01b03831690636e553f6590620003e09088908790600401620010d4565b6020604051808303816000875af115801562000400573d6000803e3d6000fd5b505050506040513d601f19601f82011682018060405250810190620004269190620010eb565b50856001600160a01b0316836001600160a01b031660008051602062002c04833981519152876040516200045c91815260200190565b60405180910390a3505050505050565b6001600160a01b0380831660009081526004602081905260408083205490516363737ac960e11b8152929316918291829163c6e6f59291620004b49188910190815260200190565b602060405180830381865afa158015620004d2573d6000803e3d6000fd5b505050506040513d601f19601f82011682018060405250810190620004f89190620010eb565b95945050505050565b6200050c8262000e54565b6001600160a01b0380831660008181526004602081905260408083205490516323b872dd60e01b81529416939192916323b872dd916200055391339130918991016200102e565b6020604051808303816000875af115801562000573573d6000803e3d6000fd5b505050506040513d601f19601f8201168201806040525081019062000599919062001052565b905080620005bb5760405162461bcd60e51b8152600401620003309062001076565b60405163095ea7b360e01b81526001600160a01b0385169063095ea7b390620005eb9085908790600401620010bb565b6020604051808303816000875af11580156200060b573d6000803e3d6000fd5b505050506040513d601f19601f8201168201806040525081019062000631919062001052565b50604051636e553f6560e01b81526001600160a01b03831690636e553f6590620006629086903390600401620010d4565b6020604051808303816000875af115801562000682573d6000803e3d6000fd5b505050506040513d601f19601f82011682018060405250810190620006a89190620010eb565b506040518381526001600160a01b03851690339060008051602062002c04833981519152906020015b60405180910390a350505050565b7ff0c57e16840df040f15088dc2f81fe391c3923bec73e23a9662efc9c229c6a008054600160401b810460ff1615906001600160401b0316600081158015620007255750825b90506000826001600160401b03166001148015620007425750303b155b90508115801562000751575080155b15620007705760405163f92ee8a960e01b815260040160405180910390fd5b84546001600160401b031916600117855583156200079a57845460ff60401b1916600160401b1785555b600180546001600160a01b03808a166001600160a01b031992831617909255600280549289169290911691909117905583156200081157845460ff60401b19168555604051600181527fc7f505b2f371ae2175ee4913f4499e1f2633a7b5936321eed1cdaeb6115181d29060200160405180910390a15b50505050505050565b6001600160a01b0380831660009081526004602081905260408083205490516303d1689d60e11b815292931691829182916307a2d13a91620004b49188910190815260200190565b6000546001600160a01b031633146200088f5760405162461bcd60e51b8152600401620003309062001105565b6001600160a01b038082166000908152600460208181526040928390205483516318160ddd60e01b8152935194169384936318160ddd938181019392918290030181865afa158015620008e6573d6000803e3d6000fd5b505050506040513d601f19601f820116820180604052508101906200090c9190620010eb565b15620009695760405162461bcd60e51b815260206004820152602560248201527f53746f726d62697441737365744d616e616765723a207661756c74206e6f7420604482015264656d70747960d81b606482015260840162000330565b6001600160a01b03808316600081815260036020526040808220805460ff1916905551928416927f39dcd754ec63af4b82c4c569ff1b6b4e55a8038e6545844747e54f2f2d4e8e509190a35050565b6002546001600160a01b0316331462000a265760405162461bcd60e51b815260206004820152602960248201527f53746f726d62697441737365744d616e616765723a206e6f74206c656e64696e604482015268339036b0b730b3b2b960b91b606482015260840162000330565b600062000a338362000af5565b604051632d182be560e21b81529091506001600160a01b0382169063b460af949062000a689085908890339060040162001147565b6020604051808303816000875af115801562000a88573d6000803e3d6000fd5b505050506040513d601f19601f8201168201806040525081019062000aae9190620010eb565b50826001600160a01b0316846001600160a01b03167f3733fa05f9ab2438e9b8352d03ce86b0b247d1d68c8cb3187f3d7f4b5954c71b84604051620006d191815260200190565b6001600160a01b039081166000908152600460205260409020541690565b6001600160a01b0380831660009081526004602081905260408083205490516370a0823160e01b815292931691829182916370a0823191620004b49188910162000ede565b6000546001600160a01b0316331462000b855760405162461bcd60e51b8152600401620003309062001105565b6001600160a01b03811660009081526003602052604090205460ff1662000d73576001600160a01b038116600081815260036020526040808220805460ff1916600117905580516395d89b4160e01b815290519192849230926395d89b4191600480830192889291908290030181865afa15801562000c08573d6000803e3d6000fd5b505050506040513d6000823e601f3d908101601f1916820160405262000c329190810190620011a2565b60405160200162000c4491906200125a565b604051602081830303815290604052846001600160a01b03166395d89b416040518163ffffffff1660e01b8152600401600060405180830381865afa15801562000c92573d6000803e3d6000fd5b505050506040513d6000823e601f3d908101601f1916820160405262000cbc9190810190620011a2565b60405160200162000cce91906200128d565b60405160208183030381529060405260405162000ceb9062000ed0565b62000cfa9493929190620012e6565b604051809103906000f08015801562000d17573d6000803e3d6000fd5b506001600160a01b0383811660008181526004602052604080822080546001600160a01b031916948616948517905551939450919290917fdbf34b45b47a653cf4940cccbec765f72d4d63de3237306905bfc0ee2883236291a3505b50565b62000d818262000e54565b6001600160a01b038083166000908152600460208190526040808320549051632d182be560e21b8152931692839163b460af949162000dc7918791339182910162001147565b6020604051808303816000875af115801562000de7573d6000803e3d6000fd5b505050506040513d601f19601f8201168201806040525081019062000e0d9190620010eb565b60408051858152602081018390529192506001600160a01b0384169133917ff341246adaac6f497bc2a656f546ab9e182111d630394f0c57c710a59a2cb5679101620006d1565b6001600160a01b03811660009081526003602052604090205460ff1662000d735760405162461bcd60e51b815260206004820152602960248201527f53746f726d62697441737365744d616e616765723a20746f6b656e206e6f74206044820152681cdd5c1c1bdc9d195960ba1b606482015260840162000330565b6118db806200132983390190565b6001600160a01b0391909116815260200190565b80356001600160a01b038116811462000f0a57600080fd5b919050565b6000806000806080858703121562000f2657600080fd5b62000f318562000ef2565b93506020850135925062000f486040860162000ef2565b915062000f586060860162000ef2565b905092959194509250565b6000806040838503121562000f7757600080fd5b62000f828362000ef2565b946020939093013593505050565b6000806040838503121562000fa457600080fd5b62000faf8362000ef2565b915062000fbf6020840162000ef2565b90509250929050565b60006020828403121562000fdb57600080fd5b62000fe68262000ef2565b9392505050565b6000806000606084860312156200100357600080fd5b6200100e8462000ef2565b92506200101e6020850162000ef2565b9150604084013590509250925092565b6001600160a01b039384168152919092166020820152604081019190915260600190565b6000602082840312156200106557600080fd5b8151801515811462000fe657600080fd5b60208082526025908201527f53746f726d62697441737365744d616e616765723a207472616e736665722066604082015264185a5b195960da1b606082015260800190565b6001600160a01b03929092168252602082015260400190565b9182526001600160a01b0316602082015260400190565b600060208284031215620010fe57600080fd5b5051919050565b60208082526022908201527f53746f726d62697441737365744d616e616765723a206e6f7420676f7665726e60408201526137b960f11b606082015260800190565b9283526001600160a01b03918216602084015216604082015260600190565b634e487b7160e01b600052604160045260246000fd5b60005b83811015620011995781810151838201526020016200117f565b50506000910152565b600060208284031215620011b557600080fd5b81516001600160401b0380821115620011cd57600080fd5b818401915084601f830112620011e257600080fd5b815181811115620011f757620011f762001166565b604051601f8201601f19908116603f0116810190838211818310171562001222576200122262001166565b816040528281528760208487010111156200123c57600080fd5b6200124f8360208301602088016200117c565b979650505050505050565b68029ba37b936b134ba160bd1b815260008251620012808160098501602087016200117c565b9190910160090192915050565b607360f81b815260008251620012ab8160018501602087016200117c565b9190910160010192915050565b60008151808452620012d28160208601602086016200117c565b601f01601f19169290920160200192915050565b6001600160a01b038581168252841660208201526080604082018190526000906200131490830185620012b8565b82810360608401526200124f8185620012b856fe60c06040523480156200001157600080fd5b50604051620018db380380620018db833981016040819052620000349162000283565b8382826003620000458382620003a7565b506004620000548282620003a7565b5050506000806200006b83620000b860201b60201c565b91509150816200007d5760126200007f565b805b60ff1660a05250506001600160a01b03908116608052600580546001600160a01b031916949091169390931790925550620004ab915050565b60408051600481526024810182526020810180516001600160e01b031663313ce56760e01b17905290516000918291829182916001600160a01b03871691620001019162000473565b600060405180830381855afa9150503d80600081146200013e576040519150601f19603f3d011682016040523d82523d6000602084013e62000143565b606091505b50915091508180156200015857506020815110155b15620001905760008180602001905181019062000176919062000491565b905060ff81116200018e576001969095509350505050565b505b5060009485945092505050565b6001600160a01b0381168114620001b357600080fd5b50565b634e487b7160e01b600052604160045260246000fd5b60005b83811015620001e9578181015183820152602001620001cf565b50506000910152565b600082601f8301126200020457600080fd5b81516001600160401b0380821115620002215762000221620001b6565b604051601f8301601f19908116603f011681019082821181831017156200024c576200024c620001b6565b816040528381528660208588010111156200026657600080fd5b62000279846020830160208901620001cc565b9695505050505050565b600080600080608085870312156200029a57600080fd5b8451620002a7816200019d565b6020860151909450620002ba816200019d565b60408601519093506001600160401b0380821115620002d857600080fd5b620002e688838901620001f2565b93506060870151915080821115620002fd57600080fd5b506200030c87828801620001f2565b91505092959194509250565b600181811c908216806200032d57607f821691505b6020821081036200034e57634e487b7160e01b600052602260045260246000fd5b50919050565b601f821115620003a257600081815260208120601f850160051c810160208610156200037d5750805b601f850160051c820191505b818110156200039e5782815560010162000389565b5050505b505050565b81516001600160401b03811115620003c357620003c3620001b6565b620003db81620003d4845462000318565b8462000354565b602080601f831160018114620004135760008415620003fa5750858301515b600019600386901b1c1916600185901b1785556200039e565b600085815260208120601f198616915b82811015620004445788860151825594840194600190910190840162000423565b5085821015620004635787850151600019600388901b60f8161c191681555b5050505050600190811b01905550565b6000825162000487818460208701620001cc565b9190910192915050565b600060208284031215620004a457600080fd5b5051919050565b60805160a0516113f5620004e660003960006104db0152600081816102080152818161033a01528181610b480152610bfa01526113f56000f3fe608060405234801561001057600080fd5b50600436106101495760003560e01c806301e1d1141461014e57806306fdde031461016957806307a2d13a1461017e578063095ea7b3146101915780630a28a477146101b45780630b509007146101c757806318160ddd146101d157806323b872dd146101d95780632864d070146101c7578063313ce567146101ec57806338d52e0f14610206578063402d267d146102345780634cdad5061461017e5780636e553f651461024757806370a082311461025a57806394bf804d1461026d57806395d89b4114610280578063a9059cbb14610288578063b3d7f6b91461029b578063b460af94146102ae578063ba087652146102c1578063c63d75b614610234578063c6e6f592146102d4578063ce96cb77146102e7578063d905777e146102fa578063dd62ed3e1461030d578063ef8b30f7146102d4575b600080fd5b610156610320565b6040519081526020015b60405180910390f35b6101716103b5565b6040516101609190610fed565b61015661018c366004611020565b610447565b6101a461019f366004611055565b61045a565b6040519015158152602001610160565b6101566101c2366004611020565b610472565b6101cf61047f565b005b600254610156565b6101a46101e736600461107f565b6104ac565b6101f46104d2565b60405160ff9091168152602001610160565b7f000000000000000000000000000000000000000000000000000000000000000060405161016091906110bb565b6101566102423660046110cf565b6104ff565b6101566102553660046110ea565b610506565b6101566102683660046110cf565b61053e565b61015661027b3660046110ea565b610559565b610171610591565b6101a4610296366004611055565b6105a0565b6101566102a9366004611020565b6105ae565b6101566102bc366004611116565b6105bb565b6101566102cf366004611116565b6105fc565b6101566102e2366004611020565b610635565b6101566102f53660046110cf565b610642565b6101566103083660046110cf565b610657565b61015661031b366004611152565b610662565b6040516370a0823160e01b81526000906001600160a01b037f000000000000000000000000000000000000000000000000000000000000000016906370a082319061036f9030906004016110bb565b602060405180830381865afa15801561038c573d6000803e3d6000fd5b505050506040513d601f19601f820116820180604052508101906103b0919061117c565b905090565b6060600380546103c490611195565b80601f01602080910402602001604051908101604052809291908181526020018280546103f090611195565b801561043d5780601f106104125761010080835404028352916020019161043d565b820191906000526020600020905b81548152906001019060200180831161042057829003601f168201915b5050505050905090565b600061045482600061068d565b92915050565b6000336104688185856106c7565b5060019392505050565b60006104548260016106d9565b6005546001600160a01b031633146104aa57604051636d5ab9d360e01b815260040160405180910390fd5b565b6000336104ba85828561070a565b6104c5858585610766565b60019150505b9392505050565b60006103b060087f00000000000000000000000000000000000000000000000000000000000000006111e5565b5060001990565b6005546000906001600160a01b0316331461053457604051636d5ab9d360e01b815260040160405180910390fd5b6104cb83836107c5565b6001600160a01b031660009081526020819052604090205490565b6005546000906001600160a01b0316331461058757604051636d5ab9d360e01b815260040160405180910390fd5b6104cb8383610813565b6060600480546103c490611195565b600033610468818585610766565b600061045482600161068d565b6005546000906001600160a01b031633146105e957604051636d5ab9d360e01b815260040160405180910390fd5b6105f4848484610861565b949350505050565b6005546000906001600160a01b0316331461062a57604051636d5ab9d360e01b815260040160405180910390fd5b6105f48484846108b9565b60006104548260006106d9565b60006104546106508361053e565b600061068d565b60006104548261053e565b6001600160a01b03918216600090815260016020908152604080832093909416825291909152205490565b60006104cb61069a610320565b6106a59060016111fe565b6106b16008600a6112f5565b6002546106be91906111fe565b85919085610908565b6106d48383836001610957565b505050565b60006104cb6106ea6008600a6112f5565b6002546106f791906111fe565b6106ff610320565b6106be9060016111fe565b60006107168484610662565b90506000198114610760578181101561075157828183604051637dc7a0d960e11b815260040161074893929190611304565b60405180910390fd5b61076084848484036000610957565b50505050565b6001600160a01b038316610790576000604051634b637e8f60e11b815260040161074891906110bb565b6001600160a01b0382166107ba57600060405163ec442f0560e01b815260040161074891906110bb565b6106d4838383610a2c565b6000806107d1836104ff565b9050808411156107fa57828482604051633c8097d960e11b815260040161074893929190611304565b600061080585610635565b90506105f433858784610b43565b60008061081f836104ff565b9050808411156108485782848260405163284ff66760e01b815260040161074893929190611304565b6000610853856105ae565b90506105f433858388610b43565b60008061086d83610642565b90508085111561089657828582604051633fa733bb60e21b815260040161074893929190611304565b60006108a186610472565b90506108b03386868985610bc7565b95945050505050565b6000806108c583610657565b9050808511156108ee57828582604051632e52afbb60e21b815260040161074893929190611304565b60006108f986610447565b90506108b0338686848a610bc7565b600080610916868686610c87565b905061092183610d4b565b801561093d57506000848061093857610938611325565b868809115b156108b05761094d6001826111fe565b9695505050505050565b6001600160a01b03841661098157600060405163e602df0560e01b815260040161074891906110bb565b6001600160a01b0383166109ab576000604051634a1406b160e11b815260040161074891906110bb565b6001600160a01b038085166000908152600160209081526040808320938716835292905220829055801561076057826001600160a01b0316846001600160a01b03167f8c5be1e5ebec7d5bd14f71427d1e84f3dd0314c0f7b2291e5b200ac8c7c3b92584604051610a1e91815260200190565b60405180910390a350505050565b6001600160a01b038316610a57578060026000828254610a4c91906111fe565b90915550610ab69050565b6001600160a01b03831660009081526020819052604090205481811015610a975783818360405163391434e360e21b815260040161074893929190611304565b6001600160a01b03841660009081526020819052604090209082900390555b6001600160a01b038216610ad257600280548290039055610af1565b6001600160a01b03821660009081526020819052604090208054820190555b816001600160a01b0316836001600160a01b03167fddf252ad1be2c89b69c2b068fc378daa952ba7f163c4a11628f55a4df523b3ef83604051610b3691815260200190565b60405180910390a3505050565b610b6f7f0000000000000000000000000000000000000000000000000000000000000000853085610d78565b610b798382610ddf565b826001600160a01b0316846001600160a01b03167fdcbc1c05240f31ff3ad067ef1ee35ce4997762752e3a095284754544f4c709d78484604051610a1e929190918252602082015260400190565b826001600160a01b0316856001600160a01b031614610beb57610beb83868361070a565b610bf58382610e19565b610c207f00000000000000000000000000000000000000000000000000000000000000008584610e4f565b826001600160a01b0316846001600160a01b0316866001600160a01b03167ffbde797d201c681b91056529119e0b02407c7bb96a4a2c75c01fc9667232c8db8585604051610c78929190918252602082015260400190565b60405180910390a45050505050565b6000838302816000198587098281108382030391505080600003610cbe57838281610cb457610cb4611325565b04925050506104cb565b808411610cde5760405163227bc15360e01b815260040160405180910390fd5b6000848688096000868103871696879004966002600389028118808a02820302808a02820302808a02820302808a02820302808a02820302808a02909103029181900381900460010186841190950394909402919094039290920491909117919091029150509392505050565b60006002826003811115610d6157610d6161133b565b610d6b9190611351565b60ff166001149050919050565b6040516001600160a01b0384811660248301528381166044830152606482018390526107609186918216906323b872dd906084015b604051602081830303815290604052915060e01b6020820180516001600160e01b038381831617835250505050610e80565b6001600160a01b038216610e0957600060405163ec442f0560e01b815260040161074891906110bb565b610e1560008383610a2c565b5050565b6001600160a01b038216610e43576000604051634b637e8f60e11b815260040161074891906110bb565b610e1582600083610a2c565b6040516001600160a01b038381166024830152604482018390526106d491859182169063a9059cbb90606401610dad565b6000610e956001600160a01b03841683610eda565b90508051600014158015610eba575080806020019051810190610eb89190611381565b155b156106d45782604051635274afe760e01b815260040161074891906110bb565b60606104cb8383600084600080856001600160a01b03168486604051610f0091906113a3565b60006040518083038185875af1925050503d8060008114610f3d576040519150601f19603f3d011682016040523d82523d6000602084013e610f42565b606091505b509150915061094d868383606082610f6257610f5d82610fa0565b6104cb565b8151158015610f7957506001600160a01b0384163b155b15610f995783604051639996b31560e01b815260040161074891906110bb565b50806104cb565b805115610fb05780518082602001fd5b604051630a12f52160e11b815260040160405180910390fd5b60005b83811015610fe4578181015183820152602001610fcc565b50506000910152565b602081526000825180602084015261100c816040850160208701610fc9565b601f01601f19169190910160400192915050565b60006020828403121561103257600080fd5b5035919050565b80356001600160a01b038116811461105057600080fd5b919050565b6000806040838503121561106857600080fd5b61107183611039565b946020939093013593505050565b60008060006060848603121561109457600080fd5b61109d84611039565b92506110ab60208501611039565b9150604084013590509250925092565b6001600160a01b0391909116815260200190565b6000602082840312156110e157600080fd5b6104cb82611039565b600080604083850312156110fd57600080fd5b8235915061110d60208401611039565b90509250929050565b60008060006060848603121561112b57600080fd5b8335925061113b60208501611039565b915061114960408501611039565b90509250925092565b6000806040838503121561116557600080fd5b61116e83611039565b915061110d60208401611039565b60006020828403121561118e57600080fd5b5051919050565b600181811c908216806111a957607f821691505b6020821081036111c957634e487b7160e01b600052602260045260246000fd5b50919050565b634e487b7160e01b600052601160045260246000fd5b60ff8181168382160190811115610454576104546111cf565b80820180821115610454576104546111cf565b600181815b8085111561124c578160001904821115611232576112326111cf565b8085161561123f57918102915b93841c9390800290611216565b509250929050565b60008261126357506001610454565b8161127057506000610454565b81600181146112865760028114611290576112ac565b6001915050610454565b60ff8411156112a1576112a16111cf565b50506001821b610454565b5060208310610133831016604e8410600b84101617156112cf575081810a610454565b6112d98383611211565b80600019048211156112ed576112ed6111cf565b029392505050565b60006104cb60ff841683611254565b6001600160a01b039390931683526020830191909152604082015260600190565b634e487b7160e01b600052601260045260246000fd5b634e487b7160e01b600052602160045260246000fd5b600060ff83168061137257634e487b7160e01b600052601260045260246000fd5b8060ff84160691505092915050565b60006020828403121561139357600080fd5b815180151581146104cb57600080fd5b600082516113b5818460208701610fc9565b919091019291505056fea26469706673582212207d0b355d1ca9c88fef3811c79f86c4633218866e388f14373630fc969ebdd7c664736f6c634300081500335548c837ab068cf56a2c2479df0882a4922fd203edb7517321831d95078c5f62a2646970667358221220a3c6e2e67eae5161ead915e5fa109782dfc57a7156bcd48d94a7d5f33c7b151a64736f6c63430008150033",
  "devdoc": {
    "author": "Quantum3 Labs",
    "errors": {
      "InvalidInitialization()": [
        {
          "details": "The contract is already initialized."
        }
      ],
      "NotInitializing()": [
        {
          "details": "The contract is not initializing."
        }
      ]
    },
    "events": {
      "Initialized(uint64)": {
        "details": "Triggered when the contract has been initialized or reinitialized."
      },
      "Withdraw(address,address,uint256,uint256)": {
        "details": "note that withdraw event uses assets instead of shares"
      }
    },
    "kind": "dev",
    "methods": {
      "addToken(address)": {
        "details": "allow governor to add a new token",
        "params": {
          "token": "address of the token"
        }
      },
      "borrowerWithdraw(address,address,uint256)": {
        "details": "call by lending manager, use for execute loan, redeem shares for borrower"
      },
      "convertToAssets(address,uint256)": {
        "details": "convert shares to assets based on the vault"
      },
      "convertToShares(address,uint256)": {
        "details": "convert assets to shares based on the vault"
      },
      "deposit(address,uint256)": {
        "details": "allow depositor deposit assets to the vault",
        "params": {
          "assets": "amount of assets to deposit",
          "token": "address of the token"
        }
      },
      "depositFrom(address,uint256,address,address)": {
        "details": "same function as deposit, but allow user to deposit on behalf of another user"
      },
      "getUserShares(address,address)": {
        "details": "get user shares on specific vault"
      },
      "getVaultToken(address)": {
        "details": "get vault token  address"
      },
      "initialize(address,address)": {
        "details": "used to initialize loan and lend manager address",
        "params": {
          "lendingManagerAddr": "address of the lending manager",
          "loanManagerAddr": "address of the loan manager"
        }
      },
      "isTokenSupported(address)": {
        "details": "check if token is supported",
        "params": {
          "token": "address of the token"
        }
      },
      "removeToken(address)": {
        "details": "allow governor to remove the support of a token",
        "params": {
          "token": "address of the token"
        }
      },
      "withdraw(address,uint256)": {
        "details": "note that we dont require the token to be whitelisted"
      }
    },
    "title": "Stormbit Asset Manager",
    "version": 1
  },
  "userdoc": {
    "kind": "user",
    "methods": {},
    "notice": "entrypoint for all asset management operations",
    "version": 1
  },
  "storageLayout": {
    "storage": [
      {
        "astId": 3563,
        "contract": "contracts/AssetManager.sol:StormbitAssetManager",
        "label": "_governor",
        "offset": 0,
        "slot": "0",
        "type": "t_address"
      },
      {
        "astId": 3566,
        "contract": "contracts/AssetManager.sol:StormbitAssetManager",
        "label": "loanManager",
        "offset": 0,
        "slot": "1",
        "type": "t_contract(ILoanManager)7179"
      },
      {
        "astId": 3569,
        "contract": "contracts/AssetManager.sol:StormbitAssetManager",
        "label": "lendingManager",
        "offset": 0,
        "slot": "2",
        "type": "t_contract(ILendingManager)6878"
      },
      {
        "astId": 3573,
        "contract": "contracts/AssetManager.sol:StormbitAssetManager",
        "label": "tokens",
        "offset": 0,
        "slot": "3",
        "type": "t_mapping(t_address,t_bool)"
      },
      {
        "astId": 3577,
        "contract": "contracts/AssetManager.sol:StormbitAssetManager",
        "label": "vaultTokens",
        "offset": 0,
        "slot": "4",
        "type": "t_mapping(t_address,t_address)"
      }
    ],
    "types": {
      "t_address": {
        "encoding": "inplace",
        "label": "address",
        "numberOfBytes": "20"
      },
      "t_bool": {
        "encoding": "inplace",
        "label": "bool",
        "numberOfBytes": "1"
      },
      "t_contract(ILendingManager)6878": {
        "encoding": "inplace",
        "label": "contract ILendingManager",
        "numberOfBytes": "20"
      },
      "t_contract(ILoanManager)7179": {
        "encoding": "inplace",
        "label": "contract ILoanManager",
        "numberOfBytes": "20"
      },
      "t_mapping(t_address,t_address)": {
        "encoding": "mapping",
        "key": "t_address",
        "label": "mapping(address => address)",
        "numberOfBytes": "32",
        "value": "t_address"
      },
      "t_mapping(t_address,t_bool)": {
        "encoding": "mapping",
        "key": "t_address",
        "label": "mapping(address => bool)",
        "numberOfBytes": "32",
        "value": "t_bool"
      }
    }
  }
}