{
  "address": "0x78102e9277437E2Aecf31cC0C141e952CEAd6f5B",
  "abi": [
    {
      "inputs": [
        {
          "internalType": "address",
          "name": "initialGovernor",
          "type": "address"
        }
      ],
      "stateMutability": "nonpayable",
      "type": "constructor"
    },
    {
      "inputs": [],
      "name": "InvalidInitialization",
      "type": "error"
    },
    {
      "inputs": [],
      "name": "NotInitializing",
      "type": "error"
    },
    {
      "anonymous": false,
      "inputs": [
        {
          "indexed": true,
          "internalType": "uint256",
          "name": "loanId",
          "type": "uint256"
        },
        {
          "indexed": true,
          "internalType": "uint256",
          "name": "termId",
          "type": "uint256"
        },
        {
          "indexed": false,
          "internalType": "uint256",
          "name": "assets",
          "type": "uint256"
        }
      ],
      "name": "AllocatedTermAndFundOnLoan",
      "type": "event"
    },
    {
      "anonymous": false,
      "inputs": [
        {
          "indexed": true,
          "internalType": "uint256",
          "name": "termId",
          "type": "uint256"
        },
        {
          "indexed": true,
          "internalType": "uint256",
          "name": "loanId",
          "type": "uint256"
        },
        {
          "indexed": true,
          "internalType": "address",
          "name": "token",
          "type": "address"
        },
        {
          "indexed": false,
          "internalType": "uint256",
          "name": "profit",
          "type": "uint256"
        }
      ],
      "name": "ClaimLoanProfit",
      "type": "event"
    },
    {
      "anonymous": false,
      "inputs": [
        {
          "indexed": false,
          "internalType": "uint64",
          "name": "version",
          "type": "uint64"
        }
      ],
      "name": "Initialized",
      "type": "event"
    },
    {
      "anonymous": false,
      "inputs": [
        {
          "indexed": true,
          "internalType": "uint256",
          "name": "loanId",
          "type": "uint256"
        },
        {
          "indexed": true,
          "internalType": "address",
          "name": "borrower",
          "type": "address"
        },
        {
          "indexed": true,
          "internalType": "address",
          "name": "token",
          "type": "address"
        },
        {
          "indexed": false,
          "internalType": "uint256",
          "name": "repayAssets",
          "type": "uint256"
        }
      ],
      "name": "LoanExecuted",
      "type": "event"
    },
    {
      "anonymous": false,
      "inputs": [
        {
          "indexed": true,
          "internalType": "uint256",
          "name": "loanId",
          "type": "uint256"
        },
        {
          "indexed": true,
          "internalType": "address",
          "name": "repayUser",
          "type": "address"
        }
      ],
      "name": "LoanRepaid",
      "type": "event"
    },
    {
      "anonymous": false,
      "inputs": [
        {
          "indexed": true,
          "internalType": "uint256",
          "name": "loanId",
          "type": "uint256"
        },
        {
          "indexed": true,
          "internalType": "address",
          "name": "borrower",
          "type": "address"
        },
        {
          "indexed": true,
          "internalType": "address",
          "name": "token",
          "type": "address"
        },
        {
          "indexed": false,
          "internalType": "uint256",
          "name": "assets",
          "type": "uint256"
        }
      ],
      "name": "LoanRequested",
      "type": "event"
    },
    {
      "inputs": [],
      "name": "BASIS_POINTS",
      "outputs": [
        {
          "internalType": "uint16",
          "name": "",
          "type": "uint16"
        }
      ],
      "stateMutability": "view",
      "type": "function"
    },
    {
      "inputs": [
        {
          "internalType": "uint256",
          "name": "loanId",
          "type": "uint256"
        },
        {
          "internalType": "uint256",
          "name": "termId",
          "type": "uint256"
        },
        {
          "internalType": "uint256",
          "name": "assets",
          "type": "uint256"
        }
      ],
      "name": "allocateTermAndFundOnLoan",
      "outputs": [],
      "stateMutability": "nonpayable",
      "type": "function"
    },
    {
      "inputs": [],
      "name": "assetManager",
      "outputs": [
        {
          "internalType": "contract IAssetManager",
          "name": "",
          "type": "address"
        }
      ],
      "stateMutability": "view",
      "type": "function"
    },
    {
      "inputs": [
        {
          "internalType": "uint256",
          "name": "termId",
          "type": "uint256"
        },
        {
          "internalType": "uint256",
          "name": "loanId",
          "type": "uint256"
        }
      ],
      "name": "claimLoanProfit",
      "outputs": [],
      "stateMutability": "nonpayable",
      "type": "function"
    },
    {
      "inputs": [
        {
          "internalType": "uint256",
          "name": "loanId",
          "type": "uint256"
        }
      ],
      "name": "executeLoan",
      "outputs": [],
      "stateMutability": "nonpayable",
      "type": "function"
    },
    {
      "inputs": [
        {
          "internalType": "uint256",
          "name": "loanId",
          "type": "uint256"
        }
      ],
      "name": "getLoan",
      "outputs": [
        {
          "components": [
            {
              "internalType": "address",
              "name": "borrower",
              "type": "address"
            },
            {
              "internalType": "address",
              "name": "token",
              "type": "address"
            },
            {
              "internalType": "uint256",
              "name": "repayAssets",
              "type": "uint256"
            },
            {
              "internalType": "uint256",
              "name": "assetsRequired",
              "type": "uint256"
            },
            {
              "internalType": "uint256",
              "name": "assetsAllocated",
              "type": "uint256"
            },
            {
              "internalType": "uint256",
              "name": "sharesAllocated",
              "type": "uint256"
            },
            {
              "internalType": "uint256",
              "name": "deadlineAllocate",
              "type": "uint256"
            },
            {
              "internalType": "enum ILoanManager.LoanStatus",
              "name": "status",
              "type": "uint8"
            }
          ],
          "internalType": "struct ILoanManager.Loan",
          "name": "",
          "type": "tuple"
        }
      ],
      "stateMutability": "view",
      "type": "function"
    },
    {
      "inputs": [
        {
          "internalType": "uint256",
          "name": "loanId",
          "type": "uint256"
        },
        {
          "internalType": "uint256",
          "name": "termId",
          "type": "uint256"
        }
      ],
      "name": "getLoanTermAllocated",
      "outputs": [
        {
          "internalType": "bool",
          "name": "",
          "type": "bool"
        }
      ],
      "stateMutability": "view",
      "type": "function"
    },
    {
      "inputs": [
        {
          "internalType": "uint256",
          "name": "loanId",
          "type": "uint256"
        },
        {
          "internalType": "uint256",
          "name": "termId",
          "type": "uint256"
        },
        {
          "internalType": "address",
          "name": "token",
          "type": "address"
        }
      ],
      "name": "getTermAllocatedSharesOnLoan",
      "outputs": [
        {
          "internalType": "uint256",
          "name": "",
          "type": "uint256"
        }
      ],
      "stateMutability": "view",
      "type": "function"
    },
    {
      "inputs": [
        {
          "internalType": "uint256",
          "name": "termId",
          "type": "uint256"
        }
      ],
      "name": "getTermLoanAllocatedCounter",
      "outputs": [
        {
          "internalType": "uint256",
          "name": "",
          "type": "uint256"
        }
      ],
      "stateMutability": "view",
      "type": "function"
    },
    {
      "inputs": [],
      "name": "governor",
      "outputs": [
        {
          "internalType": "address",
          "name": "",
          "type": "address"
        }
      ],
      "stateMutability": "view",
      "type": "function"
    },
    {
      "inputs": [
        {
          "internalType": "address",
          "name": "assetManagerAddr",
          "type": "address"
        },
        {
          "internalType": "address",
          "name": "lendingManagerAddr",
          "type": "address"
        }
      ],
      "name": "initialize",
      "outputs": [],
      "stateMutability": "nonpayable",
      "type": "function"
    },
    {
      "inputs": [
        {
          "internalType": "uint256",
          "name": "termId",
          "type": "uint256"
        },
        {
          "internalType": "uint256",
          "name": "loanId",
          "type": "uint256"
        },
        {
          "internalType": "address",
          "name": "vaultToken",
          "type": "address"
        }
      ],
      "name": "lenderClaimedProfit",
      "outputs": [
        {
          "internalType": "bool",
          "name": "",
          "type": "bool"
        }
      ],
      "stateMutability": "view",
      "type": "function"
    },
    {
      "inputs": [],
      "name": "lendingManager",
      "outputs": [
        {
          "internalType": "contract ILendingManager",
          "name": "",
          "type": "address"
        }
      ],
      "stateMutability": "view",
      "type": "function"
    },
    {
      "inputs": [
        {
          "internalType": "uint256",
          "name": "loanId",
          "type": "uint256"
        },
        {
          "internalType": "uint256",
          "name": "termId",
          "type": "uint256"
        }
      ],
      "name": "loanTermAllocated",
      "outputs": [
        {
          "internalType": "bool",
          "name": "isAllocated",
          "type": "bool"
        }
      ],
      "stateMutability": "view",
      "type": "function"
    },
    {
      "inputs": [
        {
          "internalType": "uint256",
          "name": "loanId",
          "type": "uint256"
        }
      ],
      "name": "loans",
      "outputs": [
        {
          "internalType": "address",
          "name": "borrower",
          "type": "address"
        },
        {
          "internalType": "address",
          "name": "token",
          "type": "address"
        },
        {
          "internalType": "uint256",
          "name": "repayAssets",
          "type": "uint256"
        },
        {
          "internalType": "uint256",
          "name": "assetsRequired",
          "type": "uint256"
        },
        {
          "internalType": "uint256",
          "name": "assetsAllocated",
          "type": "uint256"
        },
        {
          "internalType": "uint256",
          "name": "sharesAllocated",
          "type": "uint256"
        },
        {
          "internalType": "uint256",
          "name": "deadlineAllocate",
          "type": "uint256"
        },
        {
          "internalType": "enum ILoanManager.LoanStatus",
          "name": "status",
          "type": "uint8"
        }
      ],
      "stateMutability": "view",
      "type": "function"
    },
    {
      "inputs": [
        {
          "internalType": "uint256",
          "name": "loanId",
          "type": "uint256"
        }
      ],
      "name": "repay",
      "outputs": [],
      "stateMutability": "nonpayable",
      "type": "function"
    },
    {
      "inputs": [
        {
          "internalType": "address",
          "name": "token",
          "type": "address"
        },
        {
          "internalType": "uint256",
          "name": "assets",
          "type": "uint256"
        },
        {
          "internalType": "uint256",
          "name": "deadline",
          "type": "uint256"
        }
      ],
      "name": "requestLoan",
      "outputs": [
        {
          "internalType": "uint256",
          "name": "",
          "type": "uint256"
        }
      ],
      "stateMutability": "nonpayable",
      "type": "function"
    },
    {
      "inputs": [
        {
          "internalType": "uint256",
          "name": "loanId",
          "type": "uint256"
        },
        {
          "internalType": "uint256",
          "name": "termId",
          "type": "uint256"
        },
        {
          "internalType": "address",
          "name": "vaultToken",
          "type": "address"
        }
      ],
      "name": "termAllocatedShares",
      "outputs": [
        {
          "internalType": "uint256",
          "name": "shares",
          "type": "uint256"
        }
      ],
      "stateMutability": "view",
      "type": "function"
    },
    {
      "inputs": [
        {
          "internalType": "address",
          "name": "user",
          "type": "address"
        }
      ],
      "name": "userLoanNonce",
      "outputs": [
        {
          "internalType": "uint256",
          "name": "counter",
          "type": "uint256"
        }
      ],
      "stateMutability": "view",
      "type": "function"
    }
  ],
  "transactionHash": "0xa13726b5b1340235fac7bb59fe9c50aeab32610641e2a6b470592d80a496e038",
  "args": [
    "0xDe3089d40F3491De794fBb1ECA109fAc36F889d0"
  ],
  "numDeployments": 1,
  "solcInputHash": "fc88f2785a8cc64f484af0517b95c10f",
  "bytecode": "0x608060405234801561001057600080fd5b5060405161203438038061203483398101604081905261002f91610054565b600080546001600160a01b0319166001600160a01b0392909216919091179055610084565b60006020828403121561006657600080fd5b81516001600160a01b038116811461007d57600080fd5b9392505050565b611fa1806100936000396000f3fe608060405234801561001057600080fd5b50600436106100f15760003560e01c80630c340a24146100f6578063371fd8e6146101195780633abde1b71461012e57806342edaecf1461016c578063485cc9551461019a578063504006ca146101ad5780635b8d3424146101cd5780635c01f3731461020157806360fe6197146102145780636f77ff551461023457806370e92c2f14610247578063780b23741461025a57806394217ad11461028b578063979823d21461029e5780639e3b77af146102b1578063a63251a0146102c4578063d1434ed8146102d7578063e1ec3c68146102ea578063e1f1c4a71461035f575b600080fd5b6000546001600160a01b03165b6040516101109190611b02565b60405180910390f35b61012c610127366004611b16565b61037b565b005b61015c61013c366004611b2f565b600660209081526000928352604080842090915290825290205460ff1681565b6040519015158152602001610110565b61018c61017a366004611b16565b60009081526007602052604090205490565b604051908152602001610110565b61012c6101a8366004611b69565b610587565b6101c06101bb366004611b16565b6106bc565b6040516101109190611bda565b61015c6101db366004611c48565b600860209081526000938452604080852082529284528284209052825290205460ff1681565b61012c61020f366004611b2f565b610769565b61018c610222366004611c81565b60016020526000908152604090205481565b61018c610242366004611ca5565b610d95565b61012c610255366004611b16565b61103f565b61018c610268366004611c48565b600560209081526000938452604080852082529284528284209052825290205481565b600354610103906001600160a01b031681565b61012c6102ac366004611cda565b6113b6565b600254610103906001600160a01b031681565b61018c6102d2366004611c48565b6119b2565b61015c6102e5366004611b2f565b611a5a565b61034b6102f8366004611b16565b6004602081905260009182526040909120805460018201546002830154600384015494840154600585015460068601546007909601546001600160a01b0395861697949095169592949192909160ff1688565b604051610110989796959493929190611d06565b61036861271081565b60405161ffff9091168152602001610110565b61038481611a7e565b6103a95760405162461bcd60e51b81526004016103a090611d5c565b60405180910390fd5b600081815260046020818152604080842081516101008101835281546001600160a01b039081168252600183015416938101939093526002810154918301919091526003808201546060840152928101546080830152600581015460a0830152600681015460c083015260078101549192909160e084019160ff9091169081111561043657610436611ba2565b600381111561044757610447611ba2565b905250905060018160e00151600381111561046457610464611ba2565b146104bd5760405162461bcd60e51b8152602060048201526024808201527f53746f726d6269744c6f616e4d616e616765723a206c6f616e206e6f742061636044820152637469766560e01b60648201526084016103a0565b60035460208201516040808401516002549151632ab5c0a560e01b81526001600160a01b03938416600482015260248101919091523360448201529082166064820152911690632ab5c0a590608401600060405180830381600087803b15801561052657600080fd5b505af115801561053a573d6000803e3d6000fd5b505050600083815260046020526040808220600701805460ff191660021790555133925084917fe69d7686a8bc68278b8c5419579f91716b3ef2ac2fac0d8cf80b8011f8f458a491a35050565b7ff0c57e16840df040f15088dc2f81fe391c3923bec73e23a9662efc9c229c6a008054600160401b810460ff1615906001600160401b03166000811580156105cc5750825b90506000826001600160401b031660011480156105e85750303b155b9050811580156105f6575080155b156106145760405163f92ee8a960e01b815260040160405180910390fd5b84546001600160401b0319166001178555831561063d57845460ff60401b1916600160401b1785555b600380546001600160a01b03808a166001600160a01b031992831617909255600280549289169290911691909117905583156106b357845460ff60401b19168555604051600181527fc7f505b2f371ae2175ee4913f4499e1f2633a7b5936321eed1cdaeb6115181d29060200160405180910390a15b50505050505050565b6106c4611a9b565b60008281526004602081815260409283902083516101008101855281546001600160a01b039081168252600183015416928101929092526002810154938201939093526003808401546060830152918301546080820152600583015460a0820152600683015460c0820152600783015490929160e084019160ff169081111561074f5761074f611ba2565b600381111561076057610760611ba2565b90525092915050565b600081815260046020818152604080842081516101008101835281546001600160a01b039081168252600183015416938101939093526002810154918301919091526003808201546060840152928101546080830152600581015460a0830152600681015460c083015260078101549192909160e084019160ff909116908111156107f6576107f6611ba2565b600381111561080757610807611ba2565b9052506003546020820151604051639dc6108f60e01b81529293506000926001600160a01b0390921691639dc6108f9161084391600401611b02565b602060405180830381865afa158015610860573d6000803e3d6000fd5b505050506040513d601f19601f820116820180604052508101906108849190611d9d565b600085815260086020908152604080832087845282528083206001600160a01b038516845290915290205490915060ff16156109195760405162461bcd60e51b815260206004820152602e60248201527f53746f726d6269744c656e64696e674d616e616765723a2070726f666974206160448201526d1b1c9958591e4818db185a5b595960921b60648201526084016103a0565b60028260e00151600381111561093157610931611ba2565b1461098e5760405162461bcd60e51b815260206004820152602760248201527f53746f726d6269744c656e64696e674d616e616765723a206c6f616e206e6f74604482015266081c995c185a5960ca1b60648201526084016103a0565b600083815260056020908152604080832087845282528083206001600160a01b038516845290915290205480610a215760405162461bcd60e51b815260206004820152603260248201527f53746f726d6269744c656e64696e674d616e616765723a207465726d206e6f746044820152711030b63637b1b0ba32b21037b7103637b0b760711b60648201526084016103a0565b6002546040516384a9dc1360e01b8152600481018790526000916001600160a01b0316906384a9dc13906024016060604051808303816000875af1158015610a6d573d6000803e3d6000fd5b505050506040513d601f19601f82011682018060405250810190610a919190611dba565b60035460208601516040808801519051633e5541f160e01b81529394506000936001600160a01b0390931692633e5541f192610ad1929091600401611e30565b602060405180830381865afa158015610aee573d6000803e3d6000fd5b505050506040513d601f19601f82011682018060405250810190610b129190611e49565b60035460208701516060880151604051633e5541f160e01b81529394506000936001600160a01b0390931692633e5541f192610b52929091600401611e30565b602060405180830381865afa158015610b6f573d6000803e3d6000fd5b505050506040513d601f19601f82011682018060405250810190610b939190611e49565b90506000610ba18284611e78565b9050600082610bb261271088611e8b565b610bbc9190611ea2565b90506000612710610bcd8385611e8b565b610bd79190611ea2565b9050600061271061ffff16876020015183610bf29190611e8b565b610bfc9190611ea2565b90506000610c0a8284611e78565b9050600260009054906101000a90046001600160a01b03166001600160a01b031663760841c38e8d60200151848d876040518663ffffffff1660e01b8152600401610c809594939291909485526001600160a01b0393909316602085015260408401919091526060830152608082015260a00190565b600060405180830381600087803b158015610c9a57600080fd5b505af1158015610cae573d6000803e3d6000fd5b505050506001600860008f815260200190815260200160002060008e815260200190815260200160002060008c6001600160a01b03166001600160a01b0316815260200190815260200160002060006101000a81548160ff0219169083151502179055506001600760008f81526020019081526020016000206000828254610d369190611e78565b925050819055508a602001516001600160a01b03168c8e7fa8e4beb0b4ddc5be1810bccfe0b9f2c61ca4f659478a69c005abf7d7aa22e67d85604051610d7e91815260200190565b60405180910390a450505050505050505050505050565b6003546040516375151b6360e01b81526000916001600160a01b0316906375151b6390610dc6908790600401611b02565b602060405180830381865afa158015610de3573d6000803e3d6000fd5b505050506040513d601f19601f82011682018060405250810190610e079190611ec4565b610e645760405162461bcd60e51b815260206004820152602860248201527f53746f726d6269744c6f616e4d616e616765723a20746f6b656e206e6f7420736044820152671d5c1c1bdc9d195960c21b60648201526084016103a0565b3360008181526001602090815260408083205490519093610e89929091859101611e30565b60408051601f1981840301815291905280516020909101209050610eae600183611ee6565b336000908152600160205260408120829055909250612710610ed2876101f4611e8b565b610edc9190611ea2565b610ee69087611ee6565b9050604051806101000160405280336001600160a01b03168152602001886001600160a01b03168152602001828152602001878152602001600081526020016000815260200186815260200160006003811115610f4557610f45611ba2565b9052600083815260046020818152604092839020845181546001600160a01b039182166001600160a01b031991821617835592860151600180840180549290931691909416179055928401516002840155606084015160038085019190915560808501519284019290925560a0840151600584015560c0840151600684015560e08401516007840180549193909260ff1990921691908490811115610fec57610fec611ba2565b0217905550506040518781526001600160a01b0389169150339084907fdc60aa6fe6ea1316bf5acc811851e823e68d2aa48e0b9e4ecc3650b38b9303f69060200160405180910390a45095945050505050565b60008181526004602052604090205481906001600160a01b031633146110b15760405162461bcd60e51b815260206004820152602160248201527f53746f726d6269744c6f616e4d616e616765723a206e6f7420626f72726f77656044820152603960f91b60648201526084016103a0565b600082815260046020818152604080842081516101008101835281546001600160a01b039081168252600183015416938101939093526002810154918301919091526003808201546060840152928101546080830152600581015460a0830152600681015460c083015260078101549192909160e084019160ff9091169081111561113e5761113e611ba2565b600381111561114f5761114f611ba2565b905250905061115d83611a7e565b6111795760405162461bcd60e51b81526004016103a090611d5c565b60008160e00151600381111561119157611191611ba2565b146111ec5760405162461bcd60e51b815260206004820152602560248201527f53746f726d6269744c6f616e4d616e616765723a206c6f616e206e6f742070656044820152646e64696e6760d81b60648201526084016103a0565b8060600151816080015110156112595760405162461bcd60e51b815260206004820152602c60248201527f53746f726d6269744c6f616e4d616e616765723a20696e73756666696369656e60448201526b3a1030b63637b1b0ba34b7b760a11b60648201526084016103a0565b8060c001514210156112be5760405162461bcd60e51b815260206004820152602860248201527f53746f726d6269744c6f616e4d616e616765723a20646561646c696e65206e6f6044820152671d081c185cdcd95960c21b60648201526084016103a0565b600083815260046020526040902060070180546001919060ff191682800217905550600254815160208301516060840151604051636b4ee7f360e01b81526001600160a01b03938416600482015291831660248301526044820152911690636b4ee7f390606401600060405180830381600087803b15801561133f57600080fd5b505af1158015611353573d6000803e3d6000fd5b5050505080602001516001600160a01b031681600001516001600160a01b0316847f535138fec577605910559ceaf871d86125897e3bf1a488a722ffd910f68065d084604001516040516113a991815260200190565b60405180910390a4505050565b6002546040516384a9dc1360e01b81526004810184905283916000916001600160a01b03909116906384a9dc13906024016060604051808303816000875af1158015611406573d6000803e3d6000fd5b505050506040513d601f19601f8201168201806040525081019061142a9190611dba565b5190506001600160a01b03811633146114945760405162461bcd60e51b815260206004820152602660248201527f53746f726d6269744c656e64696e674d616e616765723a206e6f74207465726d6044820152651037bbb732b960d11b60648201526084016103a0565b600085815260046020818152604080842081516101008101835281546001600160a01b039081168252600183015416938101939093526002810154918301919091526003808201546060840152928101546080830152600581015460a0830152600681015460c083015260078101549192909160e084019160ff9091169081111561152157611521611ba2565b600381111561153257611532611ba2565b905250905061154086611a7e565b61155c5760405162461bcd60e51b81526004016103a090611d5c565b8060c00151421061157f5760405162461bcd60e51b81526004016103a090611ef9565b60008681526004602052604090206006015442106115af5760405162461bcd60e51b81526004016103a090611ef9565b600086815260066020908152604080832088845290915290205460ff166116155760008681526006602090815260408083208884528252808320805460ff191660019081179091556007909252822080549192909161160f908490611ee6565b90915550505b6020810151600354604051639dc6108f60e01b81526000916001600160a01b031690639dc6108f9061164b908590600401611b02565b602060405180830381865afa158015611668573d6000803e3d6000fd5b505050506040513d601f19601f8201168201806040525081019061168c9190611d9d565b6002546040516212d81b60e41b8152600481018a90526001600160a01b0385811660248301529293506000929091169063012d81b090604401606060405180830381865afa1580156116e2573d6000803e3d6000fd5b505050506040513d601f19601f820116820180604052508101906117069190611f3d565b50600354604051633e5541f160e01b8152919350600092506001600160a01b031690633e5541f19061173e9087908c90600401611e30565b602060405180830381865afa15801561175b573d6000803e3d6000fd5b505050506040513d601f19601f8201168201806040525081019061177f9190611e49565b9050808210156117f75760405162461bcd60e51b815260206004820152603e60248201527f53746f726d6269744c6f616e4d616e616765723a207465726d206f776e65722060448201527f696e73756666696369656e7420646973706f7361626c6520736861726573000060648201526084016103a0565b846060015188866080015161180c9190611ee6565b11156118755760405162461bcd60e51b815260206004820152603260248201527f53746f726d6269744c6f616e4d616e616765723a206c6f616e20617373657473604482015271081c995c5d5a5c995908195e18d95959195960721b60648201526084016103a0565b6002546040516327d1812760e01b8152600481018b9052602481018390526001600160a01b038681166044830152909116906327d1812790606401600060405180830381600087803b1580156118ca57600080fd5b505af11580156118de573d6000803e3d6000fd5b50505060008b81526004602052604081206005018054849350909190611905908490611ee6565b909155505060008a815260046020819052604082200180548a929061192b908490611ee6565b909155505060008a81526005602090815260408083208c845282528083206001600160a01b03871684529091528120805483929061196a908490611ee6565b909155505060405188815289908b907f8e252caa36ad783ebe21a9ae62d3f14da87fe9f3814027755552c55ef99eebaa9060200160405180910390a350505050505050505050565b600354604051639dc6108f60e01b815260009182916001600160a01b0390911690639dc6108f906119e7908690600401611b02565b602060405180830381865afa158015611a04573d6000803e3d6000fd5b505050506040513d601f19601f82011682018060405250810190611a289190611d9d565b60009586526005602090815260408088209688529581528587206001600160a01b039290921687525250505090205490565b600082815260066020908152604080832084845290915290205460ff165b92915050565b6000908152600460205260409020546001600160a01b0316151590565b60405180610100016040528060006001600160a01b0316815260200160006001600160a01b03168152602001600081526020016000815260200160008152602001600081526020016000815260200160006003811115611afd57611afd611ba2565b905290565b6001600160a01b0391909116815260200190565b600060208284031215611b2857600080fd5b5035919050565b60008060408385031215611b4257600080fd5b50508035926020909101359150565b6001600160a01b0381168114611b6657600080fd5b50565b60008060408385031215611b7c57600080fd5b8235611b8781611b51565b91506020830135611b9781611b51565b809150509250929050565b634e487b7160e01b600052602160045260246000fd5b60048110611bd657634e487b7160e01b600052602160045260246000fd5b9052565b60006101008201905060018060a01b038084511683528060208501511660208401525060408301516040830152606083015160608301526080830151608083015260a083015160a083015260c083015160c083015260e0830151611c4160e0840182611bb8565b5092915050565b600080600060608486031215611c5d57600080fd5b83359250602084013591506040840135611c7681611b51565b809150509250925092565b600060208284031215611c9357600080fd5b8135611c9e81611b51565b9392505050565b600080600060608486031215611cba57600080fd5b8335611cc581611b51565b95602085013595506040909401359392505050565b600080600060608486031215611cef57600080fd5b505081359360208301359350604090920135919050565b6001600160a01b0389811682528816602082015260408101879052606081018690526080810185905260a0810184905260c081018390526101008101611d4f60e0830184611bb8565b9998505050505050505050565b60208082526021908201527f53746f726d6269744c6f616e4d616e616765723a20696e76616c6964206c6f616040820152603760f91b606082015260800190565b600060208284031215611daf57600080fd5b8151611c9e81611b51565b600060608284031215611dcc57600080fd5b604051606081016001600160401b0381118282101715611dfc57634e487b7160e01b600052604160045260246000fd5b6040528251611e0a81611b51565b8152602083810151908201526040830151611e2481611b51565b60408201529392505050565b6001600160a01b03929092168252602082015260400190565b600060208284031215611e5b57600080fd5b5051919050565b634e487b7160e01b600052601160045260246000fd5b81810381811115611a7857611a78611e62565b8082028115828204841417611a7857611a78611e62565b600082611ebf57634e487b7160e01b600052601260045260246000fd5b500490565b600060208284031215611ed657600080fd5b81518015158114611c9e57600080fd5b80820180821115611a7857611a78611e62565b60208082526024908201527f53746f726d6269744c6f616e4d616e616765723a20646561646c696e652070616040820152631cdcd95960e21b606082015260800190565b600080600060608486031215611f5257600080fd5b835192506020840151915060408401519050925092509256fea264697066735822122092911131a3205e9c06fc4c01f53136d93e842e7fb55ab785a8d999cc710fd26e64736f6c63430008150033",
  "devdoc": {
    "author": "Quantum3 Labs",
    "errors": {
      "InvalidInitialization()": [
        {
          "details": "The contract is already initialized."
        }
      ],
      "NotInitializing()": [
        {
          "details": "The contract is not initializing."
        }
      ]
    },
    "events": {
      "Initialized(uint64)": {
        "details": "Triggered when the contract has been initialized or reinitialized."
      }
    },
    "kind": "dev",
    "methods": {
      "allocateTermAndFundOnLoan(uint256,uint256,uint256)": {
        "details": "allow lender to allocate fund on the loan, but only when the term is already allocated",
        "params": {
          "assets": "amount of token to allocate",
          "loanId": "id of the loan",
          "termId": "id of the term"
        }
      },
      "claimLoanProfit(uint256,uint256)": {
        "details": "allow lender to claim the profit for loan, then add the remaining profit to term profit"
      },
      "executeLoan(uint256)": {
        "details": "allow borrower to execute the loan and receive the fund",
        "params": {
          "loanId": "id of the loan"
        }
      },
      "getLoan(uint256)": {
        "details": "get the loan details"
      },
      "getLoanTermAllocated(uint256,uint256)": {
        "details": "get the allocation status of a term on a loan"
      },
      "getTermAllocatedSharesOnLoan(uint256,uint256,address)": {
        "details": "get the allocated shares on the loan"
      },
      "getTermLoanAllocatedCounter(uint256)": {
        "details": "get the amount of loans a term was allocated to"
      },
      "repay(uint256)": {
        "details": "allow anyone to repay the loan, not restricted to borrower",
        "params": {
          "loanId": "id of the loan"
        }
      },
      "requestLoan(address,uint256,uint256)": {
        "details": "allow borrower to request loan",
        "params": {
          "assets": "amount of token to borrow",
          "deadline": "deadline of the loan to be allocated",
          "token": "address of the token"
        },
        "returns": {
          "_0": "loanId id of the loan"
        }
      }
    },
    "title": "Stormbit Loan Manager",
    "version": 1
  },
  "userdoc": {
    "kind": "user",
    "methods": {},
    "notice": "entrypoint for loan related operations",
    "version": 1
  },
  "storageLayout": {
    "storage": [
      {
        "astId": 5274,
        "contract": "contracts/LoanManager.sol:StormbitLoanManager",
        "label": "_governor",
        "offset": 0,
        "slot": "0",
        "type": "t_address"
      },
      {
        "astId": 5278,
        "contract": "contracts/LoanManager.sol:StormbitLoanManager",
        "label": "userLoanNonce",
        "offset": 0,
        "slot": "1",
        "type": "t_mapping(t_address,t_uint256)"
      },
      {
        "astId": 5281,
        "contract": "contracts/LoanManager.sol:StormbitLoanManager",
        "label": "lendingManager",
        "offset": 0,
        "slot": "2",
        "type": "t_contract(ILendingManager)6878"
      },
      {
        "astId": 5284,
        "contract": "contracts/LoanManager.sol:StormbitLoanManager",
        "label": "assetManager",
        "offset": 0,
        "slot": "3",
        "type": "t_contract(IAssetManager)6503"
      },
      {
        "astId": 5289,
        "contract": "contracts/LoanManager.sol:StormbitLoanManager",
        "label": "loans",
        "offset": 0,
        "slot": "4",
        "type": "t_mapping(t_uint256,t_struct(Loan)7062_storage)"
      },
      {
        "astId": 5297,
        "contract": "contracts/LoanManager.sol:StormbitLoanManager",
        "label": "termAllocatedShares",
        "offset": 0,
        "slot": "5",
        "type": "t_mapping(t_uint256,t_mapping(t_uint256,t_mapping(t_address,t_uint256)))"
      },
      {
        "astId": 5303,
        "contract": "contracts/LoanManager.sol:StormbitLoanManager",
        "label": "loanTermAllocated",
        "offset": 0,
        "slot": "6",
        "type": "t_mapping(t_uint256,t_mapping(t_uint256,t_bool))"
      },
      {
        "astId": 5307,
        "contract": "contracts/LoanManager.sol:StormbitLoanManager",
        "label": "termLoanAllocatedCounter",
        "offset": 0,
        "slot": "7",
        "type": "t_mapping(t_uint256,t_uint256)"
      },
      {
        "astId": 5315,
        "contract": "contracts/LoanManager.sol:StormbitLoanManager",
        "label": "lenderClaimedProfit",
        "offset": 0,
        "slot": "8",
        "type": "t_mapping(t_uint256,t_mapping(t_uint256,t_mapping(t_address,t_bool)))"
      }
    ],
    "types": {
      "t_address": {
        "encoding": "inplace",
        "label": "address",
        "numberOfBytes": "20"
      },
      "t_bool": {
        "encoding": "inplace",
        "label": "bool",
        "numberOfBytes": "1"
      },
      "t_contract(IAssetManager)6503": {
        "encoding": "inplace",
        "label": "contract IAssetManager",
        "numberOfBytes": "20"
      },
      "t_contract(ILendingManager)6878": {
        "encoding": "inplace",
        "label": "contract ILendingManager",
        "numberOfBytes": "20"
      },
      "t_enum(LoanStatus)7044": {
        "encoding": "inplace",
        "label": "enum ILoanManager.LoanStatus",
        "numberOfBytes": "1"
      },
      "t_mapping(t_address,t_bool)": {
        "encoding": "mapping",
        "key": "t_address",
        "label": "mapping(address => bool)",
        "numberOfBytes": "32",
        "value": "t_bool"
      },
      "t_mapping(t_address,t_uint256)": {
        "encoding": "mapping",
        "key": "t_address",
        "label": "mapping(address => uint256)",
        "numberOfBytes": "32",
        "value": "t_uint256"
      },
      "t_mapping(t_uint256,t_bool)": {
        "encoding": "mapping",
        "key": "t_uint256",
        "label": "mapping(uint256 => bool)",
        "numberOfBytes": "32",
        "value": "t_bool"
      },
      "t_mapping(t_uint256,t_mapping(t_address,t_bool))": {
        "encoding": "mapping",
        "key": "t_uint256",
        "label": "mapping(uint256 => mapping(address => bool))",
        "numberOfBytes": "32",
        "value": "t_mapping(t_address,t_bool)"
      },
      "t_mapping(t_uint256,t_mapping(t_address,t_uint256))": {
        "encoding": "mapping",
        "key": "t_uint256",
        "label": "mapping(uint256 => mapping(address => uint256))",
        "numberOfBytes": "32",
        "value": "t_mapping(t_address,t_uint256)"
      },
      "t_mapping(t_uint256,t_mapping(t_uint256,t_bool))": {
        "encoding": "mapping",
        "key": "t_uint256",
        "label": "mapping(uint256 => mapping(uint256 => bool))",
        "numberOfBytes": "32",
        "value": "t_mapping(t_uint256,t_bool)"
      },
      "t_mapping(t_uint256,t_mapping(t_uint256,t_mapping(t_address,t_bool)))": {
        "encoding": "mapping",
        "key": "t_uint256",
        "label": "mapping(uint256 => mapping(uint256 => mapping(address => bool)))",
        "numberOfBytes": "32",
        "value": "t_mapping(t_uint256,t_mapping(t_address,t_bool))"
      },
      "t_mapping(t_uint256,t_mapping(t_uint256,t_mapping(t_address,t_uint256)))": {
        "encoding": "mapping",
        "key": "t_uint256",
        "label": "mapping(uint256 => mapping(uint256 => mapping(address => uint256)))",
        "numberOfBytes": "32",
        "value": "t_mapping(t_uint256,t_mapping(t_address,t_uint256))"
      },
      "t_mapping(t_uint256,t_struct(Loan)7062_storage)": {
        "encoding": "mapping",
        "key": "t_uint256",
        "label": "mapping(uint256 => struct ILoanManager.Loan)",
        "numberOfBytes": "32",
        "value": "t_struct(Loan)7062_storage"
      },
      "t_mapping(t_uint256,t_uint256)": {
        "encoding": "mapping",
        "key": "t_uint256",
        "label": "mapping(uint256 => uint256)",
        "numberOfBytes": "32",
        "value": "t_uint256"
      },
      "t_struct(Loan)7062_storage": {
        "encoding": "inplace",
        "label": "struct ILoanManager.Loan",
        "members": [
          {
            "astId": 7046,
            "contract": "contracts/LoanManager.sol:StormbitLoanManager",
            "label": "borrower",
            "offset": 0,
            "slot": "0",
            "type": "t_address"
          },
          {
            "astId": 7048,
            "contract": "contracts/LoanManager.sol:StormbitLoanManager",
            "label": "token",
            "offset": 0,
            "slot": "1",
            "type": "t_address"
          },
          {
            "astId": 7050,
            "contract": "contracts/LoanManager.sol:StormbitLoanManager",
            "label": "repayAssets",
            "offset": 0,
            "slot": "2",
            "type": "t_uint256"
          },
          {
            "astId": 7052,
            "contract": "contracts/LoanManager.sol:StormbitLoanManager",
            "label": "assetsRequired",
            "offset": 0,
            "slot": "3",
            "type": "t_uint256"
          },
          {
            "astId": 7054,
            "contract": "contracts/LoanManager.sol:StormbitLoanManager",
            "label": "assetsAllocated",
            "offset": 0,
            "slot": "4",
            "type": "t_uint256"
          },
          {
            "astId": 7056,
            "contract": "contracts/LoanManager.sol:StormbitLoanManager",
            "label": "sharesAllocated",
            "offset": 0,
            "slot": "5",
            "type": "t_uint256"
          },
          {
            "astId": 7058,
            "contract": "contracts/LoanManager.sol:StormbitLoanManager",
            "label": "deadlineAllocate",
            "offset": 0,
            "slot": "6",
            "type": "t_uint256"
          },
          {
            "astId": 7061,
            "contract": "contracts/LoanManager.sol:StormbitLoanManager",
            "label": "status",
            "offset": 0,
            "slot": "7",
            "type": "t_enum(LoanStatus)7044"
          }
        ],
        "numberOfBytes": "256"
      },
      "t_uint256": {
        "encoding": "inplace",
        "label": "uint256",
        "numberOfBytes": "32"
      }
    }
  }
}