{
  "address": "0xB45dbe61e39189a9cc1E553e031b423A0e0cD222",
  "abi": [
    {
      "inputs": [
        {
          "internalType": "address",
          "name": "initialGovernor",
          "type": "address"
        }
      ],
      "stateMutability": "nonpayable",
      "type": "constructor"
    },
    {
      "inputs": [],
      "name": "InvalidInitialization",
      "type": "error"
    },
    {
      "inputs": [],
      "name": "NotInitializing",
      "type": "error"
    },
    {
      "anonymous": false,
      "inputs": [
        {
          "indexed": false,
          "internalType": "uint64",
          "name": "version",
          "type": "uint64"
        }
      ],
      "name": "Initialized",
      "type": "event"
    },
    {
      "anonymous": false,
      "inputs": [
        {
          "indexed": true,
          "internalType": "address",
          "name": "user",
          "type": "address"
        },
        {
          "indexed": false,
          "internalType": "string",
          "name": "username",
          "type": "string"
        }
      ],
      "name": "Registered",
      "type": "event"
    },
    {
      "inputs": [],
      "name": "governor",
      "outputs": [
        {
          "internalType": "address",
          "name": "",
          "type": "address"
        }
      ],
      "stateMutability": "view",
      "type": "function"
    },
    {
      "inputs": [
        {
          "internalType": "string",
          "name": "_username",
          "type": "string"
        }
      ],
      "name": "register",
      "outputs": [],
      "stateMutability": "nonpayable",
      "type": "function"
    },
    {
      "inputs": [
        {
          "internalType": "address",
          "name": "",
          "type": "address"
        }
      ],
      "name": "usernames",
      "outputs": [
        {
          "internalType": "string",
          "name": "",
          "type": "string"
        }
      ],
      "stateMutability": "view",
      "type": "function"
    }
  ],
  "transactionHash": "0xc90adfdfc26498e84e27fd3de6061c89db39bda5e81b8cf2c3508c1049663d17",
  "args": [
    "0xDe3089d40F3491De794fBb1ECA109fAc36F889d0"
  ],
  "numDeployments": 1,
  "solcInputHash": "fc88f2785a8cc64f484af0517b95c10f",
  "bytecode": "0x608060405234801561001057600080fd5b506040516105c53803806105c583398101604081905261002f91610054565b600080546001600160a01b0319166001600160a01b0392909216919091179055610084565b60006020828403121561006657600080fd5b81516001600160a01b038116811461007d57600080fd5b9392505050565b610532806100936000396000f3fe608060405234801561001057600080fd5b50600436106100415760003560e01c80630c340a2414610046578063ee91877c14610066578063f2c298be14610086575b600080fd5b6000546040516001600160a01b0390911681526020015b60405180910390f35b610079610074366004610270565b61009b565b60405161005d91906102a0565b610099610094366004610304565b610135565b005b600160205260009081526040902080546100b4906103b4565b80601f01602080910402602001604051908101604052809291908181526020018280546100e0906103b4565b801561012d5780601f106101025761010080835404028352916020019161012d565b820191906000526020600020905b81548152906001019060200180831161011057829003601f168201915b505050505081565b336000908152600160205260409020805461014f906103b4565b1590506101b55760405162461bcd60e51b815260206004820152602960248201527f53746f726d62697452656769737472793a207573657220616c726561647920726044820152681959da5cdd195c995960ba1b60648201526084015b60405180910390fd5b60008151116102125760405162461bcd60e51b815260206004820152602360248201527f53746f726d62697452656769737472793a20757365726e616d6520697320656d60448201526270747960e81b60648201526084016101ac565b33600090815260016020526040902061022b828261043d565b50336001600160a01b03167fb3eccf73f39b1c07947c780b2b39df2a1bb058b4037b0a42d0881ca1a028a1328260405161026591906102a0565b60405180910390a250565b60006020828403121561028257600080fd5b81356001600160a01b038116811461029957600080fd5b9392505050565b600060208083528351808285015260005b818110156102cd578581018301518582016040015282016102b1565b506000604082860101526040601f19601f8301168501019250505092915050565b634e487b7160e01b600052604160045260246000fd5b60006020828403121561031657600080fd5b81356001600160401b038082111561032d57600080fd5b818401915084601f83011261034157600080fd5b813581811115610353576103536102ee565b604051601f8201601f19908116603f0116810190838211818310171561037b5761037b6102ee565b8160405282815287602084870101111561039457600080fd5b826020860160208301376000928101602001929092525095945050505050565b600181811c908216806103c857607f821691505b6020821081036103e857634e487b7160e01b600052602260045260246000fd5b50919050565b601f82111561043857600081815260208120601f850160051c810160208610156104155750805b601f850160051c820191505b8181101561043457828155600101610421565b5050505b505050565b81516001600160401b03811115610456576104566102ee565b61046a8161046484546103b4565b846103ee565b602080601f83116001811461049f57600084156104875750858301515b600019600386901b1c1916600185901b178555610434565b600085815260208120601f198616915b828110156104ce578886015182559484019460019091019084016104af565b50858210156104ec5787850151600019600388901b60f8161c191681555b5050505050600190811b0190555056fea2646970667358221220630ee3176c5b57c423a19d9d4ef92394d1e0adacb9be3693395250c51b5a18cc64736f6c63430008150033",
  "devdoc": {
    "details": "Think of terms are minimal ERC4626, this contract is using word \"shares\" to represent ERC4626 assets, and \"weight\" to represent ERC4626 shares",
    "errors": {
      "InvalidInitialization()": [
        {
          "details": "The contract is already initialized."
        }
      ],
      "NotInitializing()": [
        {
          "details": "The contract is not initializing."
        }
      ]
    },
    "events": {
      "Initialized(uint64)": {
        "details": "Triggered when the contract has been initialized or reinitialized."
      }
    },
    "kind": "dev",
    "methods": {},
    "version": 1
  },
  "userdoc": {
    "kind": "user",
    "methods": {},
    "version": 1
  },
  "storageLayout": {
    "storage": [
      {
        "astId": 6107,
        "contract": "contracts/StormbitRegistry.sol:StormbitRegistry",
        "label": "_governor",
        "offset": 0,
        "slot": "0",
        "type": "t_address"
      },
      {
        "astId": 6111,
        "contract": "contracts/StormbitRegistry.sol:StormbitRegistry",
        "label": "usernames",
        "offset": 0,
        "slot": "1",
        "type": "t_mapping(t_address,t_string_storage)"
      }
    ],
    "types": {
      "t_address": {
        "encoding": "inplace",
        "label": "address",
        "numberOfBytes": "20"
      },
      "t_mapping(t_address,t_string_storage)": {
        "encoding": "mapping",
        "key": "t_address",
        "label": "mapping(address => string)",
        "numberOfBytes": "32",
        "value": "t_string_storage"
      },
      "t_string_storage": {
        "encoding": "bytes",
        "label": "string",
        "numberOfBytes": "32"
      }
    }
  }
}