{
  "address": "0x8Ca9A9F4FCf775474598200045250D31900769d6",
  "abi": [
    {
      "inputs": [
        {
          "internalType": "address",
          "name": "initialOwner",
          "type": "address"
        },
        {
          "internalType": "address",
          "name": "lendingPoolImplementation",
          "type": "address"
        },
        {
          "internalType": "address",
          "name": "lendingVotesImplementation",
          "type": "address"
        }
      ],
      "stateMutability": "nonpayable",
      "type": "constructor"
    },
    {
      "inputs": [],
      "name": "ERC1167FailedCreateClone",
      "type": "error"
    },
    {
      "inputs": [],
      "name": "EnforcedPause",
      "type": "error"
    },
    {
      "inputs": [],
      "name": "ExpectedPause",
      "type": "error"
    },
    {
      "inputs": [
        {
          "internalType": "address",
          "name": "owner",
          "type": "address"
        }
      ],
      "name": "OwnableInvalidOwner",
      "type": "error"
    },
    {
      "inputs": [
        {
          "internalType": "address",
          "name": "account",
          "type": "address"
        }
      ],
      "name": "OwnableUnauthorizedAccount",
      "type": "error"
    },
    {
      "anonymous": false,
      "inputs": [
        {
          "indexed": true,
          "internalType": "address",
          "name": "previousOwner",
          "type": "address"
        },
        {
          "indexed": true,
          "internalType": "address",
          "name": "newOwner",
          "type": "address"
        }
      ],
      "name": "OwnershipTransferred",
      "type": "event"
    },
    {
      "anonymous": false,
      "inputs": [
        {
          "indexed": false,
          "internalType": "address",
          "name": "account",
          "type": "address"
        }
      ],
      "name": "Paused",
      "type": "event"
    },
    {
      "anonymous": false,
      "inputs": [
        {
          "indexed": true,
          "internalType": "address",
          "name": "pool",
          "type": "address"
        },
        {
          "indexed": false,
          "internalType": "address",
          "name": "creator",
          "type": "address"
        }
      ],
      "name": "PoolCreated",
      "type": "event"
    },
    {
      "anonymous": false,
      "inputs": [
        {
          "indexed": false,
          "internalType": "address",
          "name": "account",
          "type": "address"
        }
      ],
      "name": "Unpaused",
      "type": "event"
    },
    {
      "inputs": [
        {
          "components": [
            {
              "internalType": "string",
              "name": "name",
              "type": "string"
            },
            {
              "internalType": "uint256",
              "name": "creditScore",
              "type": "uint256"
            },
            {
              "internalType": "uint256",
              "name": "maxAmountOfStakers",
              "type": "uint256"
            },
            {
              "internalType": "uint256",
              "name": "votingQuorum",
              "type": "uint256"
            },
            {
              "internalType": "uint256",
              "name": "maxPoolUsage",
              "type": "uint256"
            },
            {
              "internalType": "uint256",
              "name": "votingPowerCoolDown",
              "type": "uint256"
            },
            {
              "internalType": "uint256",
              "name": "initAmount",
              "type": "uint256"
            },
            {
              "internalType": "address",
              "name": "initToken",
              "type": "address"
            },
            {
              "internalType": "address[]",
              "name": "supportedAssets",
              "type": "address[]"
            },
            {
              "internalType": "address[]",
              "name": "supportedAgreements",
              "type": "address[]"
            }
          ],
          "internalType": "struct IStormBitLending.InitParams",
          "name": "params",
          "type": "tuple"
        }
      ],
      "name": "createPool",
      "outputs": [],
      "stateMutability": "nonpayable",
      "type": "function"
    },
    {
      "inputs": [
        {
          "internalType": "address",
          "name": "_address",
          "type": "address"
        }
      ],
      "name": "isKYCVerified",
      "outputs": [
        {
          "internalType": "bool",
          "name": "",
          "type": "bool"
        }
      ],
      "stateMutability": "view",
      "type": "function"
    },
    {
      "inputs": [
        {
          "internalType": "address",
          "name": "_strategy",
          "type": "address"
        }
      ],
      "name": "isSupportedStrategy",
      "outputs": [
        {
          "internalType": "bool",
          "name": "",
          "type": "bool"
        }
      ],
      "stateMutability": "view",
      "type": "function"
    },
    {
      "inputs": [],
      "name": "lastPool",
      "outputs": [
        {
          "internalType": "address",
          "name": "",
          "type": "address"
        }
      ],
      "stateMutability": "view",
      "type": "function"
    },
    {
      "inputs": [],
      "name": "owner",
      "outputs": [
        {
          "internalType": "address",
          "name": "",
          "type": "address"
        }
      ],
      "stateMutability": "view",
      "type": "function"
    },
    {
      "inputs": [],
      "name": "paused",
      "outputs": [
        {
          "internalType": "bool",
          "name": "",
          "type": "bool"
        }
      ],
      "stateMutability": "view",
      "type": "function"
    },
    {
      "inputs": [],
      "name": "renounceOwnership",
      "outputs": [],
      "stateMutability": "nonpayable",
      "type": "function"
    },
    {
      "inputs": [
        {
          "internalType": "address",
          "name": "newOwner",
          "type": "address"
        }
      ],
      "name": "transferOwnership",
      "outputs": [],
      "stateMutability": "nonpayable",
      "type": "function"
    }
  ],
  "transactionHash": "0x7ce96315dc42fd2c14d36a570af9501492f7b32c392d9043d76f2bac07acc0e5",
  "args": [
    "0xDe3089d40F3491De794fBb1ECA109fAc36F889d0",
    "0x6eAe6Ed7923a0C4ba8B8db01B34cc60960458743",
    "0x8eB6bfc0A4e65A974DE60E50AEA61e6F5F913FAa"
  ],
  "numDeployments": 1,
  "solcInputHash": "f88df533221a36e4fa6b53b300cc226b",
  "bytecode": "0x608060405234801561001057600080fd5b50604051610a23380380610a2383398101604081905261002f91610113565b826001600160a01b03811661005e57604051631e4fbdf760e01b81526000600482015260240160405180910390fd5b610067816100a7565b506000805460ff60a01b19169055600480546001600160a01b039384166001600160a01b0319918216179091556005805492909316911617905550610156565b600080546001600160a01b038381166001600160a01b0319831681178455604051919092169283917f8be0079c531659141344cd1fd0a4f28419497f9722a3daafe3b4186f6b6457e09190a35050565b80516001600160a01b038116811461010e57600080fd5b919050565b60008060006060848603121561012857600080fd5b610131846100f7565b925061013f602085016100f7565b915061014d604085016100f7565b90509250925092565b6108be806101656000396000f3fe608060405234801561001057600080fd5b50600436106100785760003560e01c80632fd49abe1461007d57806354b7636e146100a65780635c975abb146100ca578063715018a6146100dc578063856ac649146100e65780638da5cb5b146100f9578063de5f8ccd146100a6578063f2fde38b14610101575b600080fd5b600154610090906001600160a01b031681565b60405161009d9190610445565b60405180910390f35b6100ba6100b4366004610470565b50600190565b604051901515815260200161009d565b600054600160a01b900460ff166100ba565b6100e4610114565b005b6100e46100f43660046105f6565b610128565b6100906102f7565b6100e461010f366004610470565b610306565b61011c610344565b6101266000610376565b565b610136565b60405180910390fd5b60045460009061014e906001600160a01b03166103c6565b600554909150600090610169906001600160a01b03166103c6565b60405163189acdbd60e31b81529091506001600160a01b0382169063c4d66de890610198908590600401610445565b600060405180830381600087803b1580156101b257600080fd5b505af11580156101c6573d6000803e3d6000fd5b50505060e084015160c08501516040516323b872dd60e01b81523360048201526001600160a01b0386811660248301526044820192909252911691506323b872dd906064016020604051808303816000875af115801561022a573d6000803e3d6000fd5b505050506040513d601f19601f8201168201806040525081019061024e91906106fe565b50604051630d9ba8d960e21b81526001600160a01b0383169063366ea3649061027f908690339086906004016107aa565b600060405180830381600087803b15801561029957600080fd5b505af11580156102ad573d6000803e3d6000fd5b50505050816001600160a01b03167f4f2ce4e40f623ca765fc0167a25cb7842ceaafb8d82d3dec26ca0d0e0d2d4896336040516102ea9190610445565b60405180910390a2505050565b6000546001600160a01b031690565b61030e610344565b6001600160a01b038116610338576000604051631e4fbdf760e01b815260040161012d9190610445565b61034181610376565b50565b3361034d6102f7565b6001600160a01b031614610126573360405163118cdaa760e01b815260040161012d9190610445565b600080546001600160a01b038381166001600160a01b0319831681178455604051919092169283917f8be0079c531659141344cd1fd0a4f28419497f9722a3daafe3b4186f6b6457e09190a35050565b6000763d602d80600a3d3981f3363d3d373d3d3d363d730000008260601b60e81c176000526e5af43d82803e903d91602b57fd5bf38260781b17602052603760096000f090506001600160a01b038116610433576040516330be1a3d60e21b815260040160405180910390fd5b919050565b6001600160a01b03169052565b6001600160a01b0391909116815260200190565b80356001600160a01b038116811461043357600080fd5b60006020828403121561048257600080fd5b61048b82610459565b9392505050565b634e487b7160e01b600052604160045260246000fd5b60405161014081016001600160401b03811182821017156104cb576104cb610492565b60405290565b604051601f8201601f191681016001600160401b03811182821017156104f9576104f9610492565b604052919050565b600082601f83011261051257600080fd5b81356001600160401b0381111561052b5761052b610492565b61053e601f8201601f19166020016104d1565b81815284602083860101111561055357600080fd5b816020850160208301376000918101602001919091529392505050565b600082601f83011261058157600080fd5b813560206001600160401b0382111561059c5761059c610492565b8160051b6105ab8282016104d1565b92835284810182019282810190878511156105c557600080fd5b83870192505b848310156105eb576105dc83610459565b825291830191908301906105cb565b979650505050505050565b60006020828403121561060857600080fd5b81356001600160401b038082111561061f57600080fd5b90830190610140828603121561063457600080fd5b61063c6104a8565b82358281111561064b57600080fd5b61065787828601610501565b8252506020830135602082015260408301356040820152606083013560608201526080830135608082015260a083013560a082015260c083013560c08201526106a260e08401610459565b60e082015261010080840135838111156106bb57600080fd5b6106c788828701610570565b82840152505061012080840135838111156106e157600080fd5b6106ed88828701610570565b918301919091525095945050505050565b60006020828403121561071057600080fd5b8151801515811461048b57600080fd5b6000815180845260005b818110156107465760208185018101518683018201520161072a565b506000602082860101526020601f19601f83011685010191505092915050565b600081518084526020808501945080840160005b8381101561079f5781516001600160a01b03168752958201959082019060010161077a565b509495945050505050565b60608152600084516101408060608501526107c96101a0850183610720565b915060208701516080850152604087015160a0850152606087015160c0850152608087015160e085015260a0870151610100818187015260c08901519150610120828188015260e08a0151925061082284880184610438565b818a01519350605f19925082878603016101608801526108428585610766565b9450808a0151935050508085840301610180860152506108628282610766565b925050506108736020830185610438565b6108806040830184610438565b94935050505056fea2646970667358221220e689c8676f8d685ae3603e160e9de38ec03cde6f249d3dda1f9877432e62a7bf64736f6c63430008150033",
  "devdoc": {
    "errors": {
      "ERC1167FailedCreateClone()": [
        {
          "details": "A clone instance deployment failed."
        }
      ],
      "EnforcedPause()": [
        {
          "details": "The operation failed because the contract is paused."
        }
      ],
      "ExpectedPause()": [
        {
          "details": "The operation failed because the contract is not paused."
        }
      ],
      "OwnableInvalidOwner(address)": [
        {
          "details": "The owner is not a valid owner account. (eg. `address(0)`)"
        }
      ],
      "OwnableUnauthorizedAccount(address)": [
        {
          "details": "The caller account is not authorized to perform an operation."
        }
      ]
    },
    "events": {
      "Paused(address)": {
        "details": "Emitted when the pause is triggered by `account`."
      },
      "Unpaused(address)": {
        "details": "Emitted when the pause is lifted by `account`."
      }
    },
    "kind": "dev",
    "methods": {
      "owner()": {
        "details": "Returns the address of the current owner."
      },
      "paused()": {
        "details": "Returns true if the contract is paused, and false otherwise."
      },
      "renounceOwnership()": {
        "details": "Leaves the contract without owner. It will not be possible to call `onlyOwner` functions. Can only be called by the current owner. NOTE: Renouncing ownership will leave the contract without an owner, thereby disabling any functionality that is only available to the owner."
      },
      "transferOwnership(address)": {
        "details": "Transfers ownership of the contract to a new account (`newOwner`). Can only be called by the current owner."
      }
    },
    "version": 1
  },
  "userdoc": {
    "kind": "user",
    "methods": {},
    "version": 1
  },
  "storageLayout": {
    "storage": [
      {
        "astId": 3644,
        "contract": "contracts/StormBitCore.sol:StormBitCore",
        "label": "_owner",
        "offset": 0,
        "slot": "0",
        "type": "t_address"
      },
      {
        "astId": 4901,
        "contract": "contracts/StormBitCore.sol:StormBitCore",
        "label": "_paused",
        "offset": 20,
        "slot": "0",
        "type": "t_bool"
      },
      {
        "astId": 11929,
        "contract": "contracts/StormBitCore.sol:StormBitCore",
        "label": "lastPool",
        "offset": 0,
        "slot": "1",
        "type": "t_address"
      },
      {
        "astId": 11932,
        "contract": "contracts/StormBitCore.sol:StormBitCore",
        "label": "_lendingPools",
        "offset": 0,
        "slot": "2",
        "type": "t_struct(AddressSet)11014_storage"
      },
      {
        "astId": 11934,
        "contract": "contracts/StormBitCore.sol:StormBitCore",
        "label": "_lendingPoolImplementation",
        "offset": 0,
        "slot": "4",
        "type": "t_address"
      },
      {
        "astId": 11936,
        "contract": "contracts/StormBitCore.sol:StormBitCore",
        "label": "_lendingVotesImplementation",
        "offset": 0,
        "slot": "5",
        "type": "t_address"
      }
    ],
    "types": {
      "t_address": {
        "encoding": "inplace",
        "label": "address",
        "numberOfBytes": "20"
      },
      "t_array(t_bytes32)dyn_storage": {
        "base": "t_bytes32",
        "encoding": "dynamic_array",
        "label": "bytes32[]",
        "numberOfBytes": "32"
      },
      "t_bool": {
        "encoding": "inplace",
        "label": "bool",
        "numberOfBytes": "1"
      },
      "t_bytes32": {
        "encoding": "inplace",
        "label": "bytes32",
        "numberOfBytes": "32"
      },
      "t_mapping(t_bytes32,t_uint256)": {
        "encoding": "mapping",
        "key": "t_bytes32",
        "label": "mapping(bytes32 => uint256)",
        "numberOfBytes": "32",
        "value": "t_uint256"
      },
      "t_struct(AddressSet)11014_storage": {
        "encoding": "inplace",
        "label": "struct EnumerableSet.AddressSet",
        "members": [
          {
            "astId": 11013,
            "contract": "contracts/StormBitCore.sol:StormBitCore",
            "label": "_inner",
            "offset": 0,
            "slot": "0",
            "type": "t_struct(Set)10699_storage"
          }
        ],
        "numberOfBytes": "64"
      },
      "t_struct(Set)10699_storage": {
        "encoding": "inplace",
        "label": "struct EnumerableSet.Set",
        "members": [
          {
            "astId": 10694,
            "contract": "contracts/StormBitCore.sol:StormBitCore",
            "label": "_values",
            "offset": 0,
            "slot": "0",
            "type": "t_array(t_bytes32)dyn_storage"
          },
          {
            "astId": 10698,
            "contract": "contracts/StormBitCore.sol:StormBitCore",
            "label": "_positions",
            "offset": 0,
            "slot": "1",
            "type": "t_mapping(t_bytes32,t_uint256)"
          }
        ],
        "numberOfBytes": "64"
      },
      "t_uint256": {
        "encoding": "inplace",
        "label": "uint256",
        "numberOfBytes": "32"
      }
    }
  }
}