{
  "address": "0xC5B85b03A4284BE0Ef979034d658e2E685Ba3edA",
  "abi": [
    {
      "inputs": [],
      "name": "InvalidInitialization",
      "type": "error"
    },
    {
      "inputs": [],
      "name": "NotInitializing",
      "type": "error"
    },
    {
      "anonymous": false,
      "inputs": [
        {
          "indexed": false,
          "internalType": "uint64",
          "name": "version",
          "type": "uint64"
        }
      ],
      "name": "Initialized",
      "type": "event"
    },
    {
      "inputs": [],
      "name": "borrower",
      "outputs": [
        {
          "internalType": "address",
          "name": "",
          "type": "address"
        }
      ],
      "stateMutability": "view",
      "type": "function"
    },
    {
      "inputs": [],
      "name": "getPaymentDates",
      "outputs": [
        {
          "internalType": "uint256[]",
          "name": "",
          "type": "uint256[]"
        },
        {
          "internalType": "uint256[]",
          "name": "",
          "type": "uint256[]"
        }
      ],
      "stateMutability": "view",
      "type": "function"
    },
    {
      "inputs": [],
      "name": "hasWithdrawn",
      "outputs": [
        {
          "internalType": "bool",
          "name": "",
          "type": "bool"
        }
      ],
      "stateMutability": "view",
      "type": "function"
    },
    {
      "inputs": [
        {
          "internalType": "bytes",
          "name": "initData",
          "type": "bytes"
        }
      ],
      "name": "initialize",
      "outputs": [],
      "stateMutability": "nonpayable",
      "type": "function"
    },
    {
      "inputs": [],
      "name": "isLoanFinished",
      "outputs": [
        {
          "internalType": "bool",
          "name": "",
          "type": "bool"
        }
      ],
      "stateMutability": "view",
      "type": "function"
    },
    {
      "inputs": [],
      "name": "lateFee",
      "outputs": [
        {
          "internalType": "uint256",
          "name": "",
          "type": "uint256"
        }
      ],
      "stateMutability": "view",
      "type": "function"
    },
    {
      "inputs": [],
      "name": "lender",
      "outputs": [
        {
          "internalType": "address",
          "name": "",
          "type": "address"
        }
      ],
      "stateMutability": "view",
      "type": "function"
    },
    {
      "inputs": [],
      "name": "nextPayment",
      "outputs": [
        {
          "internalType": "uint256",
          "name": "",
          "type": "uint256"
        },
        {
          "internalType": "uint256",
          "name": "",
          "type": "uint256"
        }
      ],
      "stateMutability": "view",
      "type": "function"
    },
    {
      "inputs": [],
      "name": "payBack",
      "outputs": [
        {
          "internalType": "bool",
          "name": "",
          "type": "bool"
        }
      ],
      "stateMutability": "nonpayable",
      "type": "function"
    },
    {
      "inputs": [],
      "name": "paymentToken",
      "outputs": [
        {
          "internalType": "address",
          "name": "",
          "type": "address"
        }
      ],
      "stateMutability": "view",
      "type": "function"
    },
    {
      "inputs": [],
      "name": "penalty",
      "outputs": [
        {
          "internalType": "uint256",
          "name": "",
          "type": "uint256"
        }
      ],
      "stateMutability": "view",
      "type": "function"
    },
    {
      "inputs": [],
      "name": "totalLoanAmount",
      "outputs": [
        {
          "internalType": "uint256",
          "name": "",
          "type": "uint256"
        }
      ],
      "stateMutability": "view",
      "type": "function"
    },
    {
      "inputs": [],
      "name": "withdraw",
      "outputs": [],
      "stateMutability": "nonpayable",
      "type": "function"
    }
  ],
  "transactionHash": "0xcb0ce9a6958ed86b29de4bd98e5b27aca24f5b5abcfa12050b2ed05c753bd8fd",
  "args": [],
  "numDeployments": 1,
  "solcInputHash": "72683f0531f88a38b7a3d549baeb4046",
  "bytecode": "0x608060405260006006556007805460ff1916905534801561001f57600080fd5b5061002861002d565b6100df565b7ff0c57e16840df040f15088dc2f81fe391c3923bec73e23a9662efc9c229c6a00805468010000000000000000900460ff161561007d5760405163f92ee8a960e01b815260040160405180910390fd5b80546001600160401b03908116146100dc5780546001600160401b0319166001600160401b0390811782556040519081527fc7f505b2f371ae2175ee4913f4499e1f2633a7b5936321eed1cdaeb6115181d29060200160405180910390a15b50565b610c13806100ee6000396000f3fe608060405234801561001057600080fd5b50600436106100af5760003560e01c8063019f64cc146100b45780630edd2ffc146100d1578063120e9668146100e75780632d378026146100fd5780633013ce291461011a5780633ccfd60b146101345780633f4de62f1461013e578063439fab91146101465780634c9e502e146101595780636cb4e611146101615780637df1f1b91461016e578063bcead63e1461017f578063f87fe0f814610190575b600080fd5b6100bc61019c565b60405190151581526020015b60405180910390f35b6100d9610356565b6040519081526020016100c8565b6100ef610397565b6040516100c89291906108de565b61010561044a565b604080519283526020830191909152016100c8565b6001546001600160a01b03165b6040516100c8919061090c565b61013c6104be565b005b6000546100d9565b61013c610154366004610966565b61065a565b6100d96107f3565b6007546100bc9060ff1681565b6003546001600160a01b0316610127565b6002546001600160a01b0316610127565b600454600654146100bc565b6000806101a761044a565b50905060006101b4610356565b6001549091506001600160a01b03166323b872dd33306101d48587610a10565b6040516001600160e01b031960e086901b1681526001600160a01b03938416600482015292909116602483015260448201526064016020604051808303816000875af1158015610228573d6000803e3d6000fd5b505050506040513d601f19601f8201168201806040525081019061024c9190610a29565b506006805490600061025d83610a52565b90915550506004546006540361034d576001546002546040516370a0823160e01b81526001600160a01b039283169263a9059cbb92169083906370a08231906102aa90309060040161090c565b602060405180830381865afa1580156102c7573d6000803e3d6000fd5b505050506040513d601f19601f820116820180604052508101906102eb9190610a6b565b6040518363ffffffff1660e01b8152600401610308929190610a84565b6020604051808303816000875af1158015610327573d6000803e3d6000fd5b505050506040513d601f19601f8201168201806040525081019061034b9190610a29565b505b60019250505090565b600080600061036361044a565b6003549193509150600160a01b900460ff168061037f57504281105b1561038e576000549250505090565b60009250505090565b60608060046005818054806020026020016040519081016040528092919081815260200182805480156103e957602002820191906000526020600020905b8154815260200190600101908083116103d5575b505050505091508080548060200260200160405190810160405280929190818152602001828054801561043b57602002820191906000526020600020905b815481526020019060010190808311610427575b50505050509050915091509091565b60008061045a6004546006541490565b80610468575060075460ff16155b156104765750600091829150565b60046006548154811061048b5761048b610a9d565b90600052602060002001546005600654815481106104ab576104ab610a9d565b9060005260206000200154915091509091565b6003546001600160a01b0316331461051d5760405162461bcd60e51b815260206004820152601e60248201527f41677265656d656e74426564726f636b3a206e6f7420626f72726f776572000060448201526064015b60405180910390fd5b60075460ff161561056c5760405162461bcd60e51b815260206004820152601960248201527815da5d1a191c985dc8185b1c9958591e48195e1958dd5d1959603a1b6044820152606401610514565b6001546003546040516370a0823160e01b81526001600160a01b039283169263a9059cbb92169083906370a08231906105a990309060040161090c565b602060405180830381865afa1580156105c6573d6000803e3d6000fd5b505050506040513d601f19601f820116820180604052508101906105ea9190610a6b565b6040518363ffffffff1660e01b8152600401610607929190610a84565b6020604051808303816000875af1158015610626573d6000803e3d6000fd5b505050506040513d601f19601f8201168201806040525081019061064a9190610a29565b506007805460ff19166001179055565b7ff0c57e16840df040f15088dc2f81fe391c3923bec73e23a9662efc9c229c6a008054600160401b810460ff1615906001600160401b031660008115801561069f5750825b90506000826001600160401b031660011480156106bb5750303b155b9050811580156106c9575080155b156106e75760405163f92ee8a960e01b815260040160405180910390fd5b84546001600160401b0319166001178555831561071057845460ff60401b1916600160401b1785555b60008060008060008a80602001905181019061072c9190610b4e565b600085905560028054336001600160a01b0319918216179091556003805482166001600160a01b03878116919091179091556001805490921690851617905581519499509297509095509350915061078b906004906020850190610843565b50805161079f906005906020840190610843565b50505050505083156107eb57845460ff60401b19168555604051600181527fc7f505b2f371ae2175ee4913f4499e1f2633a7b5936321eed1cdaeb6115181d29060200160405180910390a15b505050505050565b600080805b60045481101561083d576004818154811061081557610815610a9d565b90600052602060002001548261082b9190610a10565b915061083681610a52565b90506107f8565b50919050565b82805482825590600052602060002090810192821561087e579160200282015b8281111561087e578251825591602001919060010190610863565b5061088a92915061088e565b5090565b5b8082111561088a576000815560010161088f565b600081518084526020808501945080840160005b838110156108d3578151875295820195908201906001016108b7565b509495945050505050565b6040815260006108f160408301856108a3565b828103602084015261090381856108a3565b95945050505050565b6001600160a01b0391909116815260200190565b634e487b7160e01b600052604160045260246000fd5b604051601f8201601f191681016001600160401b038111828210171561095e5761095e610920565b604052919050565b6000602080838503121561097957600080fd5b82356001600160401b038082111561099057600080fd5b818501915085601f8301126109a457600080fd5b8135818111156109b6576109b6610920565b6109c8601f8201601f19168501610936565b915080825286848285010111156109de57600080fd5b8084840185840137600090820190930192909252509392505050565b634e487b7160e01b600052601160045260246000fd5b80820180821115610a2357610a236109fa565b92915050565b600060208284031215610a3b57600080fd5b81518015158114610a4b57600080fd5b9392505050565b600060018201610a6457610a646109fa565b5060010190565b600060208284031215610a7d57600080fd5b5051919050565b6001600160a01b03929092168252602082015260400190565b634e487b7160e01b600052603260045260246000fd5b80516001600160a01b0381168114610aca57600080fd5b919050565b600082601f830112610ae057600080fd5b815160206001600160401b03821115610afb57610afb610920565b8160051b610b0a828201610936565b9283528481018201928281019087851115610b2457600080fd5b83870192505b84831015610b4357825182529183019190830190610b2a565b979650505050505050565b600080600080600060a08688031215610b6657600080fd5b85519450610b7660208701610ab3565b9350610b8460408701610ab3565b60608701519093506001600160401b0380821115610ba157600080fd5b610bad89838a01610acf565b93506080880151915080821115610bc357600080fd5b50610bd088828901610acf565b915050929550929590935056fea2646970667358221220fa8f088cb7ab972cb76bcf0dc9f2caa508ce7c81ff8aaff0cd5782b721ba424c64736f6c63430008150033",
  "devdoc": {
    "author": "Q3 Labs",
    "errors": {
      "InvalidInitialization()": [
        {
          "details": "The contract is already initialized."
        }
      ],
      "NotInitializing()": [
        {
          "details": "The contract is not initializing."
        }
      ]
    },
    "events": {
      "Initialized(uint64)": {
        "details": "Triggered when the contract has been initialized or reinitialized."
      }
    },
    "kind": "dev",
    "methods": {},
    "title": "SimpleAgreement",
    "version": 1
  },
  "userdoc": {
    "kind": "user",
    "methods": {},
    "notice": "For NFT please override inialitization",
    "version": 1
  },
  "storageLayout": {
    "storage": [
      {
        "astId": 16207,
        "contract": "contracts/agreements/SimpleAgreement.sol:SimpleAgreement",
        "label": "_lateFee",
        "offset": 0,
        "slot": "0",
        "type": "t_uint256"
      },
      {
        "astId": 16209,
        "contract": "contracts/agreements/SimpleAgreement.sol:SimpleAgreement",
        "label": "_paymentToken",
        "offset": 0,
        "slot": "1",
        "type": "t_address"
      },
      {
        "astId": 16211,
        "contract": "contracts/agreements/SimpleAgreement.sol:SimpleAgreement",
        "label": "_lender",
        "offset": 0,
        "slot": "2",
        "type": "t_address"
      },
      {
        "astId": 16213,
        "contract": "contracts/agreements/SimpleAgreement.sol:SimpleAgreement",
        "label": "_borrower",
        "offset": 0,
        "slot": "3",
        "type": "t_address"
      },
      {
        "astId": 16215,
        "contract": "contracts/agreements/SimpleAgreement.sol:SimpleAgreement",
        "label": "_hasPenalty",
        "offset": 20,
        "slot": "3",
        "type": "t_bool"
      },
      {
        "astId": 16218,
        "contract": "contracts/agreements/SimpleAgreement.sol:SimpleAgreement",
        "label": "_amounts",
        "offset": 0,
        "slot": "4",
        "type": "t_array(t_uint256)dyn_storage"
      },
      {
        "astId": 16221,
        "contract": "contracts/agreements/SimpleAgreement.sol:SimpleAgreement",
        "label": "_times",
        "offset": 0,
        "slot": "5",
        "type": "t_array(t_uint256)dyn_storage"
      },
      {
        "astId": 16224,
        "contract": "contracts/agreements/SimpleAgreement.sol:SimpleAgreement",
        "label": "_paymentCount",
        "offset": 0,
        "slot": "6",
        "type": "t_uint256"
      },
      {
        "astId": 16227,
        "contract": "contracts/agreements/SimpleAgreement.sol:SimpleAgreement",
        "label": "hasWithdrawn",
        "offset": 0,
        "slot": "7",
        "type": "t_bool"
      }
    ],
    "types": {
      "t_address": {
        "encoding": "inplace",
        "label": "address",
        "numberOfBytes": "20"
      },
      "t_array(t_uint256)dyn_storage": {
        "base": "t_uint256",
        "encoding": "dynamic_array",
        "label": "uint256[]",
        "numberOfBytes": "32"
      },
      "t_bool": {
        "encoding": "inplace",
        "label": "bool",
        "numberOfBytes": "1"
      },
      "t_uint256": {
        "encoding": "inplace",
        "label": "uint256",
        "numberOfBytes": "32"
      }
    }
  }
}