{
  "address": "0xA558f8EA2C0D284027c3D430c0dEDA96250295A2",
  "abi": [
    {
      "inputs": [
        {
          "internalType": "address",
          "name": "initialOwner",
          "type": "address"
        },
        {
          "internalType": "address",
          "name": "lendingPoolImplementation",
          "type": "address"
        },
        {
          "internalType": "address",
          "name": "lendingVotesImplementation",
          "type": "address"
        }
      ],
      "stateMutability": "nonpayable",
      "type": "constructor"
    },
    {
      "inputs": [],
      "name": "ERC1167FailedCreateClone",
      "type": "error"
    },
    {
      "inputs": [],
      "name": "EnforcedPause",
      "type": "error"
    },
    {
      "inputs": [],
      "name": "ExpectedPause",
      "type": "error"
    },
    {
      "inputs": [
        {
          "internalType": "address",
          "name": "owner",
          "type": "address"
        }
      ],
      "name": "OwnableInvalidOwner",
      "type": "error"
    },
    {
      "inputs": [
        {
          "internalType": "address",
          "name": "account",
          "type": "address"
        }
      ],
      "name": "OwnableUnauthorizedAccount",
      "type": "error"
    },
    {
      "anonymous": false,
      "inputs": [
        {
          "indexed": true,
          "internalType": "address",
          "name": "previousOwner",
          "type": "address"
        },
        {
          "indexed": true,
          "internalType": "address",
          "name": "newOwner",
          "type": "address"
        }
      ],
      "name": "OwnershipTransferred",
      "type": "event"
    },
    {
      "anonymous": false,
      "inputs": [
        {
          "indexed": false,
          "internalType": "address",
          "name": "account",
          "type": "address"
        }
      ],
      "name": "Paused",
      "type": "event"
    },
    {
      "anonymous": false,
      "inputs": [
        {
          "indexed": true,
          "internalType": "address",
          "name": "pool",
          "type": "address"
        },
        {
          "indexed": false,
          "internalType": "address",
          "name": "creator",
          "type": "address"
        }
      ],
      "name": "PoolCreated",
      "type": "event"
    },
    {
      "anonymous": false,
      "inputs": [
        {
          "indexed": false,
          "internalType": "address",
          "name": "account",
          "type": "address"
        }
      ],
      "name": "Unpaused",
      "type": "event"
    },
    {
      "inputs": [
        {
          "components": [
            {
              "internalType": "string",
              "name": "name",
              "type": "string"
            },
            {
              "internalType": "uint256",
              "name": "creditScore",
              "type": "uint256"
            },
            {
              "internalType": "uint256",
              "name": "maxAmountOfStakers",
              "type": "uint256"
            },
            {
              "internalType": "uint256",
              "name": "votingQuorum",
              "type": "uint256"
            },
            {
              "internalType": "uint256",
              "name": "maxPoolUsage",
              "type": "uint256"
            },
            {
              "internalType": "uint256",
              "name": "votingPowerCoolDown",
              "type": "uint256"
            },
            {
              "internalType": "uint256",
              "name": "initAmount",
              "type": "uint256"
            },
            {
              "internalType": "address",
              "name": "initToken",
              "type": "address"
            },
            {
              "internalType": "address[]",
              "name": "supportedAssets",
              "type": "address[]"
            },
            {
              "internalType": "address[]",
              "name": "supportedAgreements",
              "type": "address[]"
            }
          ],
          "internalType": "struct IStormBitLending.InitParams",
          "name": "params",
          "type": "tuple"
        }
      ],
      "name": "createPool",
      "outputs": [],
      "stateMutability": "nonpayable",
      "type": "function"
    },
    {
      "inputs": [],
      "name": "getPools",
      "outputs": [
        {
          "internalType": "address[]",
          "name": "",
          "type": "address[]"
        }
      ],
      "stateMutability": "view",
      "type": "function"
    },
    {
      "inputs": [
        {
          "internalType": "address",
          "name": "_address",
          "type": "address"
        }
      ],
      "name": "isKYCVerified",
      "outputs": [
        {
          "internalType": "bool",
          "name": "",
          "type": "bool"
        }
      ],
      "stateMutability": "view",
      "type": "function"
    },
    {
      "inputs": [
        {
          "internalType": "address",
          "name": "_strategy",
          "type": "address"
        }
      ],
      "name": "isSupportedStrategy",
      "outputs": [
        {
          "internalType": "bool",
          "name": "",
          "type": "bool"
        }
      ],
      "stateMutability": "view",
      "type": "function"
    },
    {
      "inputs": [],
      "name": "lastPool",
      "outputs": [
        {
          "internalType": "address",
          "name": "",
          "type": "address"
        }
      ],
      "stateMutability": "view",
      "type": "function"
    },
    {
      "inputs": [],
      "name": "owner",
      "outputs": [
        {
          "internalType": "address",
          "name": "",
          "type": "address"
        }
      ],
      "stateMutability": "view",
      "type": "function"
    },
    {
      "inputs": [],
      "name": "paused",
      "outputs": [
        {
          "internalType": "bool",
          "name": "",
          "type": "bool"
        }
      ],
      "stateMutability": "view",
      "type": "function"
    },
    {
      "inputs": [
        {
          "internalType": "uint256",
          "name": "",
          "type": "uint256"
        }
      ],
      "name": "pools",
      "outputs": [
        {
          "internalType": "address",
          "name": "",
          "type": "address"
        }
      ],
      "stateMutability": "view",
      "type": "function"
    },
    {
      "inputs": [],
      "name": "renounceOwnership",
      "outputs": [],
      "stateMutability": "nonpayable",
      "type": "function"
    },
    {
      "inputs": [
        {
          "internalType": "address",
          "name": "newOwner",
          "type": "address"
        }
      ],
      "name": "transferOwnership",
      "outputs": [],
      "stateMutability": "nonpayable",
      "type": "function"
    }
  ],
  "transactionHash": "0xadd7c542bb7307f3b8e61e8ab86140ce2a86b4bd9ecee74bda9e95290cedb195",
  "args": [
    "0xDe3089d40F3491De794fBb1ECA109fAc36F889d0",
    "0x29840eFC5f8727B1A2c852298B0d0f69Ab2d87AA",
    "0x15c454Fb01b37F8eB45c166bA8e7957d37AEc2a3"
  ],
  "numDeployments": 1,
  "solcInputHash": "72683f0531f88a38b7a3d549baeb4046",
  "bytecode": "0x608060405234801561001057600080fd5b50604051610b9a380380610b9a83398101604081905261002f91610113565b826001600160a01b03811661005e57604051631e4fbdf760e01b81526000600482015260240160405180910390fd5b610067816100a7565b506000805460ff60a01b19169055600480546001600160a01b039384166001600160a01b0319918216179091556005805492909316911617905550610156565b600080546001600160a01b038381166001600160a01b0319831681178455604051919092169283917f8be0079c531659141344cd1fd0a4f28419497f9722a3daafe3b4186f6b6457e09190a35050565b80516001600160a01b038116811461010e57600080fd5b919050565b60008060006060848603121561012857600080fd5b610131846100f7565b925061013f602085016100f7565b915061014d604085016100f7565b90509250925092565b610a35806101656000396000f3fe608060405234801561001057600080fd5b506004361061008e5760003560e01c80632fd49abe1461009357806354b7636e146100bc5780635c975abb146100e0578063673a2a1f146100f2578063715018a614610107578063856ac649146101115780638da5cb5b14610124578063ac4afa381461012c578063de5f8ccd146100bc578063f2fde38b1461013f575b600080fd5b6001546100a6906001600160a01b031681565b6040516100b39190610556565b60405180910390f35b6100d06100ca366004610581565b50600190565b60405190151581526020016100b3565b600054600160a01b900460ff166100d0565b6100fa610152565b6040516100b391906105a3565b61010f6101b4565b005b61010f61011f366004610754565b6101c8565b6100a66103de565b6100a661013a36600461085c565b6103ed565b61010f61014d366004610581565b610417565b606060068054806020026020016040519081016040528092919081815260200182805480156101aa57602002820191906000526020600020905b81546001600160a01b0316815260019091019060200180831161018c575b5050505050905090565b6101bc610455565b6101c66000610487565b565b6101d6565b60405180910390fd5b6004546000906101ee906001600160a01b03166104d7565b600554909150600090610209906001600160a01b03166104d7565b60405163189acdbd60e31b81529091506001600160a01b0382169063c4d66de890610238908590600401610556565b600060405180830381600087803b15801561025257600080fd5b505af1158015610266573d6000803e3d6000fd5b50505060e084015160c08501516040516323b872dd60e01b81523360048201526001600160a01b0386811660248301526044820192909252911691506323b872dd906064016020604051808303816000875af11580156102ca573d6000803e3d6000fd5b505050506040513d601f19601f820116820180604052508101906102ee9190610875565b50604051630d9ba8d960e21b81526001600160a01b0383169063366ea3649061031f90869033908690600401610921565b600060405180830381600087803b15801561033957600080fd5b505af115801561034d573d6000803e3d6000fd5b5050600680546001810182556000919091527ff652222313e28459528d920b65115c16c04f3efc82aaedc97be59f3f377c0d3f0180546001600160a01b0319166001600160a01b0386169081179091556040519092507f4f2ce4e40f623ca765fc0167a25cb7842ceaafb8d82d3dec26ca0d0e0d2d489691506103d1903390610556565b60405180910390a2505050565b6000546001600160a01b031690565b600681815481106103fd57600080fd5b6000918252602090912001546001600160a01b0316905081565b61041f610455565b6001600160a01b038116610449576000604051631e4fbdf760e01b81526004016101cd9190610556565b61045281610487565b50565b3361045e6103de565b6001600160a01b0316146101c6573360405163118cdaa760e01b81526004016101cd9190610556565b600080546001600160a01b038381166001600160a01b0319831681178455604051919092169283917f8be0079c531659141344cd1fd0a4f28419497f9722a3daafe3b4186f6b6457e09190a35050565b6000763d602d80600a3d3981f3363d3d373d3d3d363d730000008260601b60e81c176000526e5af43d82803e903d91602b57fd5bf38260781b17602052603760096000f090506001600160a01b038116610544576040516330be1a3d60e21b815260040160405180910390fd5b919050565b6001600160a01b03169052565b6001600160a01b0391909116815260200190565b80356001600160a01b038116811461054457600080fd5b60006020828403121561059357600080fd5b61059c8261056a565b9392505050565b6020808252825182820181905260009190848201906040850190845b818110156105e45783516001600160a01b0316835292840192918401916001016105bf565b50909695505050505050565b634e487b7160e01b600052604160045260246000fd5b60405161014081016001600160401b0381118282101715610629576106296105f0565b60405290565b604051601f8201601f191681016001600160401b0381118282101715610657576106576105f0565b604052919050565b600082601f83011261067057600080fd5b81356001600160401b03811115610689576106896105f0565b61069c601f8201601f191660200161062f565b8181528460208386010111156106b157600080fd5b816020850160208301376000918101602001919091529392505050565b600082601f8301126106df57600080fd5b813560206001600160401b038211156106fa576106fa6105f0565b8160051b61070982820161062f565b928352848101820192828101908785111561072357600080fd5b83870192505b848310156107495761073a8361056a565b82529183019190830190610729565b979650505050505050565b60006020828403121561076657600080fd5b81356001600160401b038082111561077d57600080fd5b90830190610140828603121561079257600080fd5b61079a610606565b8235828111156107a957600080fd5b6107b58782860161065f565b8252506020830135602082015260408301356040820152606083013560608201526080830135608082015260a083013560a082015260c083013560c082015261080060e0840161056a565b60e0820152610100808401358381111561081957600080fd5b610825888287016106ce565b828401525050610120808401358381111561083f57600080fd5b61084b888287016106ce565b918301919091525095945050505050565b60006020828403121561086e57600080fd5b5035919050565b60006020828403121561088757600080fd5b8151801515811461059c57600080fd5b6000815180845260005b818110156108bd576020818501810151868301820152016108a1565b506000602082860101526020601f19601f83011685010191505092915050565b600081518084526020808501945080840160005b838110156109165781516001600160a01b0316875295820195908201906001016108f1565b509495945050505050565b60608152600084516101408060608501526109406101a0850183610897565b915060208701516080850152604087015160a0850152606087015160c0850152608087015160e085015260a0870151610100818187015260c08901519150610120828188015260e08a0151925061099984880184610549565b818a01519350605f19925082878603016101608801526109b985856108dd565b9450808a0151935050508085840301610180860152506109d982826108dd565b925050506109ea6020830185610549565b6109f76040830184610549565b94935050505056fea264697066735822122033053fb5192893ab6899e73dacdab5838be78edb157e0abe15513166e1ddfc4664736f6c63430008150033",
  "devdoc": {
    "errors": {
      "ERC1167FailedCreateClone()": [
        {
          "details": "A clone instance deployment failed."
        }
      ],
      "EnforcedPause()": [
        {
          "details": "The operation failed because the contract is paused."
        }
      ],
      "ExpectedPause()": [
        {
          "details": "The operation failed because the contract is not paused."
        }
      ],
      "OwnableInvalidOwner(address)": [
        {
          "details": "The owner is not a valid owner account. (eg. `address(0)`)"
        }
      ],
      "OwnableUnauthorizedAccount(address)": [
        {
          "details": "The caller account is not authorized to perform an operation."
        }
      ]
    },
    "events": {
      "Paused(address)": {
        "details": "Emitted when the pause is triggered by `account`."
      },
      "Unpaused(address)": {
        "details": "Emitted when the pause is lifted by `account`."
      }
    },
    "kind": "dev",
    "methods": {
      "owner()": {
        "details": "Returns the address of the current owner."
      },
      "paused()": {
        "details": "Returns true if the contract is paused, and false otherwise."
      },
      "renounceOwnership()": {
        "details": "Leaves the contract without owner. It will not be possible to call `onlyOwner` functions. Can only be called by the current owner. NOTE: Renouncing ownership will leave the contract without an owner, thereby disabling any functionality that is only available to the owner."
      },
      "transferOwnership(address)": {
        "details": "Transfers ownership of the contract to a new account (`newOwner`). Can only be called by the current owner."
      }
    },
    "version": 1
  },
  "userdoc": {
    "kind": "user",
    "methods": {},
    "version": 1
  },
  "storageLayout": {
    "storage": [
      {
        "astId": 5227,
        "contract": "contracts/StormBitCore.sol:StormBitCore",
        "label": "_owner",
        "offset": 0,
        "slot": "0",
        "type": "t_address"
      },
      {
        "astId": 9497,
        "contract": "contracts/StormBitCore.sol:StormBitCore",
        "label": "_paused",
        "offset": 20,
        "slot": "0",
        "type": "t_bool"
      },
      {
        "astId": 16884,
        "contract": "contracts/StormBitCore.sol:StormBitCore",
        "label": "lastPool",
        "offset": 0,
        "slot": "1",
        "type": "t_address"
      },
      {
        "astId": 16887,
        "contract": "contracts/StormBitCore.sol:StormBitCore",
        "label": "_lendingPools",
        "offset": 0,
        "slot": "2",
        "type": "t_struct(AddressSet)15634_storage"
      },
      {
        "astId": 16889,
        "contract": "contracts/StormBitCore.sol:StormBitCore",
        "label": "_lendingPoolImplementation",
        "offset": 0,
        "slot": "4",
        "type": "t_address"
      },
      {
        "astId": 16891,
        "contract": "contracts/StormBitCore.sol:StormBitCore",
        "label": "_lendingVotesImplementation",
        "offset": 0,
        "slot": "5",
        "type": "t_address"
      },
      {
        "astId": 16894,
        "contract": "contracts/StormBitCore.sol:StormBitCore",
        "label": "pools",
        "offset": 0,
        "slot": "6",
        "type": "t_array(t_address)dyn_storage"
      }
    ],
    "types": {
      "t_address": {
        "encoding": "inplace",
        "label": "address",
        "numberOfBytes": "20"
      },
      "t_array(t_address)dyn_storage": {
        "base": "t_address",
        "encoding": "dynamic_array",
        "label": "address[]",
        "numberOfBytes": "32"
      },
      "t_array(t_bytes32)dyn_storage": {
        "base": "t_bytes32",
        "encoding": "dynamic_array",
        "label": "bytes32[]",
        "numberOfBytes": "32"
      },
      "t_bool": {
        "encoding": "inplace",
        "label": "bool",
        "numberOfBytes": "1"
      },
      "t_bytes32": {
        "encoding": "inplace",
        "label": "bytes32",
        "numberOfBytes": "32"
      },
      "t_mapping(t_bytes32,t_uint256)": {
        "encoding": "mapping",
        "key": "t_bytes32",
        "label": "mapping(bytes32 => uint256)",
        "numberOfBytes": "32",
        "value": "t_uint256"
      },
      "t_struct(AddressSet)15634_storage": {
        "encoding": "inplace",
        "label": "struct EnumerableSet.AddressSet",
        "members": [
          {
            "astId": 15633,
            "contract": "contracts/StormBitCore.sol:StormBitCore",
            "label": "_inner",
            "offset": 0,
            "slot": "0",
            "type": "t_struct(Set)15319_storage"
          }
        ],
        "numberOfBytes": "64"
      },
      "t_struct(Set)15319_storage": {
        "encoding": "inplace",
        "label": "struct EnumerableSet.Set",
        "members": [
          {
            "astId": 15314,
            "contract": "contracts/StormBitCore.sol:StormBitCore",
            "label": "_values",
            "offset": 0,
            "slot": "0",
            "type": "t_array(t_bytes32)dyn_storage"
          },
          {
            "astId": 15318,
            "contract": "contracts/StormBitCore.sol:StormBitCore",
            "label": "_positions",
            "offset": 0,
            "slot": "1",
            "type": "t_mapping(t_bytes32,t_uint256)"
          }
        ],
        "numberOfBytes": "64"
      },
      "t_uint256": {
        "encoding": "inplace",
        "label": "uint256",
        "numberOfBytes": "32"
      }
    }
  }
}