{
  "address": "0x29840eFC5f8727B1A2c852298B0d0f69Ab2d87AA",
  "abi": [
    {
      "inputs": [],
      "stateMutability": "nonpayable",
      "type": "constructor"
    },
    {
      "inputs": [],
      "name": "CheckpointUnorderedInsertion",
      "type": "error"
    },
    {
      "inputs": [],
      "name": "ERC1167FailedCreateClone",
      "type": "error"
    },
    {
      "inputs": [],
      "name": "FailedInnerCall",
      "type": "error"
    },
    {
      "inputs": [
        {
          "internalType": "address",
          "name": "voter",
          "type": "address"
        }
      ],
      "name": "GovernorAlreadyCastVote",
      "type": "error"
    },
    {
      "inputs": [
        {
          "internalType": "uint256",
          "name": "proposalId",
          "type": "uint256"
        }
      ],
      "name": "GovernorAlreadyQueuedProposal",
      "type": "error"
    },
    {
      "inputs": [],
      "name": "GovernorDisabledDeposit",
      "type": "error"
    },
    {
      "inputs": [
        {
          "internalType": "address",
          "name": "proposer",
          "type": "address"
        },
        {
          "internalType": "uint256",
          "name": "votes",
          "type": "uint256"
        },
        {
          "internalType": "uint256",
          "name": "threshold",
          "type": "uint256"
        }
      ],
      "name": "GovernorInsufficientProposerVotes",
      "type": "error"
    },
    {
      "inputs": [
        {
          "internalType": "uint256",
          "name": "targets",
          "type": "uint256"
        },
        {
          "internalType": "uint256",
          "name": "calldatas",
          "type": "uint256"
        },
        {
          "internalType": "uint256",
          "name": "values",
          "type": "uint256"
        }
      ],
      "name": "GovernorInvalidProposalLength",
      "type": "error"
    },
    {
      "inputs": [
        {
          "internalType": "uint256",
          "name": "quorumNumerator",
          "type": "uint256"
        },
        {
          "internalType": "uint256",
          "name": "quorumDenominator",
          "type": "uint256"
        }
      ],
      "name": "GovernorInvalidQuorumFraction",
      "type": "error"
    },
    {
      "inputs": [
        {
          "internalType": "address",
          "name": "voter",
          "type": "address"
        }
      ],
      "name": "GovernorInvalidSignature",
      "type": "error"
    },
    {
      "inputs": [],
      "name": "GovernorInvalidVoteType",
      "type": "error"
    },
    {
      "inputs": [
        {
          "internalType": "uint256",
          "name": "votingPeriod",
          "type": "uint256"
        }
      ],
      "name": "GovernorInvalidVotingPeriod",
      "type": "error"
    },
    {
      "inputs": [
        {
          "internalType": "uint256",
          "name": "proposalId",
          "type": "uint256"
        }
      ],
      "name": "GovernorNonexistentProposal",
      "type": "error"
    },
    {
      "inputs": [
        {
          "internalType": "uint256",
          "name": "proposalId",
          "type": "uint256"
        }
      ],
      "name": "GovernorNotQueuedProposal",
      "type": "error"
    },
    {
      "inputs": [
        {
          "internalType": "address",
          "name": "account",
          "type": "address"
        }
      ],
      "name": "GovernorOnlyExecutor",
      "type": "error"
    },
    {
      "inputs": [
        {
          "internalType": "address",
          "name": "account",
          "type": "address"
        }
      ],
      "name": "GovernorOnlyProposer",
      "type": "error"
    },
    {
      "inputs": [],
      "name": "GovernorQueueNotImplemented",
      "type": "error"
    },
    {
      "inputs": [
        {
          "internalType": "address",
          "name": "proposer",
          "type": "address"
        }
      ],
      "name": "GovernorRestrictedProposer",
      "type": "error"
    },
    {
      "inputs": [
        {
          "internalType": "uint256",
          "name": "proposalId",
          "type": "uint256"
        },
        {
          "internalType": "enum IGovernor.ProposalState",
          "name": "current",
          "type": "uint8"
        },
        {
          "internalType": "bytes32",
          "name": "expectedStates",
          "type": "bytes32"
        }
      ],
      "name": "GovernorUnexpectedProposalState",
      "type": "error"
    },
    {
      "inputs": [
        {
          "internalType": "address",
          "name": "account",
          "type": "address"
        },
        {
          "internalType": "uint256",
          "name": "currentNonce",
          "type": "uint256"
        }
      ],
      "name": "InvalidAccountNonce",
      "type": "error"
    },
    {
      "inputs": [],
      "name": "InvalidInitialization",
      "type": "error"
    },
    {
      "inputs": [],
      "name": "NotInitializing",
      "type": "error"
    },
    {
      "inputs": [
        {
          "internalType": "address",
          "name": "owner",
          "type": "address"
        }
      ],
      "name": "OwnableInvalidOwner",
      "type": "error"
    },
    {
      "inputs": [
        {
          "internalType": "address",
          "name": "account",
          "type": "address"
        }
      ],
      "name": "OwnableUnauthorizedAccount",
      "type": "error"
    },
    {
      "inputs": [],
      "name": "QueueEmpty",
      "type": "error"
    },
    {
      "inputs": [],
      "name": "QueueFull",
      "type": "error"
    },
    {
      "inputs": [],
      "name": "ReentrancyGuardReentrantCall",
      "type": "error"
    },
    {
      "inputs": [
        {
          "internalType": "uint8",
          "name": "bits",
          "type": "uint8"
        },
        {
          "internalType": "uint256",
          "name": "value",
          "type": "uint256"
        }
      ],
      "name": "SafeCastOverflowedUintDowncast",
      "type": "error"
    },
    {
      "anonymous": false,
      "inputs": [],
      "name": "EIP712DomainChanged",
      "type": "event"
    },
    {
      "anonymous": false,
      "inputs": [
        {
          "indexed": false,
          "internalType": "uint64",
          "name": "version",
          "type": "uint64"
        }
      ],
      "name": "Initialized",
      "type": "event"
    },
    {
      "anonymous": false,
      "inputs": [
        {
          "indexed": true,
          "internalType": "address",
          "name": "previousOwner",
          "type": "address"
        },
        {
          "indexed": true,
          "internalType": "address",
          "name": "newOwner",
          "type": "address"
        }
      ],
      "name": "OwnershipTransferred",
      "type": "event"
    },
    {
      "anonymous": false,
      "inputs": [
        {
          "indexed": false,
          "internalType": "uint256",
          "name": "proposalId",
          "type": "uint256"
        }
      ],
      "name": "ProposalCanceled",
      "type": "event"
    },
    {
      "anonymous": false,
      "inputs": [
        {
          "indexed": false,
          "internalType": "uint256",
          "name": "proposalId",
          "type": "uint256"
        },
        {
          "indexed": false,
          "internalType": "address",
          "name": "proposer",
          "type": "address"
        },
        {
          "indexed": false,
          "internalType": "address[]",
          "name": "targets",
          "type": "address[]"
        },
        {
          "indexed": false,
          "internalType": "uint256[]",
          "name": "values",
          "type": "uint256[]"
        },
        {
          "indexed": false,
          "internalType": "string[]",
          "name": "signatures",
          "type": "string[]"
        },
        {
          "indexed": false,
          "internalType": "bytes[]",
          "name": "calldatas",
          "type": "bytes[]"
        },
        {
          "indexed": false,
          "internalType": "uint256",
          "name": "voteStart",
          "type": "uint256"
        },
        {
          "indexed": false,
          "internalType": "uint256",
          "name": "voteEnd",
          "type": "uint256"
        },
        {
          "indexed": false,
          "internalType": "string",
          "name": "description",
          "type": "string"
        }
      ],
      "name": "ProposalCreated",
      "type": "event"
    },
    {
      "anonymous": false,
      "inputs": [
        {
          "indexed": false,
          "internalType": "uint256",
          "name": "proposalId",
          "type": "uint256"
        }
      ],
      "name": "ProposalExecuted",
      "type": "event"
    },
    {
      "anonymous": false,
      "inputs": [
        {
          "indexed": false,
          "internalType": "uint256",
          "name": "proposalId",
          "type": "uint256"
        },
        {
          "indexed": false,
          "internalType": "uint256",
          "name": "etaSeconds",
          "type": "uint256"
        }
      ],
      "name": "ProposalQueued",
      "type": "event"
    },
    {
      "anonymous": false,
      "inputs": [
        {
          "indexed": false,
          "internalType": "uint256",
          "name": "oldQuorumNumerator",
          "type": "uint256"
        },
        {
          "indexed": false,
          "internalType": "uint256",
          "name": "newQuorumNumerator",
          "type": "uint256"
        }
      ],
      "name": "QuorumNumeratorUpdated",
      "type": "event"
    },
    {
      "anonymous": false,
      "inputs": [
        {
          "indexed": true,
          "internalType": "address",
          "name": "voter",
          "type": "address"
        },
        {
          "indexed": false,
          "internalType": "uint256",
          "name": "proposalId",
          "type": "uint256"
        },
        {
          "indexed": false,
          "internalType": "uint8",
          "name": "support",
          "type": "uint8"
        },
        {
          "indexed": false,
          "internalType": "uint256",
          "name": "weight",
          "type": "uint256"
        },
        {
          "indexed": false,
          "internalType": "string",
          "name": "reason",
          "type": "string"
        }
      ],
      "name": "VoteCast",
      "type": "event"
    },
    {
      "anonymous": false,
      "inputs": [
        {
          "indexed": true,
          "internalType": "address",
          "name": "voter",
          "type": "address"
        },
        {
          "indexed": false,
          "internalType": "uint256",
          "name": "proposalId",
          "type": "uint256"
        },
        {
          "indexed": false,
          "internalType": "uint8",
          "name": "support",
          "type": "uint8"
        },
        {
          "indexed": false,
          "internalType": "uint256",
          "name": "weight",
          "type": "uint256"
        },
        {
          "indexed": false,
          "internalType": "string",
          "name": "reason",
          "type": "string"
        },
        {
          "indexed": false,
          "internalType": "bytes",
          "name": "params",
          "type": "bytes"
        }
      ],
      "name": "VoteCastWithParams",
      "type": "event"
    },
    {
      "inputs": [],
      "name": "BALLOT_TYPEHASH",
      "outputs": [
        {
          "internalType": "bytes32",
          "name": "",
          "type": "bytes32"
        }
      ],
      "stateMutability": "view",
      "type": "function"
    },
    {
      "inputs": [],
      "name": "CLOCK_MODE",
      "outputs": [
        {
          "internalType": "string",
          "name": "",
          "type": "string"
        }
      ],
      "stateMutability": "view",
      "type": "function"
    },
    {
      "inputs": [],
      "name": "COUNTING_MODE",
      "outputs": [
        {
          "internalType": "string",
          "name": "",
          "type": "string"
        }
      ],
      "stateMutability": "pure",
      "type": "function"
    },
    {
      "inputs": [],
      "name": "EXTENDED_BALLOT_TYPEHASH",
      "outputs": [
        {
          "internalType": "bytes32",
          "name": "",
          "type": "bytes32"
        }
      ],
      "stateMutability": "view",
      "type": "function"
    },
    {
      "inputs": [
        {
          "internalType": "bytes4",
          "name": "",
          "type": "bytes4"
        }
      ],
      "name": "_isSupportedAction",
      "outputs": [
        {
          "internalType": "bool",
          "name": "",
          "type": "bool"
        }
      ],
      "stateMutability": "view",
      "type": "function"
    },
    {
      "inputs": [
        {
          "internalType": "address",
          "name": "",
          "type": "address"
        }
      ],
      "name": "_isSupportedAgreement",
      "outputs": [
        {
          "internalType": "bool",
          "name": "",
          "type": "bool"
        }
      ],
      "stateMutability": "view",
      "type": "function"
    },
    {
      "inputs": [
        {
          "internalType": "address",
          "name": "",
          "type": "address"
        }
      ],
      "name": "_isSupportedAsset",
      "outputs": [
        {
          "internalType": "bool",
          "name": "",
          "type": "bool"
        }
      ],
      "stateMutability": "view",
      "type": "function"
    },
    {
      "inputs": [
        {
          "internalType": "uint256",
          "name": "",
          "type": "uint256"
        }
      ],
      "name": "_loanDetails",
      "outputs": [
        {
          "internalType": "address",
          "name": "token",
          "type": "address"
        },
        {
          "internalType": "uint256",
          "name": "amount",
          "type": "uint256"
        },
        {
          "internalType": "address",
          "name": "agreement",
          "type": "address"
        },
        {
          "internalType": "bytes",
          "name": "agreementCalldata",
          "type": "bytes"
        },
        {
          "internalType": "uint256",
          "name": "loanId",
          "type": "uint256"
        },
        {
          "internalType": "address",
          "name": "borrower",
          "type": "address"
        }
      ],
      "stateMutability": "view",
      "type": "function"
    },
    {
      "inputs": [
        {
          "internalType": "uint256",
          "name": "",
          "type": "uint256"
        }
      ],
      "name": "_loanRequests",
      "outputs": [
        {
          "internalType": "uint256",
          "name": "",
          "type": "uint256"
        }
      ],
      "stateMutability": "view",
      "type": "function"
    },
    {
      "inputs": [
        {
          "internalType": "uint256",
          "name": "",
          "type": "uint256"
        }
      ],
      "name": "_stakers",
      "outputs": [
        {
          "internalType": "address",
          "name": "",
          "type": "address"
        }
      ],
      "stateMutability": "view",
      "type": "function"
    },
    {
      "inputs": [
        {
          "internalType": "uint256",
          "name": "",
          "type": "uint256"
        }
      ],
      "name": "_supportedAgreements",
      "outputs": [
        {
          "internalType": "address",
          "name": "",
          "type": "address"
        }
      ],
      "stateMutability": "view",
      "type": "function"
    },
    {
      "inputs": [
        {
          "internalType": "uint256",
          "name": "",
          "type": "uint256"
        }
      ],
      "name": "_supportedAssets",
      "outputs": [
        {
          "internalType": "address",
          "name": "",
          "type": "address"
        }
      ],
      "stateMutability": "view",
      "type": "function"
    },
    {
      "inputs": [
        {
          "internalType": "address",
          "name": "",
          "type": "address"
        }
      ],
      "name": "_userAgreement",
      "outputs": [
        {
          "internalType": "address",
          "name": "",
          "type": "address"
        }
      ],
      "stateMutability": "view",
      "type": "function"
    },
    {
      "inputs": [],
      "name": "_votingPowerCoolDown",
      "outputs": [
        {
          "internalType": "uint256",
          "name": "",
          "type": "uint256"
        }
      ],
      "stateMutability": "view",
      "type": "function"
    },
    {
      "inputs": [
        {
          "internalType": "address[]",
          "name": "targets",
          "type": "address[]"
        },
        {
          "internalType": "uint256[]",
          "name": "values",
          "type": "uint256[]"
        },
        {
          "internalType": "bytes[]",
          "name": "calldatas",
          "type": "bytes[]"
        },
        {
          "internalType": "bytes32",
          "name": "descriptionHash",
          "type": "bytes32"
        }
      ],
      "name": "cancel",
      "outputs": [
        {
          "internalType": "uint256",
          "name": "",
          "type": "uint256"
        }
      ],
      "stateMutability": "nonpayable",
      "type": "function"
    },
    {
      "inputs": [
        {
          "internalType": "uint256",
          "name": "proposalId",
          "type": "uint256"
        },
        {
          "internalType": "uint8",
          "name": "support",
          "type": "uint8"
        }
      ],
      "name": "castVote",
      "outputs": [
        {
          "internalType": "uint256",
          "name": "",
          "type": "uint256"
        }
      ],
      "stateMutability": "nonpayable",
      "type": "function"
    },
    {
      "inputs": [
        {
          "internalType": "uint256",
          "name": "proposalId",
          "type": "uint256"
        },
        {
          "internalType": "uint8",
          "name": "support",
          "type": "uint8"
        },
        {
          "internalType": "address",
          "name": "voter",
          "type": "address"
        },
        {
          "internalType": "bytes",
          "name": "signature",
          "type": "bytes"
        }
      ],
      "name": "castVoteBySig",
      "outputs": [
        {
          "internalType": "uint256",
          "name": "",
          "type": "uint256"
        }
      ],
      "stateMutability": "nonpayable",
      "type": "function"
    },
    {
      "inputs": [
        {
          "internalType": "uint256",
          "name": "proposalId",
          "type": "uint256"
        },
        {
          "internalType": "uint8",
          "name": "support",
          "type": "uint8"
        },
        {
          "internalType": "string",
          "name": "reason",
          "type": "string"
        }
      ],
      "name": "castVoteWithReason",
      "outputs": [
        {
          "internalType": "uint256",
          "name": "",
          "type": "uint256"
        }
      ],
      "stateMutability": "nonpayable",
      "type": "function"
    },
    {
      "inputs": [
        {
          "internalType": "uint256",
          "name": "proposalId",
          "type": "uint256"
        },
        {
          "internalType": "uint8",
          "name": "support",
          "type": "uint8"
        },
        {
          "internalType": "string",
          "name": "reason",
          "type": "string"
        },
        {
          "internalType": "bytes",
          "name": "params",
          "type": "bytes"
        }
      ],
      "name": "castVoteWithReasonAndParams",
      "outputs": [
        {
          "internalType": "uint256",
          "name": "",
          "type": "uint256"
        }
      ],
      "stateMutability": "nonpayable",
      "type": "function"
    },
    {
      "inputs": [
        {
          "internalType": "uint256",
          "name": "proposalId",
          "type": "uint256"
        },
        {
          "internalType": "uint8",
          "name": "support",
          "type": "uint8"
        },
        {
          "internalType": "address",
          "name": "voter",
          "type": "address"
        },
        {
          "internalType": "string",
          "name": "reason",
          "type": "string"
        },
        {
          "internalType": "bytes",
          "name": "params",
          "type": "bytes"
        },
        {
          "internalType": "bytes",
          "name": "signature",
          "type": "bytes"
        }
      ],
      "name": "castVoteWithReasonAndParamsBySig",
      "outputs": [
        {
          "internalType": "uint256",
          "name": "",
          "type": "uint256"
        }
      ],
      "stateMutability": "nonpayable",
      "type": "function"
    },
    {
      "inputs": [
        {
          "internalType": "address",
          "name": "agreement",
          "type": "address"
        },
        {
          "internalType": "bool",
          "name": "status",
          "type": "bool"
        }
      ],
      "name": "changeAgreementStatus",
      "outputs": [],
      "stateMutability": "nonpayable",
      "type": "function"
    },
    {
      "inputs": [
        {
          "internalType": "uint256",
          "name": "newMaxAmountOfStakers",
          "type": "uint256"
        }
      ],
      "name": "changeMaxAmountOfStakers",
      "outputs": [],
      "stateMutability": "nonpayable",
      "type": "function"
    },
    {
      "inputs": [
        {
          "internalType": "uint256",
          "name": "newMaxPoolUsage",
          "type": "uint256"
        }
      ],
      "name": "changeMaxPoolUsage",
      "outputs": [],
      "stateMutability": "nonpayable",
      "type": "function"
    },
    {
      "inputs": [
        {
          "internalType": "uint256",
          "name": "newCoolDown",
          "type": "uint256"
        }
      ],
      "name": "changeVotingPowerCoolDown",
      "outputs": [],
      "stateMutability": "nonpayable",
      "type": "function"
    },
    {
      "inputs": [
        {
          "internalType": "uint256",
          "name": "newQuorum",
          "type": "uint256"
        }
      ],
      "name": "changeVotingQuorum",
      "outputs": [],
      "stateMutability": "nonpayable",
      "type": "function"
    },
    {
      "inputs": [],
      "name": "clock",
      "outputs": [
        {
          "internalType": "uint48",
          "name": "",
          "type": "uint48"
        }
      ],
      "stateMutability": "view",
      "type": "function"
    },
    {
      "inputs": [],
      "name": "creditScore",
      "outputs": [
        {
          "internalType": "uint256",
          "name": "",
          "type": "uint256"
        }
      ],
      "stateMutability": "view",
      "type": "function"
    },
    {
      "inputs": [],
      "name": "eip712Domain",
      "outputs": [
        {
          "internalType": "bytes1",
          "name": "fields",
          "type": "bytes1"
        },
        {
          "internalType": "string",
          "name": "name",
          "type": "string"
        },
        {
          "internalType": "string",
          "name": "version",
          "type": "string"
        },
        {
          "internalType": "uint256",
          "name": "chainId",
          "type": "uint256"
        },
        {
          "internalType": "address",
          "name": "verifyingContract",
          "type": "address"
        },
        {
          "internalType": "bytes32",
          "name": "salt",
          "type": "bytes32"
        },
        {
          "internalType": "uint256[]",
          "name": "extensions",
          "type": "uint256[]"
        }
      ],
      "stateMutability": "view",
      "type": "function"
    },
    {
      "inputs": [
        {
          "internalType": "address[]",
          "name": "targets",
          "type": "address[]"
        },
        {
          "internalType": "uint256[]",
          "name": "values",
          "type": "uint256[]"
        },
        {
          "internalType": "bytes[]",
          "name": "calldatas",
          "type": "bytes[]"
        },
        {
          "internalType": "bytes32",
          "name": "descriptionHash",
          "type": "bytes32"
        }
      ],
      "name": "execute",
      "outputs": [
        {
          "internalType": "uint256",
          "name": "",
          "type": "uint256"
        }
      ],
      "stateMutability": "payable",
      "type": "function"
    },
    {
      "inputs": [
        {
          "internalType": "address",
          "name": "token",
          "type": "address"
        },
        {
          "internalType": "address",
          "name": "to",
          "type": "address"
        },
        {
          "internalType": "uint256",
          "name": "amount",
          "type": "uint256"
        },
        {
          "internalType": "address",
          "name": "agreement",
          "type": "address"
        },
        {
          "internalType": "bytes",
          "name": "agreementCalldata",
          "type": "bytes"
        }
      ],
      "name": "executeLoan",
      "outputs": [],
      "stateMutability": "nonpayable",
      "type": "function"
    },
    {
      "inputs": [
        {
          "internalType": "uint256",
          "name": "loanRequestId",
          "type": "uint256"
        }
      ],
      "name": "getLoanData",
      "outputs": [
        {
          "components": [
            {
              "internalType": "address",
              "name": "token",
              "type": "address"
            },
            {
              "internalType": "uint256",
              "name": "amount",
              "type": "uint256"
            },
            {
              "internalType": "address",
              "name": "agreement",
              "type": "address"
            },
            {
              "internalType": "bytes",
              "name": "agreementCalldata",
              "type": "bytes"
            },
            {
              "internalType": "uint256",
              "name": "loanId",
              "type": "uint256"
            },
            {
              "internalType": "address",
              "name": "borrower",
              "type": "address"
            }
          ],
          "internalType": "struct IStormBitLending.LoanDetails",
          "name": "",
          "type": "tuple"
        },
        {
          "internalType": "enum IGovernor.ProposalState",
          "name": "",
          "type": "uint8"
        },
        {
          "internalType": "address",
          "name": "",
          "type": "address"
        }
      ],
      "stateMutability": "view",
      "type": "function"
    },
    {
      "inputs": [],
      "name": "getLoansDatas",
      "outputs": [
        {
          "components": [
            {
              "internalType": "address",
              "name": "token",
              "type": "address"
            },
            {
              "internalType": "uint256",
              "name": "amount",
              "type": "uint256"
            },
            {
              "internalType": "address",
              "name": "agreement",
              "type": "address"
            },
            {
              "internalType": "bytes",
              "name": "agreementCalldata",
              "type": "bytes"
            },
            {
              "internalType": "uint256",
              "name": "loanId",
              "type": "uint256"
            },
            {
              "internalType": "address",
              "name": "borrower",
              "type": "address"
            }
          ],
          "internalType": "struct IStormBitLending.LoanDetails[]",
          "name": "",
          "type": "tuple[]"
        },
        {
          "internalType": "enum IGovernor.ProposalState[]",
          "name": "",
          "type": "uint8[]"
        },
        {
          "internalType": "address[]",
          "name": "",
          "type": "address[]"
        }
      ],
      "stateMutability": "view",
      "type": "function"
    },
    {
      "inputs": [],
      "name": "getPoolData",
      "outputs": [
        {
          "components": [
            {
              "internalType": "string",
              "name": "name",
              "type": "string"
            },
            {
              "internalType": "uint256",
              "name": "creditScore",
              "type": "uint256"
            },
            {
              "internalType": "uint256",
              "name": "maxAmountOfStakers",
              "type": "uint256"
            },
            {
              "internalType": "uint256",
              "name": "votingQuorum",
              "type": "uint256"
            },
            {
              "internalType": "uint256",
              "name": "maxPoolUsage",
              "type": "uint256"
            },
            {
              "internalType": "uint256",
              "name": "totalBorrowed",
              "type": "uint256"
            },
            {
              "internalType": "uint256",
              "name": "totalSupplied",
              "type": "uint256"
            },
            {
              "internalType": "address[]",
              "name": "stakers",
              "type": "address[]"
            },
            {
              "internalType": "address[]",
              "name": "supportedAssets",
              "type": "address[]"
            },
            {
              "internalType": "address[]",
              "name": "supportedAgreements",
              "type": "address[]"
            },
            {
              "internalType": "uint256[]",
              "name": "loanRequests",
              "type": "uint256[]"
            }
          ],
          "internalType": "struct IStormBitLending.PoolData",
          "name": "",
          "type": "tuple"
        }
      ],
      "stateMutability": "view",
      "type": "function"
    },
    {
      "inputs": [
        {
          "internalType": "address",
          "name": "account",
          "type": "address"
        }
      ],
      "name": "getValidVotes",
      "outputs": [
        {
          "internalType": "uint256",
          "name": "",
          "type": "uint256"
        }
      ],
      "stateMutability": "view",
      "type": "function"
    },
    {
      "inputs": [
        {
          "internalType": "address",
          "name": "account",
          "type": "address"
        },
        {
          "internalType": "uint256",
          "name": "timepoint",
          "type": "uint256"
        }
      ],
      "name": "getVotes",
      "outputs": [
        {
          "internalType": "uint256",
          "name": "",
          "type": "uint256"
        }
      ],
      "stateMutability": "view",
      "type": "function"
    },
    {
      "inputs": [
        {
          "internalType": "address",
          "name": "account",
          "type": "address"
        },
        {
          "internalType": "uint256",
          "name": "timepoint",
          "type": "uint256"
        },
        {
          "internalType": "bytes",
          "name": "params",
          "type": "bytes"
        }
      ],
      "name": "getVotesWithParams",
      "outputs": [
        {
          "internalType": "uint256",
          "name": "",
          "type": "uint256"
        }
      ],
      "stateMutability": "view",
      "type": "function"
    },
    {
      "inputs": [
        {
          "internalType": "address",
          "name": "staker",
          "type": "address"
        }
      ],
      "name": "getVotingPower",
      "outputs": [
        {
          "internalType": "uint256",
          "name": "",
          "type": "uint256"
        }
      ],
      "stateMutability": "view",
      "type": "function"
    },
    {
      "inputs": [
        {
          "internalType": "uint256",
          "name": "proposalId",
          "type": "uint256"
        },
        {
          "internalType": "address",
          "name": "account",
          "type": "address"
        }
      ],
      "name": "hasVoted",
      "outputs": [
        {
          "internalType": "bool",
          "name": "",
          "type": "bool"
        }
      ],
      "stateMutability": "view",
      "type": "function"
    },
    {
      "inputs": [
        {
          "internalType": "address[]",
          "name": "targets",
          "type": "address[]"
        },
        {
          "internalType": "uint256[]",
          "name": "values",
          "type": "uint256[]"
        },
        {
          "internalType": "bytes[]",
          "name": "calldatas",
          "type": "bytes[]"
        },
        {
          "internalType": "bytes32",
          "name": "descriptionHash",
          "type": "bytes32"
        }
      ],
      "name": "hashProposal",
      "outputs": [
        {
          "internalType": "uint256",
          "name": "",
          "type": "uint256"
        }
      ],
      "stateMutability": "pure",
      "type": "function"
    },
    {
      "inputs": [
        {
          "components": [
            {
              "internalType": "string",
              "name": "name",
              "type": "string"
            },
            {
              "internalType": "uint256",
              "name": "creditScore",
              "type": "uint256"
            },
            {
              "internalType": "uint256",
              "name": "maxAmountOfStakers",
              "type": "uint256"
            },
            {
              "internalType": "uint256",
              "name": "votingQuorum",
              "type": "uint256"
            },
            {
              "internalType": "uint256",
              "name": "maxPoolUsage",
              "type": "uint256"
            },
            {
              "internalType": "uint256",
              "name": "votingPowerCoolDown",
              "type": "uint256"
            },
            {
              "internalType": "uint256",
              "name": "initAmount",
              "type": "uint256"
            },
            {
              "internalType": "address",
              "name": "initToken",
              "type": "address"
            },
            {
              "internalType": "address[]",
              "name": "supportedAssets",
              "type": "address[]"
            },
            {
              "internalType": "address[]",
              "name": "supportedAgreements",
              "type": "address[]"
            }
          ],
          "internalType": "struct IStormBitLending.InitParams",
          "name": "params",
          "type": "tuple"
        },
        {
          "internalType": "address",
          "name": "_firstOwner",
          "type": "address"
        },
        {
          "internalType": "address",
          "name": "stormBitLendingVotes",
          "type": "address"
        }
      ],
      "name": "initializeLending",
      "outputs": [],
      "stateMutability": "nonpayable",
      "type": "function"
    },
    {
      "inputs": [],
      "name": "name",
      "outputs": [
        {
          "internalType": "string",
          "name": "",
          "type": "string"
        }
      ],
      "stateMutability": "view",
      "type": "function"
    },
    {
      "inputs": [
        {
          "internalType": "address",
          "name": "owner",
          "type": "address"
        }
      ],
      "name": "nonces",
      "outputs": [
        {
          "internalType": "uint256",
          "name": "",
          "type": "uint256"
        }
      ],
      "stateMutability": "view",
      "type": "function"
    },
    {
      "inputs": [
        {
          "internalType": "address",
          "name": "",
          "type": "address"
        },
        {
          "internalType": "address",
          "name": "",
          "type": "address"
        },
        {
          "internalType": "uint256[]",
          "name": "",
          "type": "uint256[]"
        },
        {
          "internalType": "uint256[]",
          "name": "",
          "type": "uint256[]"
        },
        {
          "internalType": "bytes",
          "name": "",
          "type": "bytes"
        }
      ],
      "name": "onERC1155BatchReceived",
      "outputs": [
        {
          "internalType": "bytes4",
          "name": "",
          "type": "bytes4"
        }
      ],
      "stateMutability": "nonpayable",
      "type": "function"
    },
    {
      "inputs": [
        {
          "internalType": "address",
          "name": "",
          "type": "address"
        },
        {
          "internalType": "address",
          "name": "",
          "type": "address"
        },
        {
          "internalType": "uint256",
          "name": "",
          "type": "uint256"
        },
        {
          "internalType": "uint256",
          "name": "",
          "type": "uint256"
        },
        {
          "internalType": "bytes",
          "name": "",
          "type": "bytes"
        }
      ],
      "name": "onERC1155Received",
      "outputs": [
        {
          "internalType": "bytes4",
          "name": "",
          "type": "bytes4"
        }
      ],
      "stateMutability": "nonpayable",
      "type": "function"
    },
    {
      "inputs": [
        {
          "internalType": "address",
          "name": "",
          "type": "address"
        },
        {
          "internalType": "address",
          "name": "",
          "type": "address"
        },
        {
          "internalType": "uint256",
          "name": "",
          "type": "uint256"
        },
        {
          "internalType": "bytes",
          "name": "",
          "type": "bytes"
        }
      ],
      "name": "onERC721Received",
      "outputs": [
        {
          "internalType": "bytes4",
          "name": "",
          "type": "bytes4"
        }
      ],
      "stateMutability": "nonpayable",
      "type": "function"
    },
    {
      "inputs": [],
      "name": "owner",
      "outputs": [
        {
          "internalType": "address",
          "name": "",
          "type": "address"
        }
      ],
      "stateMutability": "view",
      "type": "function"
    },
    {
      "inputs": [
        {
          "internalType": "uint256",
          "name": "proposalId",
          "type": "uint256"
        }
      ],
      "name": "proposalDeadline",
      "outputs": [
        {
          "internalType": "uint256",
          "name": "",
          "type": "uint256"
        }
      ],
      "stateMutability": "view",
      "type": "function"
    },
    {
      "inputs": [
        {
          "internalType": "uint256",
          "name": "proposalId",
          "type": "uint256"
        }
      ],
      "name": "proposalEta",
      "outputs": [
        {
          "internalType": "uint256",
          "name": "",
          "type": "uint256"
        }
      ],
      "stateMutability": "view",
      "type": "function"
    },
    {
      "inputs": [
        {
          "internalType": "uint256",
          "name": "",
          "type": "uint256"
        }
      ],
      "name": "proposalNeedsQueuing",
      "outputs": [
        {
          "internalType": "bool",
          "name": "",
          "type": "bool"
        }
      ],
      "stateMutability": "view",
      "type": "function"
    },
    {
      "inputs": [
        {
          "internalType": "uint256",
          "name": "proposalId",
          "type": "uint256"
        }
      ],
      "name": "proposalProposer",
      "outputs": [
        {
          "internalType": "address",
          "name": "",
          "type": "address"
        }
      ],
      "stateMutability": "view",
      "type": "function"
    },
    {
      "inputs": [
        {
          "internalType": "uint256",
          "name": "proposalId",
          "type": "uint256"
        }
      ],
      "name": "proposalSnapshot",
      "outputs": [
        {
          "internalType": "uint256",
          "name": "",
          "type": "uint256"
        }
      ],
      "stateMutability": "view",
      "type": "function"
    },
    {
      "inputs": [],
      "name": "proposalThreshold",
      "outputs": [
        {
          "internalType": "uint256",
          "name": "",
          "type": "uint256"
        }
      ],
      "stateMutability": "view",
      "type": "function"
    },
    {
      "inputs": [
        {
          "internalType": "uint256",
          "name": "proposalId",
          "type": "uint256"
        }
      ],
      "name": "proposalVotes",
      "outputs": [
        {
          "internalType": "uint256",
          "name": "againstVotes",
          "type": "uint256"
        },
        {
          "internalType": "uint256",
          "name": "forVotes",
          "type": "uint256"
        },
        {
          "internalType": "uint256",
          "name": "abstainVotes",
          "type": "uint256"
        }
      ],
      "stateMutability": "view",
      "type": "function"
    },
    {
      "inputs": [
        {
          "internalType": "address[]",
          "name": "targets",
          "type": "address[]"
        },
        {
          "internalType": "uint256[]",
          "name": "values",
          "type": "uint256[]"
        },
        {
          "internalType": "bytes[]",
          "name": "calldatas",
          "type": "bytes[]"
        },
        {
          "internalType": "string",
          "name": "description",
          "type": "string"
        }
      ],
      "name": "propose",
      "outputs": [
        {
          "internalType": "uint256",
          "name": "",
          "type": "uint256"
        }
      ],
      "stateMutability": "nonpayable",
      "type": "function"
    },
    {
      "inputs": [
        {
          "internalType": "address[]",
          "name": "targets",
          "type": "address[]"
        },
        {
          "internalType": "uint256[]",
          "name": "values",
          "type": "uint256[]"
        },
        {
          "internalType": "bytes[]",
          "name": "calldatas",
          "type": "bytes[]"
        },
        {
          "internalType": "bytes32",
          "name": "descriptionHash",
          "type": "bytes32"
        }
      ],
      "name": "queue",
      "outputs": [
        {
          "internalType": "uint256",
          "name": "",
          "type": "uint256"
        }
      ],
      "stateMutability": "nonpayable",
      "type": "function"
    },
    {
      "inputs": [
        {
          "internalType": "uint256",
          "name": "timepoint",
          "type": "uint256"
        }
      ],
      "name": "quorum",
      "outputs": [
        {
          "internalType": "uint256",
          "name": "",
          "type": "uint256"
        }
      ],
      "stateMutability": "view",
      "type": "function"
    },
    {
      "inputs": [],
      "name": "quorumDenominator",
      "outputs": [
        {
          "internalType": "uint256",
          "name": "",
          "type": "uint256"
        }
      ],
      "stateMutability": "view",
      "type": "function"
    },
    {
      "inputs": [
        {
          "internalType": "uint256",
          "name": "timepoint",
          "type": "uint256"
        }
      ],
      "name": "quorumNumerator",
      "outputs": [
        {
          "internalType": "uint256",
          "name": "",
          "type": "uint256"
        }
      ],
      "stateMutability": "view",
      "type": "function"
    },
    {
      "inputs": [],
      "name": "quorumNumerator",
      "outputs": [
        {
          "internalType": "uint256",
          "name": "",
          "type": "uint256"
        }
      ],
      "stateMutability": "view",
      "type": "function"
    },
    {
      "inputs": [
        {
          "internalType": "address",
          "name": "target",
          "type": "address"
        },
        {
          "internalType": "uint256",
          "name": "value",
          "type": "uint256"
        },
        {
          "internalType": "bytes",
          "name": "data",
          "type": "bytes"
        }
      ],
      "name": "relay",
      "outputs": [],
      "stateMutability": "payable",
      "type": "function"
    },
    {
      "inputs": [],
      "name": "renounceOwnership",
      "outputs": [],
      "stateMutability": "nonpayable",
      "type": "function"
    },
    {
      "inputs": [
        {
          "components": [
            {
              "internalType": "uint256",
              "name": "amount",
              "type": "uint256"
            },
            {
              "internalType": "address",
              "name": "token",
              "type": "address"
            },
            {
              "internalType": "address",
              "name": "agreement",
              "type": "address"
            },
            {
              "internalType": "bytes",
              "name": "agreementCalldata",
              "type": "bytes"
            }
          ],
          "internalType": "struct IStormBitLending.LoanRequestParams",
          "name": "params",
          "type": "tuple"
        }
      ],
      "name": "requestLoan",
      "outputs": [
        {
          "internalType": "uint256",
          "name": "proposalId",
          "type": "uint256"
        }
      ],
      "stateMutability": "nonpayable",
      "type": "function"
    },
    {
      "inputs": [
        {
          "internalType": "address",
          "name": "token",
          "type": "address"
        },
        {
          "internalType": "uint256",
          "name": "amount",
          "type": "uint256"
        }
      ],
      "name": "stake",
      "outputs": [],
      "stateMutability": "nonpayable",
      "type": "function"
    },
    {
      "inputs": [
        {
          "internalType": "uint256",
          "name": "proposalId",
          "type": "uint256"
        }
      ],
      "name": "state",
      "outputs": [
        {
          "internalType": "enum IGovernor.ProposalState",
          "name": "",
          "type": "uint8"
        }
      ],
      "stateMutability": "view",
      "type": "function"
    },
    {
      "inputs": [
        {
          "internalType": "bytes4",
          "name": "interfaceId",
          "type": "bytes4"
        }
      ],
      "name": "supportsInterface",
      "outputs": [
        {
          "internalType": "bool",
          "name": "",
          "type": "bool"
        }
      ],
      "stateMutability": "view",
      "type": "function"
    },
    {
      "inputs": [],
      "name": "token",
      "outputs": [
        {
          "internalType": "contract IERC5805",
          "name": "",
          "type": "address"
        }
      ],
      "stateMutability": "view",
      "type": "function"
    },
    {
      "inputs": [
        {
          "internalType": "address",
          "name": "newOwner",
          "type": "address"
        }
      ],
      "name": "transferOwnership",
      "outputs": [],
      "stateMutability": "nonpayable",
      "type": "function"
    },
    {
      "inputs": [
        {
          "internalType": "uint256",
          "name": "newQuorumNumerator",
          "type": "uint256"
        }
      ],
      "name": "updateQuorumNumerator",
      "outputs": [],
      "stateMutability": "nonpayable",
      "type": "function"
    },
    {
      "inputs": [
        {
          "internalType": "address",
          "name": "user",
          "type": "address"
        }
      ],
      "name": "userAgreement",
      "outputs": [
        {
          "internalType": "address",
          "name": "",
          "type": "address"
        }
      ],
      "stateMutability": "view",
      "type": "function"
    },
    {
      "inputs": [],
      "name": "version",
      "outputs": [
        {
          "internalType": "string",
          "name": "",
          "type": "string"
        }
      ],
      "stateMutability": "view",
      "type": "function"
    },
    {
      "inputs": [],
      "name": "votingDelay",
      "outputs": [
        {
          "internalType": "uint256",
          "name": "",
          "type": "uint256"
        }
      ],
      "stateMutability": "pure",
      "type": "function"
    },
    {
      "inputs": [],
      "name": "votingPeriod",
      "outputs": [
        {
          "internalType": "uint256",
          "name": "",
          "type": "uint256"
        }
      ],
      "stateMutability": "pure",
      "type": "function"
    },
    {
      "stateMutability": "payable",
      "type": "receive"
    }
  ],
  "transactionHash": "0xfc712549b746bd4a6226b0b417dc70ffe5fc98e6782fa49d9ce0e067a69f55a8",
  "args": [],
  "numDeployments": 1,
  "solcInputHash": "72683f0531f88a38b7a3d549baeb4046",
  "bytecode": "0x608060405260006007553480156200001657600080fd5b506001600055620000266200002c565b620000e0565b7ff0c57e16840df040f15088dc2f81fe391c3923bec73e23a9662efc9c229c6a00805468010000000000000000900460ff16156200007d5760405163f92ee8a960e01b815260040160405180910390fd5b80546001600160401b0390811614620000dd5780546001600160401b0319166001600160401b0390811782556040519081527fc7f505b2f371ae2175ee4913f4499e1f2633a7b5936321eed1cdaeb6115181d29060200160405180910390a15b50565b615e5780620000f06000396000f3fe60806040526004361061032f5760003560e01c806301ffc9a71461033d57806302a251a31461037257806306f3f9e61461039157806306fdde03146103b1578063143489d0146103d3578063150b7a0214610400578063160cbed7146104445780632656227d14610464578063269dadb3146104775780632d63f693146104975780632fb19d91146104b75780632fe3e261146104e7578063366ea36414610509578063372f2af5146105295780633932abb11461054957806339da31521461055d5780633e4f49e6146105725780633e5564941461059f578063418dbeb8146105bf57806343859632146105f5578063452115d6146106155780634958f436146106355780634bf5d7e9146106555780634f4767a61461069b578063544ffc9c146106cb57806354fd4d50146106fa578063567813881461070f5780635b03b3961461072f5780635b8d0e0d146107685780635f398a141461078857806360c4247f146107a8578063622fe39f146107c8578063667128e6146107f757806370877dc214610817578063715018a61461082d5780637b3c71d3146108425780637d5e81e2146108625780637ecebe001461088257806384b0196e146108a257806387214e26146108ca5780638da5cb5b146108ea5780638ff262e3146108ff57806391ddadf41461091f57806397c3d3341461094b5780639a802a6d1461095f578063a7713a701461097f578063a9a9529414610994578063aa68ffb0146109b5578063ab58fb8e146109d5578063adc9772e146109f5578063aea5961414610a15578063b58131b014610549578063b62f80d014610a35578063b85893bd14610a67578063bb4d443614610a87578063bc197c8114610aa7578063c01f9e3714610ad3578063c28bc2fa14610af3578063c36d9cb814610b06578063c59057e414610b26578063c5beb37014610b46578063d45cc62714610b66578063dd4e2ba514610b86578063deaaa7cc14610bcc578063eb9019d414610bee578063ef48d75114610c0e578063f23a6e6114610c3e578063f2fde38b14610c6a578063f564712114610c8a578063f8ce560a14610cae578063fb29238b14610cce578063fc0c546a14610cf057600080fd5b3661033857005b005b600080fd5b34801561034957600080fd5b5061035d61035836600461478d565b610d05565b60405190151581526020015b60405180910390f35b34801561037e57600080fd5b5061012c5b604051908152602001610369565b34801561039d57600080fd5b506103366103ac3660046147b7565b610d57565b3480156103bd57600080fd5b506103c6610d6b565b6040516103699190614820565b3480156103df57600080fd5b506103f36103ee3660046147b7565b610dfd565b6040516103699190614833565b34801561040c57600080fd5b5061042b61041b36600461493c565b630a85bd0160e11b949350505050565b6040516001600160e01b03199091168152602001610369565b34801561045057600080fd5b5061038361045f366004614b07565b610e26565b610383610472366004614b07565b610e7d565b34801561048357600080fd5b506103f36104923660046147b7565b610e94565b3480156104a357600080fd5b506103836104b23660046147b7565b610ebe565b3480156104c357600080fd5b5061035d6104d2366004614b96565b600c6020526000908152604090205460ff1681565b3480156104f357600080fd5b50610383600080516020615e0283398151915281565b34801561051557600080fd5b50610336610524366004614bb1565b610eed565b34801561053557600080fd5b50610336610544366004614d22565b6113e2565b34801561055557600080fd5b506000610383565b34801561056957600080fd5b50600254610383565b34801561057e57600080fd5b5061059261058d3660046147b7565b611598565b6040516103699190614dd8565b3480156105ab57600080fd5b506103f36105ba3660046147b7565b6116cb565b3480156105cb57600080fd5b506103f36105da366004614b96565b600d602052600090815260409020546001600160a01b031681565b34801561060157600080fd5b5061035d610610366004614de6565b6116db565b34801561062157600080fd5b50610383610630366004614b07565b611715565b34801561064157600080fd5b506103366106503660046147b7565b611787565b34801561066157600080fd5b506040805180820190915260208082527f6d6f64653d626c6f636b74696d657374616d702666726f6d3d64656661756c74908201526103c6565b3480156106a757600080fd5b5061035d6106b636600461478d565b600b6020526000908152604090205460ff1681565b3480156106d757600080fd5b506106eb6106e63660046147b7565b6117ab565b60405161036993929190614e12565b34801561070657600080fd5b506103c66117de565b34801561071b57600080fd5b5061038361072a366004614e39565b6117f9565b34801561073b57600080fd5b506103f361074a366004614b96565b6001600160a01b039081166000908152600d60205260409020541690565b34801561077457600080fd5b50610383610783366004614e5c565b611822565b34801561079457600080fd5b506103836107a3366004614f14565b611948565b3480156107b457600080fd5b506103836107c33660046147b7565b61199d565b3480156107d457600080fd5b506107e86107e33660046147b7565b611a36565b60405161036993929190614ff8565b34801561080357600080fd5b50610383610812366004614b96565b611b72565b34801561082357600080fd5b5061038360065481565b34801561083957600080fd5b50610336611c08565b34801561084e57600080fd5b5061038361085d366004615033565b611c1c565b34801561086e57600080fd5b5061038361087d36600461508c565b611c64565b34801561088e57600080fd5b5061038361089d366004614b96565b611cd4565b3480156108ae57600080fd5b506108b7611cff565b6040516103699796959493929190615167565b3480156108d657600080fd5b506103366108e53660046151e5565b611da8565b3480156108f657600080fd5b506103f3611df3565b34801561090b57600080fd5b5061038361091a36600461521c565b611e0e565b34801561092b57600080fd5b50610934611ea7565b60405165ffffffffffff9091168152602001610369565b34801561095757600080fd5b506064610383565b34801561096b57600080fd5b5061038361097a36600461526b565b611eb7565b34801561098b57600080fd5b50610383611ece565b3480156109a057600080fd5b5061035d6109af3660046147b7565b50600090565b3480156109c157600080fd5b506103f36109d03660046147b7565b611ef3565b3480156109e157600080fd5b506103836109f03660046147b7565b611f03565b348015610a0157600080fd5b50610336610a103660046152c1565b611f32565b348015610a2157600080fd5b50610383610a303660046147b7565b612079565b348015610a4157600080fd5b50610a55610a503660046147b7565b61209a565b604051610369969594939291906152eb565b348015610a7357600080fd5b50610336610a823660046147b7565b61216f565b348015610a9357600080fd5b50610383610aa2366004614b96565b612193565b348015610ab357600080fd5b5061042b610ac2366004615336565b63bc197c8160e01b95945050505050565b348015610adf57600080fd5b50610383610aee3660046147b7565b612232565b610336610b013660046153c5565b612286565b348015610b1257600080fd5b50610383610b21366004615406565b612306565b348015610b3257600080fd5b50610383610b41366004614b07565b612732565b348015610b5257600080fd5b50610336610b613660046147b7565b61276c565b348015610b7257600080fd5b50610336610b813660046147b7565b612790565b348015610b9257600080fd5b506040805180820190915260208082527f737570706f72743d627261766f2671756f72756d3d666f722c6162737461696e908201526103c6565b348015610bd857600080fd5b50610383600080516020615de283398151915281565b348015610bfa57600080fd5b50610383610c093660046152c1565b6127b4565b348015610c1a57600080fd5b5061035d610c29366004614b96565b600a6020526000908152604090205460ff1681565b348015610c4a57600080fd5b5061042b610c593660046154b4565b63f23a6e6160e01b95945050505050565b348015610c7657600080fd5b50610336610c85366004614b96565b6127d5565b348015610c9657600080fd5b50610c9f612810565b60405161036993929190615551565b348015610cba57600080fd5b50610383610cc93660046147b7565b6129e3565b348015610cda57600080fd5b50610ce3612a7a565b60405161036991906155fb565b348015610cfc57600080fd5b506103f3612d1c565b60006001600160e01b031982166332a2ad4360e11b1480610d3657506001600160e01b03198216630271189760e51b145b80610d5157506301ffc9a760e01b6001600160e01b03198316145b92915050565b610d5f612d27565b610d6881612d6b565b50565b606060018054610d7a906156d0565b80601f0160208091040260200160405190810160405280929190818152602001828054610da6906156d0565b8015610df35780601f10610dc857610100808354040283529160200191610df3565b820191906000526020600020905b815481529060010190602001808311610dd657829003601f168201915b5050505050905090565b600080610e08612e0d565b6000938452600101602052505060409020546001600160a01b031690565b600080610e31612e0d565b90506000610e4187878787612732565b9050610e5681610e516004612e31565b612e54565b506000604051634844252360e11b815260040160405180910390fd5b509695505050505050565b6000610e8b85858585612e93565b95945050505050565b60118181548110610ea457600080fd5b6000918252602090912001546001600160a01b0316905081565b600080610ec9612e0d565b600093845260010160205250506040902054600160a01b900465ffffffffffff1690565b6000610ef7612fd7565b805490915060ff600160401b82041615906001600160401b0316600081158015610f1e5750825b90506000826001600160401b03166001148015610f3a5750303b155b905081158015610f48575080155b15610f665760405163f92ee8a960e01b815260040160405180910390fd5b84546001600160401b03191660011785558315610f8f57845460ff60401b1916600160401b1785555b8751600190610f9e9082615750565b5060098054336001600160a01b031991821617909155602089015160025560408901516003556060890151600455608089015160055560a0890151600655600880549091166001600160a01b038816179055610ff987612ffb565b61108c60018054611009906156d0565b80601f0160208091040260200160405190810160405280929190818152602001828054611035906156d0565b80156110825780601f1061105757610100808354040283529160200191611082565b820191906000526020600020905b81548152906001019060200180831161106557829003601f168201915b505050505061300c565b6110958661302e565b6110a060045461303f565b60e088015160c08901516101008a0151600b6020527f866e9aaf16b6bcb3a0c3f261bcae9bf6ba3bb5708fcac0e1fa47a4d10ae7122e8054600160ff1991821681179092557fb58ee6624565a065def9badcb9233c1fe030a2befbc92dacfebaefe75aba00b480548216831790557f79c355cb48518fada0b1ade164e766377471fe326573fb5c0f7f4f1c77a5f6ff805482168317905563d45cc62760e01b60009081527f142a004f8e0b60603d6bba5fe2e8ceb8466d8909302ad8413ddfb170ecfa484b805490921690921790555b8151811015611231576001600a60008484815181106111915761119161580f565b60200260200101516001600160a01b03166001600160a01b0316815260200190815260200160002060006101000a81548160ff02191690831515021790555060118282815181106111e4576111e461580f565b60209081029190910181015182546001810184556000938452919092200180546001600160a01b0319166001600160a01b03909216919091179055806112298161583b565b915050611170565b506001600160a01b0383166000908152600a602052604090205460ff166112b15760405162461bcd60e51b815260206004820152602960248201527f53746f726d4269744c656e64696e673a20696e697420746f6b656e206e6f74206044820152681cdd5c1c1bdc9d195960ba1b60648201526084015b60405180910390fd5b60005b8b610120015151811015611384576001600c60008e610120015184815181106112df576112df61580f565b60200260200101516001600160a01b03166001600160a01b0316815260200190815260200160002060006101000a81548160ff02191690831515021790555060128c610120015182815181106113375761133761580f565b60209081029190910181015182546001810184556000938452919092200180546001600160a01b0319166001600160a01b039092169190911790558061137c8161583b565b9150506112b4565b5061138f828b613050565b50505083156113d857845460ff60401b19168555604051600181527fc7f505b2f371ae2175ee4913f4499e1f2633a7b5936321eed1cdaeb6115181d29060200160405180910390a15b5050505050505050565b3330146114015760405162461bcd60e51b81526004016112a890615854565b6001600160a01b038581166000908152600d602052604090205416156114695760405162461bcd60e51b815260206004820152601e60248201527f53746f726d4269744c656e64696e673a207573657220686173206c6f616e000060448201526064016112a8565b600061147484613186565b60405163a9059cbb60e01b81529091506001600160a01b0388169063a9059cbb906114a59084908990600401615887565b6020604051808303816000875af11580156114c4573d6000803e3d6000fd5b505050506040513d601f19601f820116820180604052508101906114e891906158a0565b5060405163439fab9160e01b81526001600160a01b0382169063439fab919061151790869086906004016158bd565b600060405180830381600087803b15801561153157600080fd5b505af1158015611545573d6000803e3d6000fd5b505050506001600160a01b038681166000908152600d6020526040812080546001600160a01b03191692841692909217909155600f805487929061158a9084906158ec565b909155505050505050505050565b6000806115a3612e0d565b6000848152600182016020526040902080549192509060ff600160f01b8204811691600160f81b90041681156115df5750600795945050505050565b80156115f15750600295945050505050565b60006115fc87610ebe565b90508060000361162257604051636ad0607560e01b8152600481018890526024016112a8565b600061162c611ea7565b65ffffffffffff16905080821061164b57506000979650505050505050565b600061165689612232565b905081811061166e5750600198975050505050505050565b611677896131f3565b158061168957506116878961323b565b155b1561169d5750600398975050505050505050565b6116a689611f03565b6000036116bc5750600498975050505050505050565b50600598975050505050505050565b60138181548110610ea457600080fd5b6000806116e6613260565b6000858152602091825260408082206001600160a01b0387168352600301909252205460ff1691505092915050565b60008061172486868686612732565b905061173481610e516000612e31565b5061173e81610dfd565b6001600160a01b0316336001600160a01b031614611771573360405163233d98e360e01b81526004016112a89190614833565b61177d86868686613284565b9695505050505050565b3330146117a65760405162461bcd60e51b81526004016112a890615854565b600455565b6000806000806117b9613260565b6000958652602052505060409092208054600182015460029092015490949193509150565b6040805180820190915260018152603160f81b602082015290565b60008033905061181a84828560405180602001604052806000815250613343565b949350505050565b6000806118d5876118cf600080516020615e028339815191528c8c8c6118478e613366565b8d8d6040516118579291906158ff565b60405180910390208c805190602001206040516020016118b49796959493929190968752602087019590955260ff9390931660408601526001600160a01b03919091166060850152608084015260a083015260c082015260e00190565b60405160208183030381529060405280519060200120613399565b856133c6565b9050806118f757866040516394ab6c0760e01b81526004016112a89190614833565b61193b89888a89898080601f0160208091040260200160405190810160405280939291908181526020018383808284376000920191909152508b925061341e915050565b9998505050505050505050565b60008033905061199287828888888080601f0160208091040260200160405190810160405280939291908181526020018383808284376000920191909152508a925061341e915050565b979650505050505050565b6000806119a86134fb565b80549091506000826119bb60018461590f565b815481106119cb576119cb61580f565b6000918252602090912001805490915065ffffffffffff811690600160301b90046001600160d01b0316868211611a0f576001600160d01b03169695505050505050565b611a22611a1b8861351f565b8690613551565b6001600160d01b0316979650505050505050565b611a3e614759565b6000828152600e602052604081208190611a5785611598565b6000868152600e60209081526040808320600501546001600160a01b039081168452600d83529281902054815160c081018352865485168152600187015493810193909352600286015484169183019190915260038501805491909316928591606084019190611ac6906156d0565b80601f0160208091040260200160405190810160405280929190818152602001828054611af2906156d0565b8015611b3f5780601f10611b1457610100808354040283529160200191611b3f565b820191906000526020600020905b815481529060010190602001808311611b2257829003601f168201915b5050509183525050600482015460208201526005909101546001600160a01b031660409091015297919650945092505050565b6000600654421015611b8657506000919050565b6008546006546001600160a01b0390911690633a46b1a8908490611baa904261590f565b6040518363ffffffff1660e01b8152600401611bc7929190615887565b602060405180830381865afa158015611be4573d6000803e3d6000fd5b505050506040513d601f19601f82011682018060405250810190610d519190615922565b611c10613606565b611c1a6000613638565b565b60008033905061177d86828787878080601f01602080910402602001604051908101604052809392919081815260200183838082843760009201919091525061334392505050565b600033611c718184613694565b611c90578060405163d9b3955760e01b81526004016112a89190614833565b6000611cb7826001611ca0611ea7565b611caa919061593b565b65ffffffffffff166127b4565b90506000611cc88888888887613785565b98975050505050505050565b600080611cdf61398c565b6001600160a01b0390931660009081526020939093525050604090205490565b6000606080600080600060606000611d156139b0565b8054909150158015611d2957506001810154155b611d6d5760405162461bcd60e51b81526020600482015260156024820152741152540dcc4c8e88155b9a5b9a5d1a585b1a5e9959605a1b60448201526064016112a8565b611d756139d4565b611d7d613a75565b60408051600080825260208201909252600f60f81b9c939b5091995046985030975095509350915050565b333014611dc75760405162461bcd60e51b81526004016112a890615854565b6001600160a01b0382166000908152600c60205260409020805460ff19168215151790555050565b5050565b600080611dfe613a92565b546001600160a01b031692915050565b600080611e6a846118cf600080516020615de2833981519152898989611e338b613366565b60408051602081019690965285019390935260ff90911660608401526001600160a01b0316608083015260a082015260c0016118b4565b905080611e8c57836040516394ab6c0760e01b81526004016112a89190614833565b61177d86858760405180602001604052806000815250613343565b6000611eb24261351f565b905090565b6000611ec4848484613ab6565b90505b9392505050565b600080611ed96134fb565b9050611ee481613af1565b6001600160d01b031691505090565b60128181548110610ea457600080fd5b600080611f0e612e0d565b6000938452600190810160205260409093209092015465ffffffffffff1692915050565b600954604051632a5bb1b760e11b81526001600160a01b03909116906354b7636e90611f62903390600401614833565b602060405180830381865afa158015611f7f573d6000803e3d6000fd5b505050506040513d601f19601f82011682018060405250810190611fa391906158a0565b611fbf5760405162461bcd60e51b81526004016112a890615961565b6001600160a01b0382166000908152600a602052604090205460ff16611ff75760405162461bcd60e51b81526004016112a8906159a2565b6040516323b872dd60e01b8152336004820152306024820152604481018290526001600160a01b038316906323b872dd906064016020604051808303816000875af115801561204a573d6000803e3d6000fd5b505050506040513d601f19601f8201168201806040525081019061206e91906158a0565b50611def8133613050565b6014818154811061208957600080fd5b600091825260209091200154905081565b600e6020526000908152604090208054600182015460028301546003840180546001600160a01b0394851695939490921692916120d6906156d0565b80601f0160208091040260200160405190810160405280929190818152602001828054612102906156d0565b801561214f5780601f106121245761010080835404028352916020019161214f565b820191906000526020600020905b81548152906001019060200180831161213257829003601f168201915b5050505060048301546005909301549192916001600160a01b0316905086565b33301461218e5760405162461bcd60e51b81526004016112a890615854565b600555565b600080600860009054906101000a90046001600160a01b03166001600160a01b03166318160ddd6040518163ffffffff1660e01b8152600401602060405180830381865afa1580156121e9573d6000803e3d6000fd5b505050506040513d601f19601f8201168201806040525081019061220d9190615922565b9050600061221a84611b72565b9050816122288260646159e6565b61181a9190615a13565b60008061223d612e0d565b600084815260018201602052604090205490915061227790600160d01b810463ffffffff1690600160a01b900465ffffffffffff16615a35565b65ffffffffffff169392505050565b61228e612d27565b600080856001600160a01b03168585856040516122ac9291906158ff565b60006040518083038185875af1925050503d80600081146122e9576040519150601f19603f3d011682016040523d82523d6000602084013e6122ee565b606091505b50915091506122fd8282613b2a565b50505050505050565b600954604051632a5bb1b760e11b81526000916001600160a01b0316906354b7636e90612337903390600401614833565b602060405180830381865afa158015612354573d6000803e3d6000fd5b505050506040513d601f19601f8201168201806040525081019061237891906158a0565b6123945760405162461bcd60e51b81526004016112a890615961565b6040808301516001600160a01b03166000908152600c602052205460ff1661240f5760405162461bcd60e51b815260206004820152602860248201527f53746f726d4269744c656e64696e673a2061677265656d656e74206e6f7420736044820152671d5c1c1bdc9d195960c21b60648201526084016112a8565b6020808301516001600160a01b03166000908152600a909152604090205460ff1661244c5760405162461bcd60e51b81526004016112a8906159a2565b60408051600180825281830190925260009160208083019080368337505060408051600180825281830190925292935060009291506020808301908036833750506040805160018082528183019092529293506000929150602082015b60608152602001906001900390816124a957905050905060006040518060400160405280600c81526020016b131bd85b8814995c5d595cdd60a21b815250905030846000815181106124fd576124fd61580f565b60200260200101906001600160a01b031690816001600160a01b0316815250506000836000815181106125325761253261580f565b60200260200101818152505063372f2af560e01b866020015133886000015189604001518a6060015160405160240161256f959493929190615a54565b604051602081830303815290604052906001600160e01b0319166020820180516001600160e01b038381831617835250505050826000815181106125b5576125b561580f565b6020908102919091010152600780549060006125d08361583b565b919050555060006125e48585858533613785565b905060148190806001815401808255809150506001900390600052602060002001600090919091909150556040518060c0016040528088602001516001600160a01b031681526020018860000151815260200188604001516001600160a01b0316815260200188606001518152602001828152602001336001600160a01b0316815250600e600083815260200190815260200160002060008201518160000160006101000a8154816001600160a01b0302191690836001600160a01b031602179055506020820151816001015560408201518160020160006101000a8154816001600160a01b0302191690836001600160a01b0316021790555060608201518160030190816126f39190615750565b506080820151600482015560a090910151600590910180546001600160a01b0319166001600160a01b039092169190911790559450505050505b919050565b60008484848460405160200161274b9493929190615ae7565b60408051601f19818403018152919052805160209091012095945050505050565b33301461278b5760405162461bcd60e51b81526004016112a890615854565b600655565b3330146127af5760405162461bcd60e51b81526004016112a890615854565b600355565b6000611ec783836127d060408051602081019091526000815290565b613ab6565b6127dd613606565b6001600160a01b038116612807576000604051631e4fbdf760e01b81526004016112a89190614833565b610d6881613638565b606080606060006014805490506001600160401b038111156128345761283461485e565b60405190808252806020026020018201604052801561286d57816020015b61285a614759565b8152602001906001900390816128525790505b506014549091506000906001600160401b0381111561288e5761288e61485e565b6040519080825280602002602001820160405280156128b7578160200160208202803683370190505b506014549091506000906001600160401b038111156128d8576128d861485e565b604051908082528060200260200182016040528015612901578160200160208202803683370190505b50905060005b6014548110156129d657612937601482815481106129275761292761580f565b9060005260206000200154611a36565b8684815181106129495761294961580f565b602002602001018685815181106129625761296261580f565b6020026020010186868151811061297b5761297b61580f565b60200260200101836001600160a01b03166001600160a01b03168152508360078111156129aa576129aa614da0565b60078111156129bb576129bb614da0565b905292909252508190506129ce8161583b565b915050612907565b5091959094509092509050565b600060646129f08361199d565b6129f8612d1c565b6001600160a01b0316638e539e8c856040518263ffffffff1660e01b8152600401612a2591815260200190565b602060405180830381865afa158015612a42573d6000803e3d6000fd5b505050506040513d601f19601f82011682018060405250810190612a669190615922565b612a7091906159e6565b610d519190615a13565b612ad760405180610160016040528060608152602001600081526020016000815260200160008152602001600081526020016000815260200160008152602001606081526020016060815260200160608152602001606081525090565b60405180610160016040528060018054612af0906156d0565b80601f0160208091040260200160405190810160405280929190818152602001828054612b1c906156d0565b8015612b695780601f10612b3e57610100808354040283529160200191612b69565b820191906000526020600020905b815481529060010190602001808311612b4c57829003601f168201915b505050505081526020016002548152602001600354815260200160045481526020016005548152602001600f54815260200160105481526020016013805480602002602001604051908101604052809291908181526020018280548015612bf957602002820191906000526020600020905b81546001600160a01b03168152600190910190602001808311612bdb575b505050505081526020016011805480602002602001604051908101604052809291908181526020018280548015612c5957602002820191906000526020600020905b81546001600160a01b03168152600190910190602001808311612c3b575b505050505081526020016012805480602002602001604051908101604052809291908181526020018280548015612cb957602002820191906000526020600020905b81546001600160a01b03168152600190910190602001808311612c9b575b505050505081526020016014805480602002602001604051908101604052809291908181526020018280548015612d0f57602002820191906000526020600020905b815481526020019060010190808311612cfb575b5050505050815250905090565b600080611dfe613b46565b6000612d31612e0d565b9050303314610d6857336040516347096e4760e01b81526004016112a89190614833565b80612d6283600201613b6a565b03612d55575050565b6000612d756134fb565b9050606480831115612da45760405163243e544560e01b815260048101849052602481018290526044016112a8565b6000612dae611ece565b9050612dcc612dbb611ea7565b612dc486613bdf565b859190613c0e565b505060408051828152602081018690527f0553476bf02ef2726e8ce5ced78d63e26e602e4a2257b1f559418e24b4633997910160405180910390a150505050565b7f7c712897014dbe49c045ef1299aa2d5f9e67e48eea4403efa21f1e0f3ac0cb0090565b6000816007811115612e4557612e45614da0565b600160ff919091161b92915050565b600080612e6084611598565b9050600083612e6e83612e31565b1603611ec7578381846040516331b75e4d60e01b81526004016112a893929190615b32565b600080612e9e612e0d565b90506000612eae87878787612732565b9050612ece81612ebe6005612e31565b612ec86004612e31565b17612e54565b5060008181526001830160205260409020805460ff60f01b1916600160f01b17905530612ef83090565b6001600160a01b031614612f8c5760005b8751811015612f8a57306001600160a01b0316888281518110612f2e57612f2e61580f565b60200260200101516001600160a01b031603612f7a57612f7a868281518110612f5957612f5961580f565b60200260200101518051906020012084600201613c2990919063ffffffff16565b612f838161583b565b9050612f09565b505b612f998188888888613c9a565b6040518181527f712ae1383f79ac853f8d882153778e0260ef8f03b504e2866e0593e04d2b291f906020015b60405180910390a19695505050505050565b7ff0c57e16840df040f15088dc2f81fe391c3923bec73e23a9662efc9c229c6a0090565b613003613d7a565b610d6881613d9f565b613014613d7a565b613025816130206117de565b613da7565b610d6881613de8565b613036613d7a565b610d6881613e0c565b613047613d7a565b610d6881613e40565b6008546040516340c10f1960e01b815283916001600160a01b0316906340c10f19906130829085908590600401615887565b600060405180830381600087803b15801561309c57600080fd5b505af11580156130b0573d6000803e3d6000fd5b505060085460405163455b2b4360e11b81526001600160a01b038681166004830181905260248301529091169250638ab656869150604401600060405180830381600087803b15801561310257600080fd5b505af1158015613116573d6000803e3d6000fd5b50505050826010600082825461312c91906158ec565b9091555050601380546001810182556000919091527f66de8ffda797e3de9c05e8fc57b3bf0ec28a930d40b0d285d93c06501cf6a0900180546001600160a01b0319166001600160a01b0393909316929092179091555050565b6000763d602d80600a3d3981f3363d3d373d3d3d363d730000008260601b60e81c176000526e5af43d82803e903d91602b57fd5bf38260781b17602052603760096000f090506001600160a01b03811661272d576040516330be1a3d60e21b815260040160405180910390fd5b6000806131fe613260565b600084815260208290526040902060028101546001820154929350909161322591906158ec565b613231610cc986610ebe565b1115949350505050565b600080613246613260565b600093845260205250506040902080546001909101541190565b7fa1cefa0f43667ef127a258e673c94202a79b656e62899531c4376d87a7f3980090565b60008061328f612e0d565b9050600061329f87878787612732565b90506132ed816132af6007612e31565b6132b96006612e31565b6132c36002612e31565b60016132d0600782615b54565b6132db906002615c51565b6132e5919061590f565b181818612e54565b5060008181526001830160205260409081902080546001600160f81b0316600160f81b179055517f789cf55be980739dad1d0699b93b58e806b51c9d96619bfa8fe0a28abaa7b30c90612fc59083815260200190565b6000610e8b8585858561336160408051602081019091526000815290565b61341e565b60008061337161398c565b6001600160a01b03909316600090815260209390935250506040902080546001810190915590565b6000610d516133a6613e48565b8360405161190160f01b8152600281019290925260228201526042902090565b60008060006133d58585613e52565b50909250905060008160038111156133ef576133ef614da0565b14801561340d5750856001600160a01b0316826001600160a01b0316145b8061177d575061177d868686613e9f565b600061342e86610e516001612e31565b5060006134448661343e89610ebe565b85613ab6565b90506134538787878487613f7a565b82516000036134a857856001600160a01b03167fb8e138887d0aa13bab447e82de9d5c1777041ecd21ca36ba824ff1e6c07ddda48887848860405161349b9493929190615c60565b60405180910390a261177d565b856001600160a01b03167fe2babfbac5889a709b63bb7f598b324e08bc5a4fb9ec647fb3cbc9ec07eb871288878488886040516134e9959493929190615c88565b60405180910390a29695505050505050565b7fe770710421fd2cad75ad828c61aa98f2d77d423a440b67872d0f65554148e00090565b600065ffffffffffff82111561354d576030826040516306dfcc6560e41b81526004016112a8929190615cc2565b5090565b8154600090818160058111156135b057600061356c84614076565b613576908561590f565b60008881526020902090915081015465ffffffffffff90811690871610156135a0578091506135ae565b6135ab8160016158ec565b92505b505b60006135be8787858561415e565b905080156135f9576135e3876135d560018461590f565b600091825260209091200190565b54600160301b90046001600160d01b0316611992565b6000979650505050505050565b3361360f611df3565b6001600160a01b031614611c1a573360405163118cdaa760e01b81526004016112a89190614833565b6000613642613a92565b80546001600160a01b038481166001600160a01b031983168117845560405193945091169182907f8be0079c531659141344cd1fd0a4f28419497f9722a3daafe3b4186f6b6457e090600090a3505050565b805160009060348110156136ac576001915050610d51565b82810160131901516001600160a01b031981166b046e0e4dee0dee6cae47a60f60a31b146136df57600192505050610d51565b6000806136ed60288561590f565b90505b83811015613764576000806137248884815181106137105761371061580f565b01602001516001600160f81b0319166141c0565b915091508161373c5760019650505050505050610d51565b8060ff166004856001600160a01b0316901b17935050508061375d9061583b565b90506136f0565b50856001600160a01b0316816001600160a01b031614935050505092915050565b600080613790612e0d565b90506137a58787878780519060200120612732565b9150855187511415806137ba57508451875114155b806137c457508651155b156137eb57865185518751604051630447b05d60e41b81526004016112a893929190614e12565b6000828152600182016020526040902054600160a01b900465ffffffffffff1615613838578161381a83611598565b6040516331b75e4d60e01b81526112a8929190600090600401615b32565b600080613843611ea7565b65ffffffffffff1661385591906158ec565b9050600061012c6000858152600185016020526040902080546001600160a01b0319166001600160a01b0388161781559091506138918361351f565b815465ffffffffffff91909116600160a01b0265ffffffffffff60a01b199091161781556138be82614252565b815463ffffffff91909116600160d01b0263ffffffff60d01b1990911617815589517f7d84a6263ae0d98d3329bd7b46bb4e8d6f98cd35a7adb45c274c8b7fd5ebd5e090869088908d908d906001600160401b038111156139215761392161485e565b60405190808252806020026020018201604052801561395457816020015b606081526020019060019003908161393f5790505b508d896139618a826158ec565b8f60405161397799989796959493929190615cd5565b60405180910390a15050505095945050505050565b7f5ab42ced628888259c08ac98db1eb0cf702fc1501344311d8b100cd1bfe4bb0090565b7fa16a46d94261c7517cc8ff89f61c0ce93598e3c849801011dee649a6a557d10090565b606060006139e06139b0565b90508060020180546139f1906156d0565b80601f0160208091040260200160405190810160405280929190818152602001828054613a1d906156d0565b8015613a6a5780601f10613a3f57610100808354040283529160200191613a6a565b820191906000526020600020905b815481529060010190602001808311613a4d57829003601f168201915b505050505091505090565b60606000613a816139b0565b90508060030180546139f1906156d0565b7f9016d09d72d40fdae2fd8ceac6b6234c7706214fd39c1cd1e609a0528c19930090565b6000600654831015613aca57506000611ec7565b611ec48460065485613adc919061590f565b6040518060200160405280600081525061427e565b80546000908015613b2157613b0b836135d560018461590f565b54600160301b90046001600160d01b0316611ec7565b60009392505050565b606082613b3f57613b3a826142f6565b610d51565b5080610d51565b7f3ba4977254e415696610a40ebf2258dbfa0ec6a2ff64e84bfe715ff16977cc0090565b80546000906001600160801b0380821691600160801b9004168103613ba2576040516375e52f4f60e01b815260040160405180910390fd5b6001600160801b038181166000908152600185810160205260408220805492905585546001600160801b0319169301909116919091179092555090565b60006001600160d01b0382111561354d5760d0826040516306dfcc6560e41b81526004016112a8929190615cc2565b600080613c1c85858561431f565b915091505b935093915050565b81546001600160801b03600160801b820481169181166001830190911603613c6457604051638acb5f2760e01b815260040160405180910390fd5b6001600160801b03808216600090815260018086016020526040909120939093558354919092018216600160801b029116179055565b60005b8451811015613d7257600080868381518110613cbb57613cbb61580f565b60200260200101516001600160a01b0316868481518110613cde57613cde61580f565b6020026020010151868581518110613cf857613cf861580f565b6020026020010151604051613d0d9190615dac565b60006040518083038185875af1925050503d8060008114613d4a576040519150601f19603f3d011682016040523d82523d6000602084013e613d4f565b606091505b5091509150613d5e8282613b2a565b50505080613d6b9061583b565b9050613c9d565b505050505050565b613d82614499565b611c1a57604051631afcd79f60e31b815260040160405180910390fd5b6127dd613d7a565b613daf613d7a565b6000613db96139b0565b905060028101613dc98482615750565b5060038101613dd88382615750565b5060008082556001909101555050565b613df0613d7a565b6000613dfa612e0d565b905080613e078382615750565b505050565b613e14613d7a565b6000613e1e613b46565b80546001600160a01b0319166001600160a01b03939093169290921790915550565b610d5f613d7a565b6000611eb26144b3565b60008060008351604103613e8c5760208401516040850151606086015160001a613e7e88828585614527565b955095509550505050613e98565b50508151600091506002905b9250925092565b6000806000856001600160a01b03168585604051602401613ec1929190615dc8565b60408051601f198184030181529181526020820180516001600160e01b0316630b135d3f60e11b17905251613ef69190615dac565b600060405180830381855afa9150503d8060008114613f31576040519150601f19603f3d011682016040523d82523d6000602084013e613f36565b606091505b5091509150818015613f4a57506020815110155b801561177d57508051630b135d3f60e11b90613f6f9083016020908101908401615922565b149695505050505050565b6000613f84613260565b6000878152602082815260408083206001600160a01b038a16845260038101909252909120549192509060ff1615613fd157856040516371c6af4960e01b81526004016112a89190614833565b6001600160a01b03861660009081526003820160205260409020805460ff1916600117905560ff851661401d578381600001600082825461401291906158ec565b909155506122fd9050565b60001960ff86160161403d578381600101600082825461401291906158ec565b60011960ff86160161405d578381600201600082825461401291906158ec565b6040516303599be160e11b815260040160405180910390fd5b60008160000361408857506000919050565b60006001614095846145ec565b901c6001901b905060018184816140ae576140ae6159fd565b048201901c905060018184816140c6576140c66159fd565b048201901c905060018184816140de576140de6159fd565b048201901c905060018184816140f6576140f66159fd565b048201901c9050600181848161410e5761410e6159fd565b048201901c90506001818481614126576141266159fd565b048201901c9050600181848161413e5761413e6159fd565b048201901c9050611ec781828581614158576141586159fd565b04614680565b60005b818310156141b85760006141758484614696565b60008781526020902090915065ffffffffffff86169082015465ffffffffffff1611156141a4578092506141b2565b6141af8160016158ec565b93505b50614161565b509392505050565b60008060f883901c602f811180156141db5750603a8160ff16105b156141f057600194602f199091019350915050565b8060ff166040108015614206575060478160ff16105b1561421b576001946036199091019350915050565b8060ff166060108015614231575060678160ff16105b15614246576001946056199091019350915050565b50600093849350915050565b600063ffffffff82111561354d576020826040516306dfcc6560e41b81526004016112a8929190615cc2565b6000614288612d1c565b6001600160a01b0316633a46b1a885856040518363ffffffff1660e01b81526004016142b5929190615887565b602060405180830381865afa1580156142d2573d6000803e3d6000fd5b505050506040513d601f19601f82011682018060405250810190611ec49190615922565b8051156143065780518082602001fd5b604051630a12f52160e11b815260040160405180910390fd5b82546000908190801561443e57600061433d876135d560018561590f565b60408051808201909152905465ffffffffffff808216808452600160301b9092046001600160d01b03166020840152919250908716101561439157604051632520601d60e01b815260040160405180910390fd5b805165ffffffffffff8088169116036143dd57846143b4886135d560018661590f565b80546001600160d01b0392909216600160301b0265ffffffffffff90921691909117905561442e565b6040805180820190915265ffffffffffff80881682526001600160d01b0380881660208085019182528b54600181018d5560008d81529190912094519151909216600160301b029216919091179101555b602001519250839150613c219050565b50506040805180820190915265ffffffffffff80851682526001600160d01b0380851660208085019182528854600181018a5560008a815291822095519251909316600160301b029190931617920191909155905081613c21565b60006144a3612fd7565b54600160401b900460ff16919050565b60007f8b73c3c69bb8fe3d512ecc4cf759cc79239f7b179b0ffacaa9a75d522b39400f6144de6146b1565b6144e6614718565b60408051602081019490945283019190915260608201524660808201523060a082015260c00160405160208183030381529060405280519060200120905090565b600080806fa2a8918ca85bafe22016d0b997e4df60600160ff1b0384111561455857506000915060039050826145e2565b604080516000808252602082018084528a905260ff891692820192909252606081018790526080810186905260019060a0016020604051602081039080840390855afa1580156145ac573d6000803e3d6000fd5b5050604051601f1901519150506001600160a01b0381166145d8575060009250600191508290506145e2565b9250600091508190505b9450945094915050565b600080608083901c1561460157608092831c92015b604083901c1561461357604092831c92015b602083901c1561462557602092831c92015b601083901c1561463757601092831c92015b600883901c1561464957600892831c92015b600483901c1561465b57600492831c92015b600283901c1561466d57600292831c92015b600183901c15610d515760010192915050565b600081831061468f5781611ec7565b5090919050565b60006146a56002848418615a13565b611ec7908484166158ec565b6000806146bc6139b0565b905060006146c86139d4565b8051909150156146e057805160209091012092915050565b815480156146ef579392505050565b7fc5d2460186f7233c927e7db2dcc703c0e500b653ca82273b7bfad8045d85a470935050505090565b6000806147236139b0565b9050600061472f613a75565b80519091501561474757805160209091012092915050565b600182015480156146ef579392505050565b6040805160c0810182526000808252602082018190529181018290526060808201526080810182905260a081019190915290565b60006020828403121561479f57600080fd5b81356001600160e01b031981168114611ec757600080fd5b6000602082840312156147c957600080fd5b5035919050565b60005b838110156147eb5781810151838201526020016147d3565b50506000910152565b6000815180845261480c8160208601602086016147d0565b601f01601f19169290920160200192915050565b602081526000611ec760208301846147f4565b6001600160a01b0391909116815260200190565b80356001600160a01b038116811461272d57600080fd5b634e487b7160e01b600052604160045260246000fd5b60405161014081016001600160401b03811182821017156148975761489761485e565b60405290565b604051601f8201601f191681016001600160401b03811182821017156148c5576148c561485e565b604052919050565b600082601f8301126148de57600080fd5b81356001600160401b038111156148f7576148f761485e565b61490a601f8201601f191660200161489d565b81815284602083860101111561491f57600080fd5b816020850160208301376000918101602001919091529392505050565b6000806000806080858703121561495257600080fd5b61495b85614847565b935061496960208601614847565b92506040850135915060608501356001600160401b0381111561498b57600080fd5b614997878288016148cd565b91505092959194509250565b60006001600160401b038211156149bc576149bc61485e565b5060051b60200190565b600082601f8301126149d757600080fd5b813560206149ec6149e7836149a3565b61489d565b82815260059290921b84018101918181019086841115614a0b57600080fd5b8286015b84811015610e7257614a2081614847565b8352918301918301614a0f565b600082601f830112614a3e57600080fd5b81356020614a4e6149e7836149a3565b82815260059290921b84018101918181019086841115614a6d57600080fd5b8286015b84811015610e725780358352918301918301614a71565b600082601f830112614a9957600080fd5b81356020614aa96149e7836149a3565b82815260059290921b84018101918181019086841115614ac857600080fd5b8286015b84811015610e725780356001600160401b03811115614aeb5760008081fd5b614af98986838b01016148cd565b845250918301918301614acc565b60008060008060808587031215614b1d57600080fd5b84356001600160401b0380821115614b3457600080fd5b614b40888389016149c6565b95506020870135915080821115614b5657600080fd5b614b6288838901614a2d565b94506040870135915080821115614b7857600080fd5b50614b8587828801614a88565b949793965093946060013593505050565b600060208284031215614ba857600080fd5b611ec782614847565b600080600060608486031215614bc657600080fd5b83356001600160401b0380821115614bdd57600080fd5b908501906101408288031215614bf257600080fd5b614bfa614874565b823582811115614c0957600080fd5b614c15898286016148cd565b8252506020830135602082015260408301356040820152606083013560608201526080830135608082015260a083013560a082015260c083013560c0820152614c6060e08401614847565b60e08201526101008084013583811115614c7957600080fd5b614c858a8287016149c6565b8284015250506101208084013583811115614c9f57600080fd5b614cab8a8287016149c6565b828401525050809550505050614cc360208501614847565b9150614cd160408501614847565b90509250925092565b60008083601f840112614cec57600080fd5b5081356001600160401b03811115614d0357600080fd5b602083019150836020828501011115614d1b57600080fd5b9250929050565b60008060008060008060a08789031215614d3b57600080fd5b614d4487614847565b9550614d5260208801614847565b945060408701359350614d6760608801614847565b925060808701356001600160401b03811115614d8257600080fd5b614d8e89828a01614cda565b979a9699509497509295939492505050565b634e487b7160e01b600052602160045260246000fd5b60088110614dd457634e487b7160e01b600052602160045260246000fd5b9052565b60208101610d518284614db6565b60008060408385031215614df957600080fd5b82359150614e0960208401614847565b90509250929050565b9283526020830191909152604082015260600190565b803560ff8116811461272d57600080fd5b60008060408385031215614e4c57600080fd5b82359150614e0960208401614e28565b600080600080600080600060c0888a031215614e7757600080fd5b87359650614e8760208901614e28565b9550614e9560408901614847565b945060608801356001600160401b0380821115614eb157600080fd5b614ebd8b838c01614cda565b909650945060808a0135915080821115614ed657600080fd5b614ee28b838c016148cd565b935060a08a0135915080821115614ef857600080fd5b50614f058a828b016148cd565b91505092959891949750929550565b600080600080600060808688031215614f2c57600080fd5b85359450614f3c60208701614e28565b935060408601356001600160401b0380821115614f5857600080fd5b614f6489838a01614cda565b90955093506060880135915080821115614f7d57600080fd5b50614f8a888289016148cd565b9150509295509295909350565b600060018060a01b0380835116845260208301516020850152806040840151166040850152606083015160c06060860152614fd560c08601826147f4565b9050608084015160808601528160a08501511660a0860152809250505092915050565b60608152600061500b6060830186614f97565b905061501a6020830185614db6565b6001600160a01b03929092166040919091015292915050565b6000806000806060858703121561504957600080fd5b8435935061505960208601614e28565b925060408501356001600160401b0381111561507457600080fd5b61508087828801614cda565b95989497509550505050565b600080600080608085870312156150a257600080fd5b84356001600160401b03808211156150b957600080fd5b6150c5888389016149c6565b955060208701359150808211156150db57600080fd5b6150e788838901614a2d565b945060408701359150808211156150fd57600080fd5b61510988838901614a88565b9350606087013591508082111561511f57600080fd5b50614997878288016148cd565b600081518084526020808501945080840160005b8381101561515c57815187529582019590820190600101615140565b509495945050505050565b60ff60f81b8816815260e06020820152600061518660e08301896147f4565b828103604084015261519881896147f4565b606084018890526001600160a01b038716608085015260a0840186905283810360c085015290506151c9818561512c565b9a9950505050505050505050565b8015158114610d6857600080fd5b600080604083850312156151f857600080fd5b61520183614847565b91506020830135615211816151d7565b809150509250929050565b6000806000806080858703121561523257600080fd5b8435935061524260208601614e28565b925061525060408601614847565b915060608501356001600160401b0381111561498b57600080fd5b60008060006060848603121561528057600080fd5b61528984614847565b92506020840135915060408401356001600160401b038111156152ab57600080fd5b6152b7868287016148cd565b9150509250925092565b600080604083850312156152d457600080fd5b6152dd83614847565b946020939093013593505050565b600060018060a01b038089168352876020840152808716604084015260c0606084015261531b60c08401876147f4565b60808401959095529290921660a09091015250949350505050565b600080600080600060a0868803121561534e57600080fd5b61535786614847565b945061536560208701614847565b935060408601356001600160401b038082111561538157600080fd5b61538d89838a01614a2d565b945060608801359150808211156153a357600080fd5b6153af89838a01614a2d565b93506080880135915080821115614f7d57600080fd5b600080600080606085870312156153db57600080fd5b6153e485614847565b93506020850135925060408501356001600160401b0381111561507457600080fd5b60006020828403121561541857600080fd5b81356001600160401b038082111561542f57600080fd5b908301906080828603121561544357600080fd5b60405160808101818110838211171561545e5761545e61485e565b6040528235815261547160208401614847565b602082015261548260408401614847565b604082015260608301358281111561549957600080fd5b6154a5878286016148cd565b60608301525095945050505050565b600080600080600060a086880312156154cc57600080fd5b6154d586614847565b94506154e360208701614847565b9350604086013592506060860135915060808601356001600160401b0381111561550c57600080fd5b614f8a888289016148cd565b600081518084526020808501945080840160005b8381101561515c5781516001600160a01b03168752958201959082019060010161552c565b6000606082016060835280865180835260808501915060808160051b8601019250602080890160005b838110156155a857607f19888703018552615596868351614f97565b9550938201939082019060010161557a565b50508584038187015287518085528882019482019350915060005b828110156155e6576155d6848651614db6565b93810193928101926001016155c3565b50505083810360408501526119928186615518565b602081526000825161016080602085015261561a6101808501836147f4565b9150602085015160408501526040850151606085015260608501516080850152608085015160a085015260a085015160c085015260c085015160e085015260e0850151601f196101008187860301818801526156768584615518565b9450808801519250506101208187860301818801526156958584615518565b9450808801519250506101408187860301818801526156b48584615518565b90880151878203909201848801529350905061177d838261512c565b600181811c908216806156e457607f821691505b60208210810361570457634e487b7160e01b600052602260045260246000fd5b50919050565b601f821115613e0757600081815260208120601f850160051c810160208610156157315750805b601f850160051c820191505b81811015613d725782815560010161573d565b81516001600160401b038111156157695761576961485e565b61577d8161577784546156d0565b8461570a565b602080601f8311600181146157b2576000841561579a5750858301515b600019600386901b1c1916600185901b178555613d72565b600085815260208120601f198616915b828110156157e1578886015182559484019460019091019084016157c2565b50858210156157ff5787850151600019600388901b60f8161c191681555b5050505050600190811b01905550565b634e487b7160e01b600052603260045260246000fd5b634e487b7160e01b600052601160045260246000fd5b60006001820161584d5761584d615825565b5060010190565b60208082526019908201527829ba37b936a134ba2632b73234b7339d103737ba1039b2b63360391b604082015260600190565b6001600160a01b03929092168252602082015260400190565b6000602082840312156158b257600080fd5b8151611ec7816151d7565b60208152816020820152818360408301376000818301604090810191909152601f909201601f19160101919050565b80820180821115610d5157610d51615825565b8183823760009101908152919050565b81810381811115610d5157610d51615825565b60006020828403121561593457600080fd5b5051919050565b65ffffffffffff82811682821603908082111561595a5761595a615825565b5092915050565b60208082526021908201527f53746f726d4269744c656e64696e673a204b5943206e6f7420766572696669656040820152601960fa1b606082015260800190565b60208082526024908201527f53746f726d4269744c656e64696e673a206173736574206e6f7420737570706f6040820152631c9d195960e21b606082015260800190565b8082028115828204841417610d5157610d51615825565b634e487b7160e01b600052601260045260246000fd5b600082615a3057634e487b7160e01b600052601260045260246000fd5b500490565b65ffffffffffff81811683821601908082111561595a5761595a615825565b6001600160a01b0386811682528581166020830152604082018590528316606082015260a060808201819052600090611992908301846147f4565b600082825180855260208086019550808260051b84010181860160005b84811015615ada57601f19868403018952615ac88383516147f4565b98840198925090830190600101615aac565b5090979650505050505050565b608081526000615afa6080830187615518565b8281036020840152615b0c818761512c565b90508281036040840152615b208186615a8f565b91505082606083015295945050505050565b83815260608101615b466020830185614db6565b826040830152949350505050565b60ff8181168382160190811115610d5157610d51615825565b600181815b80851115615ba8578160001904821115615b8e57615b8e615825565b80851615615b9b57918102915b93841c9390800290615b72565b509250929050565b600082615bbf57506001610d51565b81615bcc57506000610d51565b8160018114615be25760028114615bec57615c08565b6001915050610d51565b60ff841115615bfd57615bfd615825565b50506001821b610d51565b5060208310610133831016604e8410600b8410161715615c2b575081810a610d51565b615c358383615b6d565b8060001904821115615c4957615c49615825565b029392505050565b6000611ec760ff841683615bb0565b84815260ff8416602082015282604082015260806060820152600061177d60808301846147f4565b85815260ff8516602082015283604082015260a060608201526000615cb060a08301856147f4565b8281036080840152611cc881856147f4565b60ff929092168252602082015260400190565b60006101208b8352602060018060a01b038c1681850152816040850152615cfe8285018c615518565b91508382036060850152615d12828b61512c565b915083820360808501528189518084528284019150828160051b850101838c0160005b83811015615d6357601f19878403018552615d518383516147f4565b94860194925090850190600101615d35565b505086810360a0880152615d77818c615a8f565b9450505050508560c08401528460e0840152828103610100840152615d9c81856147f4565b9c9b505050505050505050505050565b60008251615dbe8184602087016147d0565b9190910192915050565b828152604060208201526000611ec460408301846147f456fef2aad550cf55f045cb27e9c559f9889fdfb6e6cdaa032301d6ea397784ae51d73e83946653575f9a39005e1545185629e92736b7528ab20ca3816f315424a811a2646970667358221220288ede05790ae49488b98777c2996b498ea74cece64925da7a98a7492bf9a9e064736f6c63430008150033",
  "devdoc": {
    "errors": {
      "CheckpointUnorderedInsertion()": [
        {
          "details": "A value was attempted to be inserted on a past checkpoint."
        }
      ],
      "ERC1167FailedCreateClone()": [
        {
          "details": "A clone instance deployment failed."
        }
      ],
      "FailedInnerCall()": [
        {
          "details": "A call to an address target failed. The target may have reverted."
        }
      ],
      "GovernorAlreadyCastVote(address)": [
        {
          "details": "The vote was already cast."
        }
      ],
      "GovernorAlreadyQueuedProposal(uint256)": [
        {
          "details": "The proposal has already been queued."
        }
      ],
      "GovernorDisabledDeposit()": [
        {
          "details": "Token deposits are disabled in this contract."
        }
      ],
      "GovernorInsufficientProposerVotes(address,uint256,uint256)": [
        {
          "details": "The `proposer` does not have the required votes to create a proposal."
        }
      ],
      "GovernorInvalidProposalLength(uint256,uint256,uint256)": [
        {
          "details": "Empty proposal or a mismatch between the parameters length for a proposal call."
        }
      ],
      "GovernorInvalidQuorumFraction(uint256,uint256)": [
        {
          "details": "The quorum set is not a valid fraction."
        }
      ],
      "GovernorInvalidSignature(address)": [
        {
          "details": "The provided signature is not valid for the expected `voter`. If the `voter` is a contract, the signature is not valid using {IERC1271-isValidSignature}."
        }
      ],
      "GovernorInvalidVoteType()": [
        {
          "details": "The vote type used is not valid for the corresponding counting module."
        }
      ],
      "GovernorInvalidVotingPeriod(uint256)": [
        {
          "details": "The voting period set is not a valid period."
        }
      ],
      "GovernorNonexistentProposal(uint256)": [
        {
          "details": "The `proposalId` doesn't exist."
        }
      ],
      "GovernorNotQueuedProposal(uint256)": [
        {
          "details": "The proposal hasn't been queued yet."
        }
      ],
      "GovernorOnlyExecutor(address)": [
        {
          "details": "The `account` is not the governance executor."
        }
      ],
      "GovernorOnlyProposer(address)": [
        {
          "details": "The `account` is not a proposer."
        }
      ],
      "GovernorQueueNotImplemented()": [
        {
          "details": "Queue operation is not implemented for this governor. Execute should be called directly."
        }
      ],
      "GovernorRestrictedProposer(address)": [
        {
          "details": "The `proposer` is not allowed to create a proposal."
        }
      ],
      "GovernorUnexpectedProposalState(uint256,uint8,bytes32)": [
        {
          "details": "The current state of a proposal is not the required for performing an operation. The `expectedStates` is a bitmap with the bits enabled for each ProposalState enum position counting from right to left. NOTE: If `expectedState` is `bytes32(0)`, the proposal is expected to not be in any state (i.e. not exist). This is the case when a proposal that is expected to be unset is already initiated (the proposal is duplicated). See {Governor-_encodeStateBitmap}."
        }
      ],
      "InvalidAccountNonce(address,uint256)": [
        {
          "details": "The nonce used for an `account` is not the expected current nonce."
        }
      ],
      "InvalidInitialization()": [
        {
          "details": "The contract is already initialized."
        }
      ],
      "NotInitializing()": [
        {
          "details": "The contract is not initializing."
        }
      ],
      "OwnableInvalidOwner(address)": [
        {
          "details": "The owner is not a valid owner account. (eg. `address(0)`)"
        }
      ],
      "OwnableUnauthorizedAccount(address)": [
        {
          "details": "The caller account is not authorized to perform an operation."
        }
      ],
      "QueueEmpty()": [
        {
          "details": "An operation (e.g. {front}) couldn't be completed due to the queue being empty."
        }
      ],
      "QueueFull()": [
        {
          "details": "A push operation couldn't be completed due to the queue being full."
        }
      ],
      "ReentrancyGuardReentrantCall()": [
        {
          "details": "Unauthorized reentrant call."
        }
      ],
      "SafeCastOverflowedUintDowncast(uint8,uint256)": [
        {
          "details": "Value doesn't fit in an uint of `bits` size."
        }
      ]
    },
    "events": {
      "EIP712DomainChanged()": {
        "details": "MAY be emitted to signal that the domain could have changed."
      },
      "Initialized(uint64)": {
        "details": "Triggered when the contract has been initialized or reinitialized."
      },
      "ProposalCanceled(uint256)": {
        "details": "Emitted when a proposal is canceled."
      },
      "ProposalCreated(uint256,address,address[],uint256[],string[],bytes[],uint256,uint256,string)": {
        "details": "Emitted when a proposal is created."
      },
      "ProposalExecuted(uint256)": {
        "details": "Emitted when a proposal is executed."
      },
      "ProposalQueued(uint256,uint256)": {
        "details": "Emitted when a proposal is queued."
      },
      "VoteCast(address,uint256,uint8,uint256,string)": {
        "details": "Emitted when a vote is cast without params. Note: `support` values should be seen as buckets. Their interpretation depends on the voting module used."
      },
      "VoteCastWithParams(address,uint256,uint8,uint256,string,bytes)": {
        "details": "Emitted when a vote is cast with params. Note: `support` values should be seen as buckets. Their interpretation depends on the voting module used. `params` are additional encoded parameters. Their interpepretation also depends on the voting module used."
      }
    },
    "kind": "dev",
    "methods": {
      "COUNTING_MODE()": {
        "details": "See {IGovernor-COUNTING_MODE}."
      },
      "cancel(address[],uint256[],bytes[],bytes32)": {
        "details": "See {IGovernor-cancel}."
      },
      "castVote(uint256,uint8)": {
        "details": "See {IGovernor-castVote}."
      },
      "castVoteBySig(uint256,uint8,address,bytes)": {
        "details": "See {IGovernor-castVoteBySig}."
      },
      "castVoteWithReason(uint256,uint8,string)": {
        "details": "See {IGovernor-castVoteWithReason}."
      },
      "castVoteWithReasonAndParams(uint256,uint8,string,bytes)": {
        "details": "See {IGovernor-castVoteWithReasonAndParams}."
      },
      "castVoteWithReasonAndParamsBySig(uint256,uint8,address,string,bytes,bytes)": {
        "details": "See {IGovernor-castVoteWithReasonAndParamsBySig}."
      },
      "eip712Domain()": {
        "details": "See {IERC-5267}."
      },
      "execute(address[],uint256[],bytes[],bytes32)": {
        "details": "See {IGovernor-execute}."
      },
      "getVotes(address,uint256)": {
        "details": "See {IGovernor-getVotes}."
      },
      "getVotesWithParams(address,uint256,bytes)": {
        "details": "See {IGovernor-getVotesWithParams}."
      },
      "hasVoted(uint256,address)": {
        "details": "See {IGovernor-hasVoted}."
      },
      "hashProposal(address[],uint256[],bytes[],bytes32)": {
        "details": "See {IGovernor-hashProposal}. The proposal id is produced by hashing the ABI encoded `targets` array, the `values` array, the `calldatas` array and the descriptionHash (bytes32 which itself is the keccak256 hash of the description string). This proposal id can be produced from the proposal data which is part of the {ProposalCreated} event. It can even be computed in advance, before the proposal is submitted. Note that the chainId and the governor address are not part of the proposal id computation. Consequently, the same proposal (with same operation and same description) will have the same id if submitted on multiple governors across multiple networks. This also means that in order to execute the same operation twice (on the same governor) the proposer will have to change the description in order to avoid proposal id conflicts."
      },
      "name()": {
        "details": "See {IGovernor-name}."
      },
      "nonces(address)": {
        "details": "Returns the next unused nonce for an address."
      },
      "onERC1155BatchReceived(address,address,uint256[],uint256[],bytes)": {
        "details": "See {IERC1155Receiver-onERC1155BatchReceived}. Receiving tokens is disabled if the governance executor is other than the governor itself (eg. when using with a timelock)."
      },
      "onERC1155Received(address,address,uint256,uint256,bytes)": {
        "details": "See {IERC1155Receiver-onERC1155Received}. Receiving tokens is disabled if the governance executor is other than the governor itself (eg. when using with a timelock)."
      },
      "onERC721Received(address,address,uint256,bytes)": {
        "details": "See {IERC721Receiver-onERC721Received}. Receiving tokens is disabled if the governance executor is other than the governor itself (eg. when using with a timelock)."
      },
      "owner()": {
        "details": "Returns the address of the current owner."
      },
      "proposalDeadline(uint256)": {
        "details": "See {IGovernor-proposalDeadline}."
      },
      "proposalEta(uint256)": {
        "details": "See {IGovernor-proposalEta}."
      },
      "proposalNeedsQueuing(uint256)": {
        "details": "See {IGovernor-proposalNeedsQueuing}."
      },
      "proposalProposer(uint256)": {
        "details": "See {IGovernor-proposalProposer}."
      },
      "proposalSnapshot(uint256)": {
        "details": "See {IGovernor-proposalSnapshot}."
      },
      "proposalThreshold()": {
        "details": "See {IGovernor-proposalThreshold}."
      },
      "proposalVotes(uint256)": {
        "details": "Accessor to the internal vote counts."
      },
      "propose(address[],uint256[],bytes[],string)": {
        "details": "See {IGovernor-propose}. This function has opt-in frontrunning protection, described in {_isValidDescriptionForProposer}."
      },
      "queue(address[],uint256[],bytes[],bytes32)": {
        "details": "See {IGovernor-queue}."
      },
      "quorum(uint256)": {
        "details": "Returns the quorum for a timepoint, in terms of number of votes: `supply * numerator / denominator`."
      },
      "quorumDenominator()": {
        "details": "Returns the quorum denominator. Defaults to 100, but may be overridden."
      },
      "quorumNumerator()": {
        "details": "Returns the current quorum numerator. See {quorumDenominator}."
      },
      "quorumNumerator(uint256)": {
        "details": "Returns the quorum numerator at a specific timepoint. See {quorumDenominator}."
      },
      "relay(address,uint256,bytes)": {
        "details": "Relays a transaction or function call to an arbitrary target. In cases where the governance executor is some contract other than the governor itself, like when using a timelock, this function can be invoked in a governance proposal to recover tokens or Ether that was sent to the governor contract by mistake. Note that if the executor is simply the governor itself, use of `relay` is redundant."
      },
      "renounceOwnership()": {
        "details": "Leaves the contract without owner. It will not be possible to call `onlyOwner` functions. Can only be called by the current owner. NOTE: Renouncing ownership will leave the contract without an owner, thereby disabling any functionality that is only available to the owner."
      },
      "state(uint256)": {
        "details": "See {IGovernor-state}."
      },
      "supportsInterface(bytes4)": {
        "details": "See {IERC165-supportsInterface}."
      },
      "token()": {
        "details": "The token that voting power is sourced from."
      },
      "transferOwnership(address)": {
        "details": "Transfers ownership of the contract to a new account (`newOwner`). Can only be called by the current owner."
      },
      "updateQuorumNumerator(uint256)": {
        "details": "Changes the quorum numerator. Emits a {QuorumNumeratorUpdated} event. Requirements: - Must be called through a governance proposal. - New numerator must be smaller or equal to the denominator."
      },
      "version()": {
        "details": "See {IGovernor-version}."
      },
      "votingDelay()": {
        "details": "Delay, between the proposal is created and the vote starts. The unit this duration is expressed in depends on the clock (see EIP-6372) this contract uses. This can be increased to leave time for users to buy voting power, or delegate it, before the voting of a proposal starts. NOTE: While this interface returns a uint256, timepoints are stored as uint48 following the ERC-6372 clock type. Consequently this value must fit in a uint48 (when added to the current clock). See {IERC6372-clock}."
      },
      "votingPeriod()": {
        "details": "Delay between the vote start and vote end. The unit this duration is expressed in depends on the clock (see EIP-6372) this contract uses. NOTE: The {votingDelay} can delay the start of the vote. This must be considered when setting the voting duration compared to the voting delay. NOTE: This value is stored when the proposal is submitted so that possible changes to the value do not affect proposals that have already been submitted. The type used to save it is a uint32. Consequently, while this interface returns a uint256, the value it returns should fit in a uint32."
      }
    },
    "version": 1
  },
  "userdoc": {
    "kind": "user",
    "methods": {
      "getValidVotes(address)": {
        "notice": "function getPastVotes(address account, uint256 timepoint) where timepoint is block timestamp - cool down"
      },
      "votingDelay()": {
        "notice": "module:user-config"
      },
      "votingPeriod()": {
        "notice": "module:user-config"
      }
    },
    "version": 1
  },
  "storageLayout": {
    "storage": [
      {
        "astId": 9616,
        "contract": "contracts/StormBitLending.sol:StormBitLending",
        "label": "_status",
        "offset": 0,
        "slot": "0",
        "type": "t_uint256"
      },
      {
        "astId": 17110,
        "contract": "contracts/StormBitLending.sol:StormBitLending",
        "label": "_poolName",
        "offset": 0,
        "slot": "1",
        "type": "t_string_storage"
      },
      {
        "astId": 17112,
        "contract": "contracts/StormBitLending.sol:StormBitLending",
        "label": "_creditScore",
        "offset": 0,
        "slot": "2",
        "type": "t_uint256"
      },
      {
        "astId": 17114,
        "contract": "contracts/StormBitLending.sol:StormBitLending",
        "label": "_maxAmountOfStakers",
        "offset": 0,
        "slot": "3",
        "type": "t_uint256"
      },
      {
        "astId": 17116,
        "contract": "contracts/StormBitLending.sol:StormBitLending",
        "label": "_votingQuorum",
        "offset": 0,
        "slot": "4",
        "type": "t_uint256"
      },
      {
        "astId": 17118,
        "contract": "contracts/StormBitLending.sol:StormBitLending",
        "label": "_maxPoolUsage",
        "offset": 0,
        "slot": "5",
        "type": "t_uint256"
      },
      {
        "astId": 17120,
        "contract": "contracts/StormBitLending.sol:StormBitLending",
        "label": "_votingPowerCoolDown",
        "offset": 0,
        "slot": "6",
        "type": "t_uint256"
      },
      {
        "astId": 17123,
        "contract": "contracts/StormBitLending.sol:StormBitLending",
        "label": "_loanRequestNonce",
        "offset": 0,
        "slot": "7",
        "type": "t_uint256"
      },
      {
        "astId": 17125,
        "contract": "contracts/StormBitLending.sol:StormBitLending",
        "label": "_lendingVotes",
        "offset": 0,
        "slot": "8",
        "type": "t_address"
      },
      {
        "astId": 17128,
        "contract": "contracts/StormBitLending.sol:StormBitLending",
        "label": "_stormBit",
        "offset": 0,
        "slot": "9",
        "type": "t_contract(IStormBit)19153"
      },
      {
        "astId": 17132,
        "contract": "contracts/StormBitLending.sol:StormBitLending",
        "label": "_isSupportedAsset",
        "offset": 0,
        "slot": "10",
        "type": "t_mapping(t_address,t_bool)"
      },
      {
        "astId": 17136,
        "contract": "contracts/StormBitLending.sol:StormBitLending",
        "label": "_isSupportedAction",
        "offset": 0,
        "slot": "11",
        "type": "t_mapping(t_bytes4,t_bool)"
      },
      {
        "astId": 17140,
        "contract": "contracts/StormBitLending.sol:StormBitLending",
        "label": "_isSupportedAgreement",
        "offset": 0,
        "slot": "12",
        "type": "t_mapping(t_address,t_bool)"
      },
      {
        "astId": 17144,
        "contract": "contracts/StormBitLending.sol:StormBitLending",
        "label": "_userAgreement",
        "offset": 0,
        "slot": "13",
        "type": "t_mapping(t_address,t_address)"
      },
      {
        "astId": 17149,
        "contract": "contracts/StormBitLending.sol:StormBitLending",
        "label": "_loanDetails",
        "offset": 0,
        "slot": "14",
        "type": "t_mapping(t_uint256,t_struct(LoanDetails)19195_storage)"
      },
      {
        "astId": 17151,
        "contract": "contracts/StormBitLending.sol:StormBitLending",
        "label": "_totalBorrowed",
        "offset": 0,
        "slot": "15",
        "type": "t_uint256"
      },
      {
        "astId": 17153,
        "contract": "contracts/StormBitLending.sol:StormBitLending",
        "label": "_totalSupplied",
        "offset": 0,
        "slot": "16",
        "type": "t_uint256"
      },
      {
        "astId": 17156,
        "contract": "contracts/StormBitLending.sol:StormBitLending",
        "label": "_supportedAssets",
        "offset": 0,
        "slot": "17",
        "type": "t_array(t_address)dyn_storage"
      },
      {
        "astId": 17159,
        "contract": "contracts/StormBitLending.sol:StormBitLending",
        "label": "_supportedAgreements",
        "offset": 0,
        "slot": "18",
        "type": "t_array(t_address)dyn_storage"
      },
      {
        "astId": 17162,
        "contract": "contracts/StormBitLending.sol:StormBitLending",
        "label": "_stakers",
        "offset": 0,
        "slot": "19",
        "type": "t_array(t_address)dyn_storage"
      },
      {
        "astId": 17165,
        "contract": "contracts/StormBitLending.sol:StormBitLending",
        "label": "_loanRequests",
        "offset": 0,
        "slot": "20",
        "type": "t_array(t_uint256)dyn_storage"
      }
    ],
    "types": {
      "t_address": {
        "encoding": "inplace",
        "label": "address",
        "numberOfBytes": "20"
      },
      "t_array(t_address)dyn_storage": {
        "base": "t_address",
        "encoding": "dynamic_array",
        "label": "address[]",
        "numberOfBytes": "32"
      },
      "t_array(t_uint256)dyn_storage": {
        "base": "t_uint256",
        "encoding": "dynamic_array",
        "label": "uint256[]",
        "numberOfBytes": "32"
      },
      "t_bool": {
        "encoding": "inplace",
        "label": "bool",
        "numberOfBytes": "1"
      },
      "t_bytes4": {
        "encoding": "inplace",
        "label": "bytes4",
        "numberOfBytes": "4"
      },
      "t_bytes_storage": {
        "encoding": "bytes",
        "label": "bytes",
        "numberOfBytes": "32"
      },
      "t_contract(IStormBit)19153": {
        "encoding": "inplace",
        "label": "contract IStormBit",
        "numberOfBytes": "20"
      },
      "t_mapping(t_address,t_address)": {
        "encoding": "mapping",
        "key": "t_address",
        "label": "mapping(address => address)",
        "numberOfBytes": "32",
        "value": "t_address"
      },
      "t_mapping(t_address,t_bool)": {
        "encoding": "mapping",
        "key": "t_address",
        "label": "mapping(address => bool)",
        "numberOfBytes": "32",
        "value": "t_bool"
      },
      "t_mapping(t_bytes4,t_bool)": {
        "encoding": "mapping",
        "key": "t_bytes4",
        "label": "mapping(bytes4 => bool)",
        "numberOfBytes": "32",
        "value": "t_bool"
      },
      "t_mapping(t_uint256,t_struct(LoanDetails)19195_storage)": {
        "encoding": "mapping",
        "key": "t_uint256",
        "label": "mapping(uint256 => struct IStormBitLending.LoanDetails)",
        "numberOfBytes": "32",
        "value": "t_struct(LoanDetails)19195_storage"
      },
      "t_string_storage": {
        "encoding": "bytes",
        "label": "string",
        "numberOfBytes": "32"
      },
      "t_struct(LoanDetails)19195_storage": {
        "encoding": "inplace",
        "label": "struct IStormBitLending.LoanDetails",
        "members": [
          {
            "astId": 19184,
            "contract": "contracts/StormBitLending.sol:StormBitLending",
            "label": "token",
            "offset": 0,
            "slot": "0",
            "type": "t_address"
          },
          {
            "astId": 19186,
            "contract": "contracts/StormBitLending.sol:StormBitLending",
            "label": "amount",
            "offset": 0,
            "slot": "1",
            "type": "t_uint256"
          },
          {
            "astId": 19188,
            "contract": "contracts/StormBitLending.sol:StormBitLending",
            "label": "agreement",
            "offset": 0,
            "slot": "2",
            "type": "t_address"
          },
          {
            "astId": 19190,
            "contract": "contracts/StormBitLending.sol:StormBitLending",
            "label": "agreementCalldata",
            "offset": 0,
            "slot": "3",
            "type": "t_bytes_storage"
          },
          {
            "astId": 19192,
            "contract": "contracts/StormBitLending.sol:StormBitLending",
            "label": "loanId",
            "offset": 0,
            "slot": "4",
            "type": "t_uint256"
          },
          {
            "astId": 19194,
            "contract": "contracts/StormBitLending.sol:StormBitLending",
            "label": "borrower",
            "offset": 0,
            "slot": "5",
            "type": "t_address"
          }
        ],
        "numberOfBytes": "192"
      },
      "t_uint256": {
        "encoding": "inplace",
        "label": "uint256",
        "numberOfBytes": "32"
      }
    }
  }
}